:100000000C94D9080C94E00E0C94F6080C94F608A5
:100010000C94F6080C94050F0C94F6080C94F60852
:100020000C94F6080C94F6080C94F6080C94F60858
:100030000C94F6080C94F6080C94F6080C94F60848
:100040000C948F0E0C94F6080C94F6080C94F60899
:100050000C94B40E0C94F6080C94F6080C94F60864
:100060000C94F6080C94F608181C1E1CCE1C9B1C45
:10007000921CF41CCD1DCD1DCD1DCD1DCD1DCD1D46
:10008000CD1DCD1DCD1D381D561DC6A56363F8843D
:100090007C7CEE997777F68D7B7BFF0DF2F2D6BDF7
:1000A0006B6BDEB16F6F9154C5C560503030020389
:1000B0000101CEA96767567D2B2BE719FEFEB562BD
:1000C000D7D74DE6ABABEC9A76768F45CACA1F9D63
:1000D00082828940C9C9FA877D7DEF15FAFAB2EBB1
:1000E00059598EC94747FB0BF0F041ECADADB367F2
:1000F000D4D45FFDA2A245EAAFAF23BF9C9C53F7C7
:10010000A4A4E49672729B5BC0C075C2B7B7E11C31
:10011000FDFD3DAE93934C6A26266C5A36367E41E1
:100120003F3FF502F7F7834FCCCC685C343451F491
:10013000A5A5D134E5E5F908F1F1E2937171AB734E
:10014000D8D8625331312A3F1515080C0404955252
:10015000C7C7466523239D5EC3C33028181837A13F
:1001600096960A0F05052FB59A9A0E0907072436A9
:1001700012121B9B8080DF3DE2E2CD26EBEB4E6945
:1001800027277FCDB2B2EA9F7575121B09091D9E04
:10019000838358742C2C342E1A1A362D1B1BDCB278
:1001A0006E6EB4EE5A5A5BFBA0A0A4F65252764D86
:1001B0003B3BB761D6D67DCEB3B3527B2929DD3E1A
:1001C000E3E35E712F2F13978484A6F55353B96828
:1001D000D1D100000000C12CEDED40602020E31FD4
:1001E000FCFC79C8B1B1B6ED5B5BD4BE6A6A8D46E2
:1001F000CBCB67D9BEBE724B393994DE4A4A98D40C
:100200004C4CB0E85858854ACFCFBB6BD0D0C52AEC
:10021000EFEF4FE5AAAAED16FBFB86C543439AD73D
:100220004D4D66553333119485858ACF4545E91088
:10023000F9F904060202FE817F7FA0F05050784455
:100240003C3C25BA9F9F4BE3A8A8A2F351515DFE09
:10025000A3A380C04040058A8F8F3FAD929221BCFE
:100260009D9D70483838F104F5F563DFBCBC77C15B
:10027000B6B6AF75DADA4263212120301010E51AE4
:10028000FFFFFD0EF3F3BF6DD2D2814CCDCD18141C
:100290000C0C26351313C32FECECBEE15F5F35A2C7
:1002A000979788CC44442E3917179357C4C455F2F6
:1002B000A7A7FC827E7E7A473D3DC8AC6464BAE75E
:1002C0005D5D322B1919E6957373C0A060601998B3
:1002D00081819ED14F4FA37FDCDC44662222547E75
:1002E0002A2A3BAB90900B8388888CCA4646C72944
:1002F000EEEE6BD3B8B8283C1414A779DEDEBCE26E
:100300005E5E161D0B0BAD76DBDBDB3BE0E064567F
:100310003232744E3A3A141E0A0A92DB49490C0AE8
:100320000606486C2424B8E45C5C9F5DC2C2BD6EC6
:10033000D3D343EFACACC4A6626239A8919131A487
:100340009595D337E4E4F28B7979D532E7E78B439F
:10035000C8C86E593737DAB76D6D018C8D8DB164B1
:10036000D5D59CD24E4E49E0A9A9D8B46C6CACFA54
:100370005656F307F4F4CF25EAEACAAF6565F48E62
:100380007A7A47E9AEAE101808086FD5BABAF08885
:1003900078784A6F25255C722E2E38241C1C57F164
:1003A000A6A673C7B4B49751C6C6CB23E8E8A17C10
:1003B000DDDDE89C74743E211F1F96DD4B4B61DC34
:1003C000BDBD0D868B8B0F858A8AE09070707C4254
:1003D0003E3E71C4B5B5CCAA666690D848480605BD
:1003E0000303F701F6F61C120E0EC2A361616A5FE9
:1003F0003535AEF9575769D0B9B9179186869958EE
:10040000C1C13A271D1D27B99E9ED938E1E1EB13E2
:10041000F8F82BB3989822331111D2BB6969A970EF
:10042000D9D907898E8E33A794942DB69B9B3C22F5
:100430001E1E15928787C920E9E98749CECEAAFFFB
:10044000555550782828A57ADFDF038F8C8C59F812
:10045000A1A1098089891A170D0D65DABFBFD731AF
:10046000E6E684C64242D0B8686882C3414129B0FA
:1004700099995A772D2D1E110F0F7BCBB0B0A8FC88
:1004800054546DD6BBBB2C3A161663C6A5637CF8D4
:10049000847C77EE99777BF68D7BF2FF0DF26BD63D
:1004A000BD6B6FDEB16FC59154C530605030010235
:1004B000030167CEA9672B567D2BFEE719FED7B542
:1004C00062D7AB4DE6AB76EC9A76CA8F45CA821FEF
:1004D0009D82C98940C97DFA877DFAEF15FA59B224
:1004E000EB59478EC947F0FB0BF0AD41ECADD4B3EF
:1004F00067D4A25FFDA2AF45EAAF9C23BF9CA45383
:10050000F7A472E49672C09B5BC0B775C2B7FDE1F9
:100510001CFD933DAE93264C6A26366C5A363F7EC0
:10052000413FF7F502F7CC834FCC34685C34A551DA
:10053000F4A5E5D134E5F1F908F171E29371D8AB96
:1005400073D831625331152A3F1504080C04C7953E
:1005500052C723466523C39D5EC3183028189637BB
:10056000A196050A0F059A2FB59A070E09071224BE
:100570003612801B9B80E2DF3DE2EBCD26EB274E5F
:100580006927B27FCDB275EA9F7509121B09831DD9
:100590009E832C58742C1A342E1A1B362D1B6EDC9D
:1005A000B26E5AB4EE5AA05BFBA052A4F6523B7650
:1005B0004D3BD6B761D6B37DCEB329527B29E3DD5F
:1005C0003EE32F5E712F8413978453A6F553D1B960
:1005D00068D100000000EDC12CED20406020FCE35C
:1005E0001FFCB179C8B15BB6ED5B6AD4BE6ACB8D36
:1005F00046CBBE67D9BE39724B394A94DE4A4C9815
:10060000D44C58B0E858CF854ACFD0BB6BD0EFC59B
:100610002AEFAA4FE5AAFBED16FB4386C5434D9A88
:10062000D74D3366553385119485458ACF45F9E911
:1006300010F9020406027FFE817F50A0F0503C7842
:10064000443C9F25BA9FA84BE3A851A2F351A35D58
:10065000FEA34080C0408F058A8F923FAD929D21BE
:10066000BC9D38704838F5F104F5BC63DFBCB67743
:10067000C1B6DAAF75DA2142632110203010FFE5F0
:100680001AFFF3FD0EF3D2BF6DD2CD814CCD0C1805
:10069000140C13263513ECC32FEC5FBEE15F9735C6
:1006A000A2974488CC44172E3917C49357C4A75532
:1006B000F2A77EFC827E3D7A473D64C8AC645DBA99
:1006C000E75D19322B1973E6957360C0A06081193C
:1006D00098814F9ED14FDCA37FDC224466222A54AE
:1006E0007E2A903BAB90880B8388468CCA46EEC727
:1006F00029EEB86BD3B814283C14DEA779DE5EBCB3
:10070000E25E0B161D0BDBAD76DBE0DB3BE032641B
:1007100056323A744E3A0A141E0A4992DB49060CC4
:100720000A0624486C245CB8E45CC29F5DC2D3BD59
:100730006ED3AC43EFAC62C4A6629139A8919531F7
:10074000A495E4D337E479F28B79E7D532E7C88B07
:1007500043C8376E59376DDAB76D8D018C8DD5B1C1
:1007600064D54E9CD24EA949E0A96CD8B46C56AC65
:10077000FA56F4F307F4EACF25EA65CAAF657AF4CE
:100780008E7AAE47E9AE08101808BA6FD5BA78F07D
:100790008878254A6F252E5C722E1C38241CA6579B
:1007A000F1A6B473C7B4C69751C6E8CB23E8DDA160
:1007B0007CDD74E89C741F3E211F4B96DD4BBD61B0
:1007C000DCBD8B0D868B8A0F858A70E090703E7C35
:1007D000423EB571C4B566CCAA664890D8480306B7
:1007E0000503F6F701F60E1C120E61C2A361356A0D
:1007F0005F3557AEF957B969D0B986179186C19957
:1008000058C11D3A271D9E27B99EE1D938E1F8EB62
:1008100013F8982BB3981122331169D2BB69D9A967
:1008200070D98E07898E9433A7949B2DB69B1E3C5E
:10083000221E87159287E9C920E9CE8749CE55AA9D
:10084000FF5528507828DFA57ADF8C038F8CA159BB
:10085000F8A1890980890D1A170DBF65DABFE6D79F
:1008600031E64284C64268D0B8684182C3419929C2
:10087000B0992D5A772D0F1E110FB07BCBB054A815
:10088000FC54BB6DD6BB162C3A166363C6A57C7CA4
:10089000F8847777EE997B7BF68DF2F2FF0D6B6B28
:1008A000D6BD6F6FDEB1C5C59154303060500101C7
:1008B00002036767CEA92B2B567DFEFEE719D7D71B
:1008C000B562ABAB4DE67676EC9ACACA8F458282AA
:1008D0001F9DC9C989407D7DFA87FAFAEF155959DC
:1008E000B2EB47478EC9F0F0FB0BADAD41ECD4D471
:1008F000B367A2A25FFDAFAF45EA9C9C23BFA4A44F
:1009000053F77272E496C0C09B5BB7B775C2FDFD2A
:10091000E11C93933DAE26264C6A36366C5A3F3F17
:100920007E41F7F7F502CCCC834F3434685CA5A543
:1009300051F4E5E5D134F1F1F9087171E293D8D8B9
:10094000AB733131625315152A3F0404080CC7C735
:10095000955223234665C3C39D5E1818302896968A
:1009600037A105050A0F9A9A2FB507070E0912122B
:10097000243680801B9BE2E2DF3DEBEBCD26272770
:100980004E69B2B27FCD7575EA9F0909121B838348
:100990001D9E2C2C58741A1A342E1B1B362D6E6E6D
:1009A000DCB25A5AB4EEA0A05BFB5252A4F63B3B19
:1009B000764DD6D6B761B3B37DCE2929527BE3E31A
:1009C000DD3E2F2F5E71848413975353A6F5D1D14A
:1009D000B96800000000EDEDC12C20204060FCFC57
:1009E000E31FB1B179C85B5BB6ED6A6AD4BECBCB0D
:1009F0008D46BEBE67D93939724B4A4A94DE4C4C9B
:100A000098D45858B0E8CFCF854AD0D0BB6BEFEF21
:100A1000C52AAAAA4FE5FBFBED16434386C54D4DFB
:100A20009AD7333366558585119445458ACFF9F9B0
:100A3000E910020204067F7FFE815050A0F03C3C8A
:100A400078449F9F25BAA8A84BE35151A2F3A3A3D2
:100A50005DFE404080C08F8F058A92923FAD9D9D84
:100A600021BC38387048F5F5F104BCBC63DFB6B67C
:100A700077C1DADAAF752121426310102030FFFF11
:100A8000E51AF3F3FD0ED2D2BF6DCDCD814C0C0C27
:100A9000181413132635ECECC32F5F5FBEE1979754
:100AA00035A2444488CC17172E39C4C49357A7A73E
:100AB00055F27E7EFC823D3D7A476464C8AC5D5D44
:100AC000BAE71919322B7373E6956060C0A0818173
:100AD00019984F4F9ED1DCDCA37F222244662A2A3C
:100AE000547E90903BAB88880B8346468CCAEEEED2
:100AF000C729B8B86BD31414283CDEDEA7795E5E34
:100B0000BCE20B0B161DDBDBAD76E0E0DB3B3232EB
:100B100064563A3A744E0A0A141E494992DB060694
:100B20000C0A2424486C5C5CB8E4C2C29F5DD3D339
:100B3000BD6EACAC43EF6262C4A6919139A89595A5
:100B400031A4E4E4D3377979F28BE7E7D532C8C82A
:100B50008B4337376E596D6DDAB78D8D018CD5D5D6
:100B6000B1644E4E9CD2A9A949E06C6CD8B45656DB
:100B7000ACFAF4F4F307EAEACF256565CAAF7A7AEE
:100B8000F48EAEAE47E908081018BABA6FD5787877
:100B9000F08825254A6F2E2E5C721C1C3824A6A6D0
:100BA00057F1B4B473C7C6C69751E8E8CB23DDDD6F
:100BB000A17C7474E89C1F1F3E214B4B96DDBDBD8C
:100BC00061DC8B8B0D868A8A0F857070E0903E3ECB
:100BD0007C42B5B571C46666CCAA484890D8030378
:100BE0000605F6F6F7010E0E1C126161C2A335353B
:100BF0006A5F5757AEF9B9B969D086861791C1C1F6
:100C000099581D1D3A279E9E27B9E1E1D938F8F879
:100C1000EB1398982BB3111122336969D2BBD9D940
:100C2000A9708E8E0789949433A79B9B2DB61E1EA8
:100C30003C2287871592E9E9C920CECE87495555D0
:100C4000AAFF28285078DFDFA57A8C8C038FA1A11A
:100C500059F8898909800D0D1A17BFBF65DAE6E6D4
:100C6000D731424284C66868D0B8414182C399995D
:100C700029B02D2D5A770F0F1E11B0B07BCB5454D5
:100C8000A8FCBBBB6DD616162C3AA56363C6847C44
:100C90007CF8997777EE8D7B7BF60DF2F2FFBD6BDA
:100CA0006BD6B16F6FDE54C5C59150303060030113
:100CB0000102A96767CE7D2B2B5619FEFEE762D78E
:100CC000D7B5E6ABAB4D9A7676EC45CACA8F9D8216
:100CD000821F40C9C989877D7DFA15FAFAEFEB5961
:100CE00059B2C947478E0BF0F0FBECADAD4167D46C
:100CF000D4B3FDA2A25FEAAFAF45BF9C9C23F7A48B
:100D0000A453967272E45BC0C09BC2B7B7751CFD5A
:100D1000FDE1AE93933D6A26264C5A36366C413F30
:100D20003F7E02F7F7F54FCCCC835C343468F4A5F2
:100D3000A55134E5E5D108F1F1F9937171E273D869
:100D4000D8AB533131623F15152A0C04040852C741
:100D5000C795652323465EC3C39D28181830A19606
:100D600096370F05050AB59A9A2F0907070E36120E
:100D700012249B80801B3DE2E2DF26EBEBCD69274E
:100D8000274ECDB2B27F9F7575EA1B0909129E836B
:100D9000831D742C2C582E1A1A342D1B1B36B26E40
:100DA0006EDCEE5A5AB4FBA0A05BF65252A44D3B47
:100DB0003B7661D6D6B7CEB3B37D7B2929523EE3CD
:100DC000E3DD712F2F5E97848413F55353A668D10A
:100DD000D1B9000000002CEDEDC1602020401FFCC7
:100DE000FCE3C8B1B179ED5B5BB6BE6A6AD446CBB1
:100DF000CB8DD9BEBE674B393972DE4A4A94D44C8A
:100E00004C98E85858B04ACFCF856BD0D0BB2AEF6A
:100E1000EFC5E5AAAA4F16FBFBEDC5434386D74DA8
:100E20004D9A5533336694858511CF45458A10F91F
:100E3000F9E906020204817F7FFEF05050A0443C95
:100E40003C78BA9F9F25E3A8A84BF35151A2FEA37B
:100E5000A35DC04040808A8F8F05AD92923FBC9DBC
:100E60009D214838387004F5F5F1DFBCBC63C1B68C
:100E7000B67775DADAAF63212142301010201AFFFD
:100E8000FFE50EF3F3FD6DD2D2BF4CCDCD81140C36
:100E90000C18351313262FECECC3E15F5FBEA2974D
:100EA0009735CC4444883917172E57C4C493F2A7FA
:100EB000A755827E7EFC473D3D7AAC6464C8E75D01
:100EC0005DBA2B191932957373E6A06060C09881E2
:100ED0008119D14F4F9E7FDCDCA3662222447E2AFB
:100EE0002A54AB90903B8388880BCA46468C29EEE7
:100EF000EEC7D3B8B86B3C14142879DEDEA7E25EE7
:100F00005EBC1D0B0B1676DBDBAD3BE0E0DB563247
:100F100032644E3A3A741E0A0A14DB4949920A06B0
:100F2000060C6C242448E45C5CB85DC2C29F6ED39E
:100F3000D3BDEFACAC43A66262C4A8919139A4952D
:100F4000953137E4E4D38B7979F232E7E7D543C8BA
:100F5000C88B5937376EB76D6DDA8C8D8D0164D5BE
:100F6000D5B1D24E4E9CE0A9A949B46C6CD8FA56C2
:100F700056AC07F4F4F325EAEACFAF6565CA8E7A7A
:100F80007AF4E9AEAE4718080810D5BABA6F887877
:100F900078F06F25254A722E2E5C241C1C38F1A691
:100FA000A657C7B4B47351C6C69723E8E8CB7CDD17
:100FB000DDA19C7474E8211F1F3EDD4B4B96DCBD08
:100FC000BD61868B8B0D858A8A0F907070E0423EE2
:100FD0003E7CC4B5B571AA6666CCD8484890050376
:100FE000030601F6F6F7120E0E1CA36161C25F350F
:100FF000356AF95757AED0B9B9699186861758C185
:10100000C199271D1D3AB99E9E2738E1E1D913F8F1
:10101000F8EBB398982B33111122BB6969D270D9C0
:10102000D9A9898E8E07A7949433B69B9B2D221E37
:101030001E3C9287871520E9E9C949CECE87FF5526
:1010400055AA782828507ADFDFA58F8C8C03F8A169
:10105000A15980898909170D0D1ADABFBF6531E6DC
:10106000E6D7C6424284B86868D0C3414182B0998D
:101070009929772D2D5A110F0F1ECBB0B07BFC5440
:1010800054A8D6BBBB6D3A16162C637C777BF26BEB
:101090006FC53001672BFED7AB76CA82C97DFA597E
:1010A00047F0ADD4A2AF9CA472C0B7FD9326363FE3
:1010B000F7CC34A5E5F171D8311504C723C31896D0
:1010C000059A071280E2EB27B27509832C1A1B6E72
:1010D0005AA0523BD6B329E32F8453D100ED20FC14
:1010E000B15B6ACBBE394A4C58CFD0EFAAFB434D17
:1010F000338545F9027F503C9FA851A3408F929DB4
:1011000038F5BCB6DA2110FFF3D2CD0C13EC5F97A3
:101110004417C4A77E3D645D197360814FDC222AA9
:10112000908846EEB814DE5E0BDBE0323A0A4906E0
:10113000245CC2D3AC629195E479E7C8376D8DD554
:101140004EA96C56F4EA657AAE08BA78252E1CA62C
:10115000B4C6E8DD741F4BBD8B8A703EB56648038C
:10116000F60E613557B986C11D9EE1F8981169D90F
:101170008E949B1E87E9CE5528DF8CA1890DBFE692
:10118000426841992D0FB054BB16000000010000C9
:101190000002000000040000000800000010000031
:1011A000002000000040000000800000001B000044
:1011B000003611241FBECFEFD8E0DEBFCDBF12E056
:1011C000A0E0B1E0E0E2F9E602C005900D92A23D98
:1011D000B107D9F725E0A2EDB2E001C01D92AD360E
:1011E000B207E1F70E94160A0C948E340C940000AA
:1011F000419B02C0419801C0419A0E94A10CAB01E1
:10120000BC014E5E55486F4F7F4F28EF38E085E0B8
:1012100093E00C94DC0CCF93DF93EC01109252041A
:101220008AEA8093530420E042E062E574E081E0C2
:101230000E94A6290E94A10CAB01BC01465A5D493F
:101240006D4F7F4F2BE039E0CE01DF91CF910C94B1
:10125000DC0CCF92DF92EF92FF920F931F93CF930C
:10126000DF93CDB7DEB7A0970FB6F894DEBF0FBE01
:10127000CDBF6C010E9425290E94971E80E1EDEEF2
:10128000F1E0DE01519601900D928A95E1F780E13F
:10129000EDEFF1E0DE01119601900D928A95E1F7F4
:1012A000CE0141967C018E010F5F1F4F2FED31E182
:1012B00041E056E261E070E080E090E00E94D929D0
:1012C00001E02FE330E040EA57E26EEB73E380E0A9
:1012D0000E944B1A2FE730E040EA57E26EEB73E3CF
:1012E00081E00E944B1A2FE330E040EA57E26EEBB8
:1012F00073E382E00E944B1A2FE330E040EA57E2AA
:101300006EEB73E383E00E944B1A2FE330E040EA78
:1013100057E26EEB73E384E00E944B1A2FE330E058
:1013200040EA57E26EEB73E385E00E944B1A2FE32D
:1013300030E040EA57E26EEB73E386E00E944B1A1E
:101340002FE330E040EA57E26EEB73E387E00E9460
:101350004B1A00E020E830E040EA57E26EEB73E31E
:1013600088E00E944B1A80E00E94172A83E0809355
:1013700035046EE085E00E9414290E94A10CAB01A7
:10138000BC012BE039E0C6010E94DC0CA0960FB630
:10139000F894DEBF0FBECDBFDF91CF911F910F91AB
:1013A000FF90EF90DF90CF900895DC0198E0E5E2A8
:1013B000F2E001900D929A95E1F70895DC0198E032
:1013C000EDE1F2E001900D929A95E1F70895DC01CC
:1013D00090E1EDE0F2E001900D929A95E1F7089529
:1013E0008AEA90E008958231910540F4880F991FB0
:1013F000FC01E753FE4F8081918102C080E091E0C3
:101400000E94920D8DE00E946C0D8AE00C946C0D90
:10141000CF93C82F90E00E94F309C63029F482EDE3
:1014200092E0CF910C940B09CF910895CF93DF9365
:10143000CDB7DEB728970FB6F894DEBF0FBECDBF8D
:101440000E94940C8BE091E00E94920D68EF78E08E
:1014500085E093E00E94B60C69E279E0CE01019646
:101460000E94B60C0E94210DFFCFFC01862F309701
:1014700049F0A081B1816C93808191810196918323
:10148000808308950C946C0D8F929F92AF92BF92BF
:10149000CF92DF92EF92FF920F931F93CF93DF9340
:1014A0004C018B01EA011C161D06ACF4FB01CF01B7
:1014B000801B910B31913111FACF8C179D071CF4D1
:1014C000C81BD90B02C0C0E0D0E021FF04C090E3EC
:1014D000A92EB12C03C080E2A82EB12C20FD14C08F
:1014E0007E011E141F0444F4B501C4010E94350A94
:1014F00081E0E81AF108F5CF7E01D7FF02C0E12CA8
:10150000F12CCE19DF0902C0E12CF12CE01AF10A0E
:101510006701C00ED11EF80161918F01662339F079
:10152000062E000C770BC4010E94350AF1CF8E0104
:10153000101611063CF4B501C4010E94350A015091
:101540001109F6CFCE01D7FF02C080E090E08C0DEC
:101550009D1DDF91CF911F910F91FF90EF90DF9034
:10156000CF90BF90AF909F908F9008956F927F9291
:101570008F929F92AF92BF92CF92DF92EF92FF92A3
:101580000F931F93CF93DF93CDB7DEB72C970FB692
:10159000F894DEBF0FBECDBF5C014A01FB0130975E
:1015A00061F480E389831A829701A801BE016F5F0D
:1015B0007F4FC5010E94440A4CC0232B59F04A308A
:1015C000510541F477FF06C0F195E195F10921E05D
:1015D00030E002C020E030E01C863E01ACE06A0E44
:1015E000711CBAE3CB1AD108309799F0CF01B4013E
:1015F0000E9454328A30910514F08C0D9D1D805D3F
:10160000D3018E933D01CF01B4010E945432FB01FE
:10161000EBCF232BA1F00115110569F0E1FE0BC002
:101620006DE270E0C5010E94350A01501109CC2419
:10163000C394D12C06C0F3018DE282933F01C12CEB
:10164000D12C9701A801B301C5010E94440A8C0D59
:101650009D1D2C960FB6F894DEBF0FBECDBFDF9157
:10166000CF911F910F91FF90EF90DF90CF90BF909F
:10167000AF909F908F907F906F9008953F924F9280
:101680005F926F927F928F929F92AF92BF92CF9212
:10169000DF92EF92FF920F931F93CF93DF9300D0CF
:1016A000CDB7DEB73C014B016A01A12CB12C5AE049
:1016B000352ED4018C91882351F0853209F0A6C0D3
:1016C000F4013196D40111968C91811109C06114F5
:1016D000710409F4AAC0D301ED91FC911082A5C058
:1016E000853209F492C08D3231F4F4013296EE2441
:1016F000E394F12C02C0E12CF12C9F012F5F3F4FAE
:101700008081803321F46894E1F8F901F6CF00E09C
:1017100010E04F014081319680ED840F8A3068F4EB
:10172000309EC001319E900D1124042F440F110BE7
:1017300000531109080F191FECCF433779F4260124
:10174000B2E04B0E511CF60160817181611571058B
:1017500011F46DE272E09701A80153C04436A9F478
:101760002601F2E04F0E511CD6016D917C9131E6BD
:10177000C32ED12C21E030E04AE050E0C3010E94AA
:10178000B60AA80EB91E62014CC0483759F42601AA
:10179000B2E04B0E511CF6016081718121E6C22E30
:1017A000D12C0CC0483579F42601F2E04F0E511CC3
:1017B000D6016D917C9191E4C92ED12C20E030E0CE
:1017C00040E150E0DBCF453769F42601B2E04B0E33
:1017D000511CF6016081718181E6C82ED12C20E078
:1017E00030E0CACF4336E9F42601F2E04F0E511C37
:1017F000D6018C9189831A829701A801BE016F5F7F
:101800007F4FC3010E94440ABCCF4F01F4016081A5
:10181000062E000C770BC3010E94350AFFEFAF1AAA
:10182000BF0A8FEF881A980A44CFC5010F900F9016
:10183000DF91CF911F910F91FF90EF90DF90CF90AC
:10184000BF90AF909F908F907F906F905F904F90E0
:101850003F9008950E946C0D80E090E00895EF9213
:10186000FF920F931F93CF93DF938B017A01EB01CC
:10187000CE01801B910B8E159F0524F489910E9447
:101880006C0DF6CF80E090E0DF91CF911F910F912A
:10189000FF90EF900895CF93DF93CDB7DEB7AE0101
:1018A0004B5F5F4FFA0161917191AF0180E090E071
:1018B0000E943E0BDF91CF910895CF93DF93CDB778
:1018C000DEB7AE01475F5F4F6F817885CE01059629
:1018D0000E943E0BDF91CF910895CF93DF93CDB758
:1018E000DEB7AE01455F5F4F69857A85CE0105960B
:1018F0000E943E0BDF91CF910895FC012081318140
:101900002115310571F02617370749F4FB012081B5
:101910003181FC013183208381E090E00895C90189
:10192000ECCF80E090E0089584E0EAEDF2E0DF01A2
:101930001D928A95E9F70E94A70D0E9444110C940C
:1019400076290C94240ECF93DF93EC010E941E0E97
:10195000BE018AED92E00E947D0CBE018CED92E00A
:101960000E947D0CDF91CF910C94200E0F931F935A
:10197000CF93DF93EC018B010E941E0EBE018CED14
:1019800092E00E947D0C1F830E8319821882E091E1
:10199000DC02F091DD02ACEDB2E0309729F0DF011E
:1019A0000190F081E02DF9CFCD93DC93DF91CF91C1
:1019B0001F910F910C94200ECF92DF92EF92FF9225
:1019C0000F931F93CF93DF93EC016A017B01890191
:1019D0000E941E0EBE018AED92E00E947D0CCA821A
:1019E000DB82EC82FD821F830E8319821882E091D4
:1019F000DA02F091DB022AED32E03097A9F0828121
:101A00009381A481B5818C199D09AE09BF0918166F
:101A100019061A061B061CF4F983E88305C09F010A
:101A20000190F081E02DE9CFF901D183C083DF91EE
:101A3000CF911F910F91FF90EF90DF90CF900C947A
:101A4000200E0E941E0EC091DC02D091DD02209774
:101A500039F0888199819093DD028093DC021BC06C
:101A6000E091DA02F091DB02309799F062817381A4
:101A7000848195810E945C0E892B59F0C091DA0215
:101A8000D091DB02888199819093DB028093DA0206
:101A900002C00E94220E0E94200E209791F2EE8139
:101AA000FF81CE010995CDCFF8948CE08093C400DE
:101AB0001092C500E1ECF0E0808188608083808135
:101AC00080618083808180648083E2ECF0E08081AB
:101AD00086608083789408959091C00095FF07C038
:101AE0009091DE02911103C08093C60008959091F9
:101AF000DE029431B0F49091DE029F5F9093DE029B
:101B0000E091DF02F0E0EF51FD4F80838091DF0232
:101B10008F5F8093DF028091DF02843111F4109295
:101B2000DF020895CF93DF93EC018991882319F0A8
:101B30000E946C0DFACFDF91CF910895229A84B163
:101B4000886284B924988CB581658CBD0895399AD2
:101B500041980E94540D0E949E0D84E085BD81E055
:101B600080936E00E9E6F0E0808183608083E89AEC
:101B700055985D98E8E6F0E0808184608083EDE62A
:101B8000F0E080818062808383B7817F83BF789417
:101B90000895813011F42A9A08952A980895089595
:101BA000823038F4219A813011F4299A08952998C5
:101BB0000895219808958EBD0DB407FEFDCF8EB512
:101BC0000895FF920F931F93CF93DF93F82EEB01AD
:101BD0008A0180E00E94C90D8F2D0E94DB0D0C0F41
:101BE0001D1FC017D10721F089910E94DB0DF9CF8D
:101BF0002A9ADF91CF911F910F91FF900895FF9244
:101C00000F931F93CF93DF93F82EEB018A0180E0AF
:101C10000E94C90D8F2D0E94DB0D0C0F1D1FC017D8
:101C2000D10729F080E00E94DB0D8993F8CF2A9A32
:101C3000DF91CF911F910F91FF900895F89408952F
:101C40007894089588950895F89480910D03909163
:101C50000E03A0910F03B091100326B57894BA2F0C
:101C6000A92F982F8827BC01CD01622B0895CF9210
:101C7000DF92EF92FF926B017C010E94240EA7017C
:101C80009601261B370B480B590BDA01C9011216B6
:101C90001306140615065CF4AD01772757FD709501
:101CA000672F452B462B472B41F7892B31F7FF90A8
:101CB000EF90DF90CF900895CF92DF92EF92FF9256
:101CC0000F931F936B017C010E94240E97018601E4
:101CD000061B170B280B390B1016110612061306DC
:101CE00084F4C901BB2797FDB095AB2F892B8A2BB4
:101CF0008B2B49F481E090E00530110530F080E055
:101D000004C081E001C080E090E01F910F91FF903E
:101D1000EF90DF90CF9008950895089508951F9251
:101D20000F920FB60F9211248F939F93AF93BF938F
:101D300080910D0390910E03A0910F03B0911003B9
:101D40000196A11DB11D80930D0390930E03A093E6
:101D50000F03B0931003BF91AF919F918F910F909C
:101D60000FBE0F901F9018951F920F920FB60F92F3
:101D700011248F93EF93FF938091DE028823C1F0AB
:101D8000E091E002F0E0EF51FD4F80818093C600CA
:101D90008091DE0281508093DE028091E0028F5FAD
:101DA0008093E0028091E002843111F41092E0020D
:101DB000FF91EF918F910F900FBE0F901F9018958C
:101DC0001F920F920FB60F9211242F933F934F93B0
:101DD0005F936F937F938F939F93AF93BF93EF9393
:101DE000FF9380E00E94D711FF91EF91BF91AF91D7
:101DF0009F918F917F916F915F914F913F912F9123
:101E00000F900FBE0F901F9018951F920F920FB654
:101E10000F9211242F933F934F935F936F937F9370
:101E20008F939F93AF93BF93EF93FF934D9B03C00B
:101E300081E00E94D711FF91EF91BF91AF919F91E7
:101E40008F917F916F915F914F913F912F910F9063
:101E50000FBE0F901F901895CF93DF93D82FC62FEA
:101E600080E00E94C90D8D2F80680E94DB0D8C2FB1
:101E70000E94DB0D81E0DF91CF910C94C90DCF93CF
:101E8000DF9380911F0390912003D82FD77053E0E8
:101E9000969587955A95E1F78370813029F050F037
:101EA000823021F480E907C080E805C00E948C0ED2
:101EB00080E001C080E760911F03709120039B01C7
:101EC00045E0369527954A95E1F72370C82F2230D3
:101ED00041F0233041F0213011F0C26005C0C460F0
:101EE00003C0C66001C0C860672F77276115710500
:101EF00021F0C16082E20E942C0F6C2F8DE10E94C4
:101F00002C0F6D2F6295607F605A80911F0387FFB1
:101F100064608EE10E942C0FD550D23068F480911D
:101F20001F039091200323E0969587952A95E1F76A
:101F3000837011F46CE001C064E086E2DF91CF9120
:101F40000C942C0FAF92BF92CF92DF92EF92FF9240
:101F50000F931F93CF93DF938091190390911A03EE
:101F6000A0911B03B0911C039C01AD0160E070E0E7
:101F700080E090E003E10E942C34A12CE8E4BE2E26
:101F8000F8EECF2EDD24D394E12CF12C00E010E00C
:101F90000E948833C22FB32E6A017B01182FD92FDC
:101FA00000E10E944734622F86E00E942C0F2C2F04
:101FB0003B2DA601B701812F9D2F08E00E944734D9
:101FC000622F87E00E942C0F6C2F88E0DF91CF9169
:101FD0001F910F91FF90EF90DF90CF90BF90AF9047
:101FE0000C942C0FCF93C82F80E00E94C90D8C2F2A
:101FF0008F770E94DB0D80E00E94DB0DC82F81E00F
:102000000E94C90D8C2FCF910895CF93C82F81E0E6
:102010000E94F20F887F682F6C2B81E0CF910C9487
:102020002C0FCF93C82F68E881E00E942C0F81E02D
:102030000E94F20F87FF0E948C0E81E00E94051023
:10204000C23049F46AE08DE10E942C0F60E78EE116
:102050000E942C0F04C00E943F0F0E94A20F61E259
:102060008CE00E942C0F60E483E20E942C0F809190
:10207000AC04882331F083E30E94F20F682F6F7B5A
:1020800005C083E30E94F20F682F606483E30E941F
:102090002C0F609121038FE10E942C0F64E389E3F0
:1020A0000E942C0F60EC80E40E942C0F6FEF82E105
:1020B0000E942C0FEC2FF0E0EE5BFD4F60816095ED
:1020C00081E10E942C0F80E00E94CF0DC1110CC055
:1020D0006091150370911603809117039091180376
:1020E0000E94370E86E001C085E0CF910C94051068
:1020F00060912303613124F462301CF462E001C07A
:102100006FE06F70606889E00E942C0F8AE50E9482
:10211000F20F682F64608AE50C942C0FCF93C82FC0
:1021200081E00E94F20F877011F00E948C0E809166
:102130001F03877009F067C0C1110E948C0E68E010
:1021400081E00E942C0F81E00E94F20F87FD0E9427
:102150008C0E81E00E9405100E94A20F61E28CE0CB
:102160000E942C0F6EE18DE00E942C0F6BE082E14B
:102170000E942C0F62E183E10E942C0F6AEA8FE13A
:102180000E942C0F62E187E20E942C0F68ED80E331
:102190000E942C0F60E481E30E942C0F61EC88E226
:1021A0000E942C0F64E989E20E942C0F61EC8AE204
:1021B0000E942C0F6FEF81E20E942C0F62E082E000
:1021C0000E942C0F60E883E00E942C0F61E084E005
:1021D0000E942C0F69E985E00E942C0F68E380E4DF
:1021E0000E942C0F80E00E94CF0D6091150370912A
:1021F000160380911703909118030E94370E85E013
:10220000CF910C9405108C2FCF910C9411100F933B
:102210001F93CF93DF93D82F80E00E94C90D80E0F9
:102220000E94DB0D02E514E0C0E0CD1741F080E034
:102230000E94DB0DF80181938F01CF5FF6CF81E023
:10224000DF91CF911F910F910C94C90D0F931F93A4
:10225000CF93DF93D82F80E00E94C90D80E80E94C1
:10226000DB0D02E514E0C0E0CD1739F0F8018191F3
:102270008F010E94DB0DCF5FF7CF81E0DF91CF911F
:102280001F910F910C94C90DAF92BF92CF92DF9224
:10229000EF92FF921F93CF93DF930E941E0E80E078
:1022A0000E94D00D0E94A10C615E7F4F8F4F9F4F07
:1022B0000E94370E82E00E94D00D0E94A10C64564D
:1022C0007F4F8F4F9F4F0E94370E80E00E94051076
:1022D00082E40E94F20F823111F00E948C0E82E0A3
:1022E0000E94111081E00E94F20F87708530D1F7B3
:1022F000C5EFD2E094E0A92E93E0B92E88E0E82E55
:10230000F12C8CE20E94F20F182F11708CE20E94C7
:10231000F20F212F30E080FBCC24C0F8D12C2C15FB
:102320003D0579F38981880F182B198381E0E81A1C
:10233000F10839F72196AC16BD0601F780E18093CC
:10234000F50280E00E940510DF91CF911F91FF9070
:10235000EF90DF90CF90BF90AF900C94200ECF9372
:10236000C091F502C11103C00E948C0E0AC0C03199
:1023700041F440E150E065EF72E080E00E942D2AD8
:10238000C0E0EC2FF0E0EB50FD4F8081CF5FC093B9
:10239000F502CF910895CF930E941E0E8BE10E940B
:1023A000F20FC82F0E94200E8C2FCF910895CF924C
:1023B000DF92EF92FF92CF930E94A10C6B017C0100
:1023C00081E00E94F20F87FF65C082E10E94F20F58
:1023D00083FF0EC081E0C81AD108E108F108C0925D
:1023E0001103D0921203E0921303F092140349C038
:1023F00086FF44C080911F03909120039C0193E0CD
:10240000369527959A95E1F7237069F48770E82F40
:10241000F0E0EE0FFF1FEC5CFD4F80819181C81A48
:10242000D90AE108F108C0921503D0921603E09290
:102430001703F09218038DE10E94F20F82FF02C091
:1024400082E201C083E10E94F20F8093510480E197
:102450000E94F20F682F8DE00E942C0F8091510492
:102460000E94071189E10E94F20F80931E038AE106
:102470000E94F20F8D5380931D0303C087FD1092BD
:1024800051046FEF81E10E942C0F6FEF82E10E94F7
:102490002C0F2EC08EE30E94F20FC82F8FE30E94F4
:1024A000F20F83FF09C0C0921103D0921203E09291
:1024B0001303F09214031CC082FF14C0C0921503D2
:1024C000D0921603E0921703F092180382E30E9461
:1024D000F20F809351040E94071110921E03109274
:1024E0001D0306C0C2FF03C01092510401C0FFCFFC
:1024F00080E00E94051060912A0370912B0384E212
:1025000093E0CF91FF90EF90DF90CF900C94B60CBA
:10251000CF93C82F0E941E0EC13059F040F0C23038
:1025200009F4A7C0C33009F0A7C081E0A3C080E0D0
:1025300065C081E00E94F20F877011F00E948C0E3E
:1025400080911F03877009F05CC060E181E00E9408
:102550002C0F81E00E94F20F803111F00E948C0E4E
:1025600081E00E94051062E082E00E942C0F60E88A
:1025700083E00E942C0F61E084E00E942C0F69E947
:1025800085E00E942C0F60E085E20E942C0F65E040
:1025900086E20E942C0F62E187E20E942C0F60ED20
:1025A00080E30E942C0F60E481E30E942C0F61EC19
:1025B00088E20E942C0F64E989E20E942C0F61ECF2
:1025C0008AE20E942C0F0E94A20F0E94781064E3FE
:1025D00080E40E942C0F609151046F5F82E30E949F
:1025E0002C0F6091510480E00E942C0F80915104C7
:1025F0000E94261181E00E94CF0D83E00E94051009
:102600003BC068E881E00E942C0F81E00E94F20F3D
:1026100087FF0E948C0E81E00E9405100E943F0FF0
:102620000E94A20F8AE00E94F20F807F682F6860EC
:102630008AE00E942C0F0E94781064E389E30E94D4
:102640002C0F60EF80E40E942C0F6FEF82E10E945C
:102650002C0F67EF81E10E942C0F60E08EE00E945A
:102660002C0F60E08DE00E942C0F6091510482E2FB
:10267000BBCF80E00E948E10CF910C94200E4F9221
:102680005F926F927F928F929F92AF92BF92CF9202
:10269000DF92EF92FF92E62FA091BF03B091C003AB
:1026A0008090C1039090C203811109C06D01BB0FDE
:1026B000EE08FF08092C000CAA08BB081AC0482F16
:1026C00050E09A010E94B7326B017C0187E0F594DB
:1026D000E794D794C7948A95D1F7D4010E94B73272
:1026E0004B015C0197E0B594A794979487949A95D1
:1026F000D1F7A091C303B091C40320913B0484E0BF
:10270000E89FF0011124EB58FD4F4080518062801A
:10271000738030E00E94B732680D791D8A1D9B1DC1
:10272000A30192010E947C322B5F20932103ADEF25
:10273000BFEFA30192010E94CC326C0D7D1D8E1D56
:102740009F1DFF90EF90DF90CF90BF90AF909F9034
:102750008F907F906F905F904F900895CF93DF930D
:10276000C1E1D3E010925104E091920484E0E89F2B
:10277000F0011124EF5EFC4F83AD94ADA5ADB6AD75
:102780008C7F88879987AA87BB8783E891E19F8799
:102790008E87DF91CF91089510922604109227041E
:1027A00010922804109229041092220410922304FB
:1027B00010922404109225041092BE03109230044B
:1027C00010922F0410922C0410922A0410923304B9
:1027D0001092340410923A041092320410923D0484
:1027E0001092BA0384EF80932B041092350488E092
:1027F00096EEA3EDB3E38093360490933704A09351
:102800003804B093390425E02093920480934A045D
:1028100090934B04A0934C04B0934D0483E08093B9
:102820003E040895CF92DF92EF92FF92CF93DF9311
:10283000D82F0E94AF11C82F0E94AF112C2F30E06B
:10284000322F2227282B23318AE7380710F4690119
:1028500006C0C90162E17AE70E9454326C01E12CA2
:10286000F12CDD23C1F0C90199276D2F70E00E9482
:102870006832AC0122E13AE7429FC001439F900DCC
:10288000529F900D1124092E000CAA0BBB0BC80EF1
:10289000D91EEA1EFB1EC701B601DF91CF91FF9042
:1028A000EF90DF90CF900895CF92DF92EF92FF925A
:1028B0006B017C01842F0E941214DC01CB018C0D72
:1028C0009D1DAE1DBF1D2091AF03222399F0C09026
:1028D000B003D090B103E090B203F090B3039C0139
:1028E000AD012C193D094E095F0912161306140695
:1028F00015068CF48093B0039093B103A093B203B8
:10290000B093B3038091B8039091B9039160909311
:10291000B9038093B803FF90EF90DF90CF900895B4
:10292000CF92DF92EF92FF920F931F93CF93DF939B
:102930006B017C01FA01C1E1D3E0A091350484E090
:10294000A89FD0011124AB58BD4F2D913D914D91C1
:102950005C91A3E0B0E00E94BE32088119812A8117
:102960003B81C00ED11EE21EF31EAB01BC014C0D1B
:102970005D1D6E1D7F1D4C835D836E837F834E5373
:102980005109610971099F0184E293E0DF91CF91C0
:102990001F910F91FF90EF90DF90CF900C94DC0C83
:1029A00088E295E290932B0380932A0382E00C94B3
:1029B000881285E098E290932B0380932A0382E0AB
:1029C0000C948812E1E1F3E021E020934F04268586
:1029D000378520683787268710925104928F818F20
:1029E00082E00C9488128FEB98E20C94E21484EE4F
:1029F00097E20C94E214A1E1B3E082E080934F04EB
:102A0000E0913504F0E0EC53FD4F818190E08F7749
:102A100080681F969C938E931E9740913604509128
:102A20003704609138047091390418964D935D9382
:102A30006D937C931B971092510482E00C94881242
:102A400084ED98E290932B0380932A030C94FB145B
:102A500085EF97E290932B0380932A030C94FB1449
:102A600080911E0490911F04A0912004B091210434
:102A7000892B8A2B8B2B19F08091B80382FD0E9441
:102A80008C0E8091B8039091B90386FD2FC01092EF
:102A90009E0410922A0410924E048E7781609093C7
:102AA000B9038093B8030E94AE130E94A10CAB013E
:102AB000BC014E5E5C47624C7F4F4093980450933C
:102AC000990460939A0470939B0440931503509368
:102AD0001603609317037093180327EC34E284E223
:102AE00093E00E94DC0C83E00C9488120895CF934D
:102AF000DF9390E4ECE4F3E0DF011D929A95E9F7AF
:102B000090E2ECE8F3E0DF01292F1D922A95E9F726
:102B1000ECE2F3E0DF011D929A95E9F72FE330E054
:102B20003093AD032093AC03811102C086E001C055
:102B300080E0CCE4D3E0ACE8B3E096E0980F2FE37C
:102B400030E044E0849FF0011124EB5BFD4F4081B5
:102B500051816281738149935993699379932D933C
:102B60003D938F5F8913EDCF88EE93E090932D0313
:102B700080932C03CEE0C0932E030E94AF118F7080
:102B800080932F0384E690E0909335038093340381
:102B9000C09336030E94AF118F70809337038AE091
:102BA00090E090933D0380933C038BE180933E0340
:102BB0000E94AF118F7080933F030E94A10C60931D
:102BC00040037093410380934203909343036093C7
:102BD00038037093390380933A0390933B036093D7
:102BE0003003709331038093320390933303DF916A
:102BF000CF910895603811F06093BB039091BC03AE
:102C0000981759F08093BC038091B8039091B90351
:102C100098609093B9038093B803089587700895DE
:102C2000887F862B089523E0969587952A95E1F76E
:102C300083700895877E28E0629FB0011124862B5F
:102C4000972B089525E0969587952A95E1F783704F
:102C500008958F7920E2629FB0011124862B972B73
:102C6000089587FB882780F990E008958F777695FF
:102C7000762F662777956795862B972B0895892F52
:102C800090E0089520E030E0362FA901482BCA01DA
:102C900008950F931F93E82FF0E088E0689FB0013C
:102CA000112480E2489FA0011124012B19F4A0E017
:102CB000B0E002C0A0E8B0E080E090E0922F842B6A
:102CC000952B8E2B9F2B862B972B8A2B9B2B1F9123
:102CD0000F91089586279727BC016F71772781E0B0
:102CE00090E0672B11F080E090E00895E82FF0E08D
:102CF000EC53FD4F818190E00895E82FF0E0EC5314
:102D0000FD4F818190E08F778068089521E030E069
:102D1000681710F020E030E0C901089521E030E0AC
:102D2000861710F020E030E0C9010895E82FF0E0A8
:102D3000EC53FD4F92819F3F09F08F5F0895E82F7C
:102D4000F0E0EC53FD4F90819F3F09F081500895D2
:102D5000E82FF0E0EC53FD4F91819F3F09F485E0AF
:102D60000895E82FF0E0EC53FD4F81E091819F3F03
:102D700009F480E00895615048F0E82FF0E0EC534A
:102D8000FD4F90819F3FB9F38150F5CF0895FC012D
:102D9000808191810895FC01228160817181CB0144
:102DA000770FAA0BBB0BA22B2381BC01CD01922B69
:102DB00008950F931F9301970E94CB16272F382F4A
:102DC000492F5527A4E6B0E00E94BE328B019C013A
:102DD000005C154520473343013C1F4C2A46310512
:102DE00018F060E070E0CB011F910F9108950F93F0
:102DF0001F93FC0121816081862F90E0A0E0B0E06C
:102E0000B82FAA2799278827AC01BD01622B8281A0
:102E10009381982789279827092E000CAA0BBB0BB2
:102E20008A019B01082B192B2A2B3B2BC901B801C6
:102E30001F910F910895FC01608371830895FC0137
:102E4000408351836283738308954F925F926F92A0
:102E50007F92AF92BF92CF92DF92EF92FF920F9349
:102E60001F93CF93DF93EC012801390180E1EDE559
:102E7000F5E0DF011D928A95E9F781E080936C050A
:102E800080935D05EF2809F480E08093620583E676
:102E900095E00E941F17B301A20187E695E00E940A
:102EA0001F1780E1FE01ADEAB4E001900D928A9512
:102EB000E1F7A501B60184E0DF91CF911F910F9159
:102EC000FF90EF90DF90CF90BF90AF907F906F908A
:102ED0005F904F900C942D2A8F929F92AF92BF9249
:102EE000CF92DF92EF92FF920F931F93CF9380E1E7
:102EF000EDEAF4E0DF011D928A95E9F788E0EAE562
:102F0000F4E0DF011D928A95E9F740919F0450910A
:102F1000A0046091A1047091A20482E594E00E9453
:102F20001F1740911E0450911F046091200470915E
:102F3000210486E594E00E941F1740E150E062E51D
:102F400074E080E00E942D2AC0913F0487E090E069
:102F50008C1B91094FEF5FE002C0559547958A950C
:102F6000E2F78091520490915304482359238CE155
:102F7000A82E9EE4B92E2EE0C22ED12CE12CF12CED
:102F800000E010E09A0140E050E060E070E080E096
:102F900090E00E94D132E8EEAE2EF3E0BF2EC12CBD
:102FA0000E94573349015A018091980490919904E5
:102FB000A0919A04B0919B0486539D4FAE4FBF4F92
:102FC000880E991EAA1EBB1E809242049092430452
:102FD000A0924404B09245041092400481E090E035
:102FE00001C0880FCA95EAF760913E048E5F0E9487
:102FF0003F13861A970AA80AB90A8092460490924B
:103000004704A0924804B092490480912103809320
:103010004104CF911F910F91FF90EF90DF90CF90DF
:10302000BF90AF909F908F9008958F929F92AF9294
:10303000BF92CF92DF92EF92FF92CF93DF934B013B
:103040005C01EA018091B8039091B9038270967097
:103050008230944059F40E946C178091B80390918B
:10306000B90392609093B9038093B80380912103D0
:10307000C0901103D0901203E0901303F09014035A
:10308000873099F4C80CD91CEA1CFB1C85E0C81ACF
:10309000D108E108F108C0921503D0921603E0921E
:1030A0001703F092180388E023C0E091220324E084
:1030B000E29FF0011124EB58FD4F208131814281C4
:1030C0005381A3E0B0E00E94BE32C80CD91CEA1CB8
:1030D000FB1CDC01CB018C0D9D1DAE1DBF1D809323
:1030E000150390931603A0931703B093180385E07C
:1030F00080932103409115035091160360911703AB
:10310000709118034E535109610971099E0184E2BF
:1031100093E0DF91CF91FF90EF90DF90CF90BF9041
:10312000AF909F908F900C94DC0C20912D0430E098
:10313000A2E1BAE70E94A83243EF54E10C941518BB
:1031400047EF54E16AE572E682E090E00C941518CE
:10315000FC01438352836183708308958FEF089548
:10316000FC01680F791F80E090E0E617F70791F007
:103170002191922728E0AC01440F551F97FF06C00C
:10318000CA0131E2832730E1932701C0CA012150EF
:1031900091F7EBCF08950F931F93CF938091510434
:1031A000813111F00E948C0E67E070E082E594E0BE
:1031B0000E94B0182091590430E099272817390748
:1031C00009F081C082E594E00E94CB16DC01CB01BE
:1031D000BB270091B4031091B5032091B603309141
:1031E000B70380179107A207B30709F06FC0C0911A
:1031F0009E04CC7FC0939E0480911E0380939D0407
:1032000080911D0380939C04809115039091160377
:10321000A0911703B0911803805A9141A109B109F7
:103220008093980490939904A0939A04B0939B047C
:1032300085E594E00E94CB1660939F047093A004F0
:103240008093A1049093A2048C2F816080939E04AC
:1032500000916104109162046FE070E082E594E0F7
:103260000E94B01880179107A1F58AE594E00E94AA
:10327000CB16BB2797FDBA95A92F982F872F809340
:10328000A4049093A504A093A604B093A7048DE58D
:1032900094E00E94CB16BB2797FDBA95A92F982FD3
:1032A000872F8093A8049093A904A093AA04B093B5
:1032B000AB0480915A048093A304C360C0939E041E
:1032C00082E090E008C080E090E005C08FEF9FEFC3
:1032D00002C081E090E0CF911F910F910895282FB7
:1032E000277030E043E0969587954A95E1F7837023
:1032F000F901EE0FFF1FE20FF31FE156FD4FE80F3C
:10330000F11D808190E08D5891090895EF92FF9210
:103310000F931F93FC01382F3770A62FB0E031F4C4
:103320001B9625E030E00E94B7328BC0632F660FFA
:10333000660F685E353010F420E001C028E013E02D
:10334000AA0FBB1F1A95E1F7CD01861B9109DC017D
:103350005C96E7FD03C080E190E002C080E090E071
:103360008A0F9B1F4F2F5527452B19F440E050E043
:1033700002C044E150E0841B950B18161906D4F4E2
:10338000621B70E0860F971F01970E946832AF01A1
:10339000A5E056954795AA95E1F7437050E04B5F3D
:1033A0005F4F469FC001479F900D569F900D11247F
:1033B000089602C088E090E0880F991F880F991F37
:1033C000C1963F5F63E0F695E7956A95E1F7E37094
:1033D0003E1B353050F03450E9E0FDE302C0F59576
:1033E000E7953A95E2F734E002C0E9E0FDE3092E03
:1033F000000CAA0BBB0B7C018D0104C0EE0CFF1C62
:10340000001F111F3A95D2F7A8019701A2E1BAE770
:103410000E94BE329F01F7FF02C02F5F3F4F3595DC
:1034200027958901330F220B330B600F711F821F09
:10343000931F9F01FF0F440B550B0E947C32CA0162
:10344000B9011F910F91FF90EF900895E8EBF3E021
:1034500080819181997F918380830895CF93DF93B9
:103460008430A8F498E0899FE0011124CF5EDC4FFE
:103470006D8F5C8F4B8F0E94A10C6F8F78A389A3F7
:103480009AA30E94AF118F708E8F81E001C080E0FF
:10349000DF91CF910895CF92DF92EF92FF920F9339
:1034A000CF93DF93A82F803108F074C00F3FC1F590
:1034B0006A017B0180ECC81A8DEFD80A81EDE80A19
:1034C00083E3F80A81E9C81680EDD80683E0E806B0
:1034D000F10410F4426030C06A017B0181EAD81A1D
:1034E0008CEBE80A83E3F80A81ECC81687E2D80679
:1034F00089E0E806F10490F06A017B0180EAC81ACD
:1035000081E9D80A86EDE80A83E3F80A81EEC81655
:1035100083E9D80684E0E806F10470F441600CC049
:103520000430C4F54C7FC02E000FDD08EE08FF0804
:103530004C295D296E297F29EA2FF0E0EF01CC0F9D
:10354000DD1FCC0FDD1FCF5EDC4F4BAF5CAF6DAF2F
:103550007EAF2115310519F0922F832F02C09FE312
:1035600080E0EE0FFF1FE457FC4F9083818381E0E2
:1035700090E002C0880F991FAA95E2F72091AC0352
:103580003091AD03822B932B9093AD038093AC03CA
:1035900081E001C080E0DF91CF910F91FF90EF902B
:1035A000DF90CF9008952F923F924F925F926F924B
:1035B0007F928F929F92AF92BF92CF92DF92EF92C3
:1035C000FF920F931F93CF93DF93CDB7DEB7299769
:1035D0000FB6F894DEBF0FBECDBF0091510410E0CE
:1035E0000C30110524F41092510480E035C3209171
:1035F00052042983237028872111F5CF3981307E29
:103600003E83303611F0303A71F783E594E00E9442
:10361000CB16AB01BC018091580490915904C09025
:103620001E04D0901F04E0902004F09021044C155B
:103630005D056E057F05B9F6A0915704AB832A2F6F
:103640002F70E22FF0E0FD83EC834F01F8E08F0E46
:10365000911C180124E0221A3108281439041CF2A4
:10366000821493046CF4F401EE5AFB4F2081A22FD4
:10367000B0E0BA83A983EC81FD8139964F0104C083
:103680002FEF3FEF3A832983409022045090230488
:10369000609024047090250484199509480E591EE1
:1036A000611C711C10E1EDE5F5E0DF01212F1D9299
:1036B0002A95E9F789E480935D0581E080936205AE
:1036C00020926C0583E695E00E941F17B301A201CA
:1036D00087E695E00E941F17EEEFF3E0ADEAB4E055
:1036E00001900D921A95E1F7A10162E574E082E084
:1036F0000E942D2A6B017C01C1018E5A9B4F0E94B2
:10370000F716C616D706E806F90609F06CCF8091C1
:10371000220490912304A0912404B091250448161A
:1037200059066A067B06E8F484159505A605B705D3
:103730000CF459CF0197A109B109481659066A0638
:103740007B0609F050CF80912A04882309F44BCFDF
:103750003E81303A09F047CF81E090E09F838E832D
:1037600017C0D301C2010196A11DB11D809322048F
:1037700090932304A0932404B09325049E81903A4F
:1037800011F480E201C080E080932A041F821E822F
:1037900080912A04811103C0AB81A4FF09C08091EC
:1037A000B8039091B90380619093B9038093B803F3
:1037B0001092BE0310922C0480912B04803819F0D3
:1037C00084EF80932B0480911F03909120030E942B
:1037D0006F1920911D03022E000C330B2054310968
:1037E000281B390B37FD06C02F3F310514F02EEF93
:1037F00030E02887B885B0932E041986188688850E
:103800009985AC81BD818A179B070CF0C6C1E885FC
:10381000F985E65AFB4FE0818E2F90E0FC0132974C
:10382000E131F10508F0B9C1EC5CFF4F0C949B321B
:10383000E885F9853396F987E887E1CFE885F9854A
:10384000E55AFB4FA081E885F985E45AFB4F80815A
:103850009181E885F985E25AFB4FB0812885398549
:103860002B5F3F4F3987288737E830932F042B2F62
:10387000207F09F0E4C1009709F4E1C12091AC0375
:103880003091AD032095309528233923232B09F05F
:10389000D6C1E1E1F3E020E030E041E050E0022E6B
:1038A00002C0440F551F0A94E2F7BA016823792336
:1038B000672B61F0C3ACD4ACE5ACF6ACCD28CE2818
:1038C000CF2821F440955095842395232F5F3F4FB7
:1038D00034962031310509F79093AD038093AC0302
:1038E0008A2F82958F70E82FF0E0EC53FD4F918185
:1038F0009F3F29F490912F049D7F90932F049091E6
:103900002F049F77973051F4BF70B093BA03AF7014
:10391000B0E0AC54BD4F6C910E94FA1581E08093E9
:103920002C046DCF91E090933004A885B985119651
:10393000B987A88764CFE885F985E55AFB4F1081E0
:103940001F7088859985845A9B4F0E94D916E885F7
:10395000F9853596F987E887F0E8F0933A04E12F86
:10396000F0E0EC53FD4F21812F3F09F46CC122E8B8
:1039700020933A04611571058105910509F43FCF43
:1039800033E830933A04109335046093360470930F
:103990003704809338049093390431CFE885F98552
:1039A000E55AFB4F208188859985029699878887FB
:1039B0002F3F49F48091B8039091B90380649093AC
:1039C000B9038093B8032F702093AF030E94A10C1A
:1039D0006093B0037093B1038093B2039093B303E9
:1039E00091E0909333040BCFE885F985E55AFB4FBE
:1039F000D08088859985845A9B4F0E94D916AB0147
:103A0000BC01E885F985E15AFB4FE081A0E8A0936D
:103A10003404411551056105710521F18E2F829500
:103A20008F702FE030E0281B3109C9012FEF3FEFE5
:103A300002C0369527958A95E2F7EF708FEF9FEFDA
:103A400002C0880F991FEA95E2F7282339230FEF68
:103A50008D2D0E944B1A882329F0809134048360B5
:103A60008093340488859985069699878887C7CE80
:103A700088859985855A9B4F0E94D916A885B98556
:103A80001496B987A887611571058105910551F0D4
:103A900060934A0470934B0480934C0490934D04BC
:103AA00081E801C080E880933D04A9CE8091B803ED
:103AB0009091B90381FD6AC0E885F985E35AFB4F0F
:103AC00020812093920482609093B9038093B8037D
:103AD00080913C04811102C00E948C0EE885F9851A
:103AE000E55AFB4F80819181BEE1B89FB001B99F3B
:103AF000700D112480E090E022E13AE740E050E0D0
:103B00000E942A33E8EEAE2EF3E0BF2EC12CD12C5A
:103B1000E12CF12C00E010E00E94573359016A01BA
:103B20008091150390911603A0911703B09118038B
:103B30008A0D9B1DAC1DBD1DAC01BD014B525740F4
:103B40006D437109409398045093990460939A04CB
:103B500070939B041092C0031092BF031092C40391
:103B60001092C30310923B04ECE0E0939E04F3E157
:103B7000F09393048B5E9109A109B1098093940499
:103B800090939504A0939604B09397042885398563
:103B90002C5F3F4F3987288732CEEE81FF81EF2B94
:103BA00031F529813A812F3F8FEF380701F151011B
:103BB000A818B9081A141B04D4F4D401AE5ABB4F88
:103BC0006D0140911E0450911F046091200470917A
:103BD0002104232B19F48EEF93E002C08EE094E0D1
:103BE000EE24E394F12C930182010E942517809129
:103BF0004E04882359F080914F04BB81B5FF02C069
:103C000090E801C090E4892B80934F0480914F0489
:103C1000E981FA81319641F4806280934F04809269
:103C200050041092510409C0806180934F04809227
:103C30005004822D88198093510481E00DC086E8DC
:103C400080932F044DCE672B682B692B09F4D7CDB9
:103C500031E830933A04D3CD29960FB6F894DEBFFD
:103C60000FBECDBFDF91CF911F910F91FF90EF90CD
:103C7000DF90CF90BF90AF909F908F907F906F908C
:103C80005F904F903F902F900895482F282F30E05D
:103C9000F901EE0FFF1FEE0FFF1FEF5EFC4F13AE9B
:103CA00014AE15AE16AE220F331FF901E457FC4FC8
:103CB00011821082ECEAF3E081E090E002C0880F0C
:103CC000991F4A95E2F78095909520813181822352
:103CD00093239183808308952091B8033091B90391
:103CE00023743327232B39F480933C04811105C0BE
:103CF0000E94301502C080E0089581E00895877029
:103D000080933F048091B8039091B9039C01346083
:103D10003093B9032093B80383709927892B31F42A
:103D200080913C04811102C00C946C1E0895CF92C6
:103D3000DF92EF92FF9280911E0490911F04A09158
:103D40002004B0912104892B8A2B8B2B09F05DC0B4
:103D50008091B8039091B90380799927892B11F04C
:103D60000E948C0E1092AF038091B8039091B9031A
:103D70008E7D977E9093B9038093B8031092C6030B
:103D800010924E041092BE030E94AF1166E00E9492
:103D900048329093AE038EE08093BB0383E0809320
:103DA000BC0381E00E9477158091B8039091B9031C
:103DB00093FD0E948C0EC0903003D0903103E090B0
:103DC0003203F090330388E00E941214DC01CB012F
:103DD0008C0D9D1DAE1DBF1D80931103909312038A
:103DE000A0931303B09314038091B8039091B90387
:103DF00084609093B9038093B80360E078E284E232
:103E000093E00E94B60C81E001C080E0FF90EF904B
:103E1000DF90CF9008952F923F924F925F926F92D2
:103E20007F928F929F92AF92BF92CF92DF92EF924A
:103E3000FF920F931F93CF93DF93CDB7DEB76297B7
:103E40000FB6F894DEBF0FBECDBF8091B80390913E
:103E5000B9039C01217C3327232B09F07BC54091BA
:103E60001E0450911F046091200470912104452B81
:103E7000462B472BE1F482FD1AC062960FB6F894E8
:103E8000DEBF0FBECDBFDF91CF911F910F91FF908D
:103E9000EF90DF90CF90BF90AF909F908F907F90EA
:103EA0006F905F904F903F902F900C94971E0E94C0
:103EB000A10C2B013C018091B80381FF2BC04091E4
:103EC0009404509195046091960470919704D301E5
:103ED000C201CE96A11DB11D841B950BA60BB70B7D
:103EE000181619061A061B0614F40E948C0E8091EF
:103EF000940490919504A0919604B09197048C013C
:103F00009D010E5311092109310909831A832B835D
:103F10003C8304C019821A821B821C822091B80340
:103F20003091B9033A8B298BC9018C739927892B5E
:103F300009F4CEC3190134E22322332449895A8972
:103F400053FFBAC06091AC037091AD037A87698763
:103F50008091BC038F7021E030E0D90102C0AA0F2C
:103F6000BB1F8A95E2F7BC87AB87AFE09301820164
:103F7000005C1C4D214F3C4B0D871E872F87388BD3
:103F8000CD84DE84EF84F888E1E1F3E080E090E026
:103F9000B0E02A2F30E0A901082E02C055954795C0
:103FA0000A94E2F740FF12C0478D50A161A172A1AF
:103FB00046015701841A950AA60AB70A181419046B
:103FC0001A041B041CF4B82F6A017B010196389671
:103FD0008430910501F72B2F30E03E832D8389013A
:103FE00063E0000F111F6A95E1F7F801EF5EFC4FE7
:103FF000268D90E18B2E912CA12CB12C81E0820F8B
:10400000803110F081EF820F282F30E041E050E046
:10401000082E02C0440F551F0A94E2F769857A857D
:1040200046235723452B41F1F901EE0FFF1FE457BB
:10403000FC4F408151816B857C8546235723452B5E
:10404000D9F0220F331F220F331FF901EF5EFC4F0F
:1040500043AD54AD65AD76AD4370552766277727E0
:1040600084169506A606B70639F4F801EF5EFC4FF4
:10407000868F8093AE0310C0915011F0282FBECFD1
:1040800081E090E00D8002C0880F991F0A94E2F74A
:104090008095A82309F074CFC0921103D092120327
:1040A000E0921303F092140389899A89977F909381
:1040B000B9038093B80308C0C0901103D0901203D5
:1040C000E0901303F09014032091AF038091B803A4
:1040D0009091B903211102C090FF12C04091B0032A
:1040E0005091B1036091B2037091B30397018601BF
:1040F000041B150B260B370B37FF02C06A017B012F
:104100009C012270332781FF27C02114310429F438
:104110004CE65CED62E070E004C042EA5AE464E020
:1041200070E04C0D5D1D6E1D7F1D89809A80AB80F7
:10413000BC80481959096A097B0914161506160628
:10414000170654F440E1C501B40166537D4F8E4F0C
:104150009F4F0E945414BFC2B301A201425C5F4F43
:104160006F4F7F4F46015701841A950AA60AB70A76
:10417000B7FEA1C29090BC03232809F444C085FF78
:104180000FC08091BE03815048F0E92DF0E0EC5360
:10419000FD4F90819F3FB9F39A94F5CF80EC01C019
:1041A00080E08093520483E594E00E94D5098BE57A
:1041B00094E00E94DE099091FC038091FD039093AE
:1041C0006304809364048DEA94E00E94E70943E16C
:1041D00050E062E574E08AE00E942D2AAB01BC0148
:1041E00085E694E00E94A81887E1809351048091AD
:1041F000FC039091FD0301969093FD038093FC03D3
:1042000080EA98E1DCC1409122045091230460913E
:1042100024047091250440385F4F6F4F7F4FF0F0BA
:104220006FE679E284E293E062960FB6F894DEBF1F
:104230000FBECDBFDF91CF911F910F91FF90EF90F7
:10424000DF90CF90BF90AF909F908F907F906F90B6
:104250005F904F903F902F900C94B60C20914E049D
:1042600021110DC04091260450912704609128042B
:10427000709129044F3F5F4F6F4F7F4F89F29C0130
:10428000287133272031310521F08090C7038D82BA
:1042900001C01D82827094708230944089F480E164
:1042A00080935A0480913F0410E1819FC001112442
:1042B00090913E04892B80935B040AE010E002C0D9
:1042C00008E010E080913304882349F0F801EE5AA9
:1042D000FB4F84E080830F5F1F4F109233044091A7
:1042E0003A04442379F0C8018F5E9C4FFC01EF5BD8
:1042F000FE4F55E050833196437040830E5F1F4F51
:1043000010923A0480913004882399F0C8018F5E9E
:104310009C4FFC01EF5BFE4F46E0408331964FEF30
:104320004083319640912E0440830D5F1F4F1092C1
:10433000300440912F04442379F0C8018F5E9C4FD4
:10434000FC01EF5BFE4F53E0508331964770408392
:104350000E5F1F4F10922F0480913C04882339F088
:10436000F801EE5AFB4F82E180830F5F1F4F80916F
:104370002C04882339F080912B0487FD10922B04A4
:1043800010922C0440913D04442379F0C8018F5EC3
:104390009C4FFC01EF5BFE4F51E150833196417021
:1043A00040830E5F1F4F10923D044091340444231C
:1043B00079F0C8018F5E9C4FFC01EF5BFE4F57E028
:1043C00050833196437040830E5F1F4F1092340428
:1043D0002031310521F04D814B5F498302C054E00B
:1043E0005983402F8980800E8982582D513430F4B2
:1043F000FF24F3942031310531F404C094E0892E78
:10440000800E8982F12C80E48093520490912A04DA
:1044100020913104292B90912B049095892F881F8E
:104420008827881F8295880F880F807C98EF940FCB
:10443000922B892B8093570440911E0450911F04A6
:10444000609120047091210483E594E00E941F177D
:1044500020914E04211113C08091260490912704CD
:10446000A0912804B09129040196A11DB11D80934B
:10447000260490932704A0932804B09329048091E4
:10448000260490912704019780935804909359042F
:1044900010922A04FF2009F443C08091C6038823A8
:1044A00041F080E880935204211103C081E08093A1
:1044B0004E04F801EE5AFB4F8091C50380839801AA
:1044C0002D5A3B4F69018D80A82CB12CA50168ECB9
:1044D00073E0C9010E9485348091C503882319F0D7
:1044E0008EE094E002C08EEF93E0A114B104C1F01D
:1044F000009126041091270420912804309129046A
:10450000015011092109310940911E0450911F04E5
:104510006091200470912104E12CF12C0E94251758
:104520008980082D10E004501109C0902604D09015
:104530002704E0902804F090290421E0C21AD10851
:10454000E108F10840911E0450911F04609120047D
:1045500070912104EDE5F5E0DF01E0E18E2E1D9282
:104560008A94E9F789E480935D05109262050093CF
:104570006C0583E695E00E941F17B701A60187E648
:1045800095E00E941F17EEEFF3E0ADEAB4E080E1A2
:10459000A82E01900D92AA94E1F7A80162E574E0BB
:1045A00082E00E942D2AAB01BC01C8018E5A9B4FAC
:1045B0000E94A81889808092510485E998E190931F
:1045C0002B0380932A03E92DF0E0EC53FD4F21816A
:1045D0002F798091BD0300E2809FC0011124822BBE
:1045E0009093200380931F03909222032091B8039D
:1045F0003091B9032F76367F206838603093B90345
:104600002093B803E091AE0314E0E19FF001112480
:10461000EF5EFC4F83AC94ACA5ACB6AC609151049A
:104620000E9486196B017C01D501C4018370992712
:10463000AA27BB272CEF82228092190390921A039B
:10464000A0921B03B0921C0343E0880F991F4A9568
:10465000E1F7FC01EF5EFC4F858D80932303A38D72
:10466000B48DA70196010E94BE32DC01CB01840DFE
:10467000951DA61DB71D878F90A3A1A3B2A38091FE
:10468000AF03882399F004C0CC0CDD1CEE1CFF1C8A
:104690008A95D2F7C40CD51CE61CF71CC092B00357
:1046A000D092B103E092B203F092B30381E10E9491
:1046B000C32481E0B8C0232B09F4DCC0C114D104A9
:1046C000E104F10459F4C12CD12C7601C39406C045
:1046D000398931FF3FC1C12CD12C76018091B803BB
:1046E0009091B90391FF65C0B301A201425C5F4F95
:1046F0006F4F7F4F4D835E836F8378874091460471
:10470000509147046091480470914904DB01CA014B
:104710008D809E80AF80B88488199909AA09BB0949
:10472000B7FF9BC01091400417FD43C0E1E0F0E0EB
:1047300000903F0402C0EE0FFF1F0A94E2F71E0F25
:104740001093400417FD35C0A12FB0E020E038E9F8
:104750004AE350E00E94BE32DC01CB0127E0B59570
:10476000A795979587952A95D1F7809042049090C8
:104770004304A0904404B0904504880E991EAA1EDC
:10478000BB1E82E08E0F60913E04810F0E943F139A
:10479000861A970AA80AB90A80924604909247049A
:1047A000A0924804B092490480912103809341046F
:1047B000A5CFC114D104E104F10461F0D701C60111
:1047C00089809A80AB80BC8088199909AA09BB09A5
:1047D000B7FD50C00E94AE138091930480932103D3
:1047E0008091940490919504A0919604B0919704BF
:1047F0008093150390931603A0931703B0931803A7
:10480000D301C20189809A80AB80BC808819990944
:10481000AA09BB09B7FD52C088E295E290932B0329
:1048200080932A0382E062960FB6F894DEBF0FBE33
:10483000CDBFDF91CF911F910F91FF90EF90DF904F
:10484000CF90BF90AF909F908F907F906F905F9030
:104850004F903F902F900C948812C114D104E10422
:10486000F10499F1D701C601841B950BA60BB70B78
:10487000B7FF2BC0B701A6014E5351096109710959
:1048800023E038E284E293E062960FB6F894DEBF4C
:104890000FBECDBFDF91CF911F910F91FF90EF9091
:1048A000DF90CF90BF90AF909F908F907F906F9050
:1048B0005F904F903F902F900C94DC0C20ED34E1F2
:1048C00049815A816B817C81DDCF80914104809345
:1048D00021034093150350931603609317037093BD
:1048E000180380914A0490914B04A0914C04B0911C
:1048F0004D048093190390931A03A0931B03B09364
:104900001C03E0913E04F0E0EC53FD4F818190E008
:104910008F7780689093200380931F031092510437
:104920004419550966097709423C5F4F6F4F7F4F25
:1049300014F40E948C0E409115035091160360915F
:104940001703709118034E5351096109710929ED3C
:1049500034E198CF62960FB6F894DEBF0FBECDBF9C
:10496000DF91CF911F910F91FF90EF90DF90CF904B
:10497000BF90AF909F908F907F906F905F904F907F
:104980003F902F9008950E94080A0C940B1F80E01E
:104990000E94881284E293E00E94A30C809151044B
:1049A00081110BC08091B8039091B9038C7F9093D3
:1049B000B9038093B80381E049C00E94CB18181650
:1049C00019069CF01092510483E00E9488124091D5
:1049D00098045091990460919A0470919B0427EC7B
:1049E00034E284E293E00C94DC0C1092C003109249
:1049F000BF031092C4031092C30310923B04809132
:104A00009E048C6080939E048BE08093930480913D
:104A1000980490919904A0919A04B0919B04805CB1
:104A2000974FA24CBF4F8093940490939504A0930A
:104A30009604B09397048091B8039091B9038E7F48
:104A400082609093B9038093B80382E00C94C324EE
:104A5000CF92DF92EF92FF92CF93809151048823FF
:104A600009F47BC0C0909804D0909904E0909A0417
:104A7000F0909B04C0919E040E94CB181816190652
:104A80000CF06BC0C370C9F48BE0809393048091E9
:104A9000980490919904A0919A04B0919B04805C31
:104AA000974FA24CBF4F8093940490939504A0938A
:104AB0009604B0939704C4E0DAC027EFD21A80912D
:104AC000980490919904C81AD90A60913B0466230E
:104AD00079F02091BF033091C003C601821B930B74
:104AE00070E06F5F7F4F0E9468326901C60ED71E6B
:104AF00020919E0422FD1DC08091BF039091C003B0
:104B00008C199D0997FF03C0919581959109909308
:104B1000C2038093C1034091C3035091C40348175B
:104B2000590724F49093C4038093C303277F2093F1
:104B30009E04D092C003C092BF031092BE03109295
:104B40003B0480919E04982F9B7F90939E048370DA
:104B500009F069C00E948C0E66C0C090BF03D0905F
:104B6000C0030D2C000CEE08FF0880E099E0ADE3D7
:104B7000B0E0AC01BD014C195D096E097F0980915F
:104B8000980490919904A0919A04B0919B04840F89
:104B9000951FA61FB71F8093980490939904A09324
:104BA0009A04B0939B04C0909F04D090A004E0901E
:104BB000A104F090A20420E8C20ED11CE11CF11C5B
:104BC000C0929F04D092A004E092A104F092A204AB
:104BD00020913B042F5F20933B04BC01CD01665321
:104BE0007D4F8E4F9F4F44E00E94541480913B04B0
:104BF000853148F08091B8039091B9038062909319
:104C0000B9038093B80380919304853670F0809146
:104C1000B8039091B9038D7D997F9093B9038093E8
:104C2000B8038BE02CC0C4E001C0C3E0C09098047E
:104C3000D0909904E0909A04F0909B0489E0D80EFB
:104C40008DE3E81EF11C63E080E00E943F13C61A6A
:104C5000D70AE80AF90AC0929404D0929504E09227
:104C60009604F0929704809121038093930480919D
:104C7000B8039091B90391FD0E946C178C2FCF91CE
:104C8000FF90EF90DF90CF900C94C324CF92DF92EF
:104C9000EF92FF920F931F93CF93DF9380914F0476
:104CA000813031F480915104811102C00E948C0E38
:104CB0008091B80387FF0E948C0E1091510411114E
:104CC0008FC08091B8039091B90382FD15C085FF14
:104CD0000E948C0E8091B8039091B9038F759093C8
:104CE000B9038093B8038091BE038A3018F48F5FB4
:104CF0008093BE0389E05CC12091AE032F5F263014
:104D000019F02093AE0302C01092AE0320914E041E
:104D10002F5F20934E0420FD0EC02091BC03222360
:104D200061F0E22FF0E0EC53FD4F30813F3F09F09E
:104D300021502093BC03C0E001C0C1E08F77977F72
:104D40009093B9038093B8030E94A10C6B017C017E
:104D50008091300390913103A0913203B0913303DD
:104D6000B701A601481B590B6A0B7B0B77FF02C0EA
:104D70006C017D018FEF90E00090BC0302C095951F
:104D800087950A94E2F70E941214DC01CB018A5C39
:104D90009149AE4FBF4FC80ED91EEA1EFB1EC092EE
:104DA0001103D0921203E0921303F0921403CC2E5D
:104DB000D12CE12CF12CC11103C0C3E0D8E202C018
:104DC000CDEFD7E20E94A10CAB01BC014C0D5D1DE3
:104DD0006E1D7F1D9E0184E293E00E94DC0CEAC000
:104DE000113141F0113231F080914F0480FF69CFD1
:104DF00080E0E1C080915204837E8032A9F7C12F08
:104E0000D0E08DEA94E00E94E709AE0141505109DB
:104E100063E574E080E00E942D2A8DEA94E00E9410
:104E2000E7092497AE0162E574E08AE00E942D2A2A
:104E30006B017C01CE018E5A9B4F0E94F716C6165D
:104E4000D706E806F90681F689E594E00E94CB16BC
:104E500060931E0470931F04809320049093210498
:104E600086E594E00E94CB16DC01CB01BB27809342
:104E7000B4039093B503A093B603B093B70380E057
:104E80000E947715123108F049C08091FC0390917F
:104E9000FD03019720E1EEEFF3E0DF01322F1D92D9
:104EA0003A95E9F731E03093FE0336E0E3E5F4E0CC
:104EB000AFEFB3E001900D923A95E1F780930504CE
:104EC00090930604EEEFF3E0AEE0B4E001900D92B3
:104ED0002A95E1F782E080930E048DEA94E00E9427
:104EE000E70940E150E06EEF73E080E00E942D2A78
:104EF0008DEA94E00E94E70940E150E06EE074E042
:104F000080E00E942D2A8091B8039091B9038472A9
:104F10009927892BF9F40E948C0E1CC08FE5E82E8E
:104F200084E0F82EC3E0C7010E94D916AB01BC0192
:104F3000411551056105710531F00FEF20E030E0BA
:104F40008C2F0E944B1ACF5F83E0E80EF11CC83013
:104F500051F79BCF8091B8039091B90385FF11C0A1
:104F60003091BE032091BC03315048F0E22FF0E0B5
:104F7000EC53FD4F40814F3FB9F32150F5CF2093C3
:104F8000BC0389759D7F9093B9038093B8031092F9
:104F90004E040E94CC1380915D048F708093350481
:104FA00080915E04811101C081E080932D0486E030
:104FB0000E94C32481E0DF91CF911F910F91FF9058
:104FC000EF90DF90CF90089580915104811108C037
:104FD00048E255E16CE67CED82E090E00C949014A0
:104FE0000E9446268823A1F30895809151048111DF
:104FF00002C010924F040C94462688E00C94C324FF
:1050000085E00C94C3240C940B1F809151048823D9
:1050100051F084E080934F040E94D31A882319F042
:105020008DE00C94C3240C940B1F8091B80387FF70
:105030000E948C0E80915104811198C0E0914E0421
:10504000EE2391F1E83070F5EF5FE0934E04F0E06D
:10505000EB56FD4F90818091BC03915048F0E82FB2
:10506000F0E0EC53FD4F20812F3FB9F38150F5CF95
:1050700060E80E94FA156091150370911603809103
:1050800017039091180343E00E9454148091B803D1
:105090009091B9038F779093B9038093B8030E94DE
:1050A0000B1F62C080E601C080E280934F048091B4
:1050B0002B04803819F08F5F80932B0410925104D9
:1050C000109250048091B8039091B9039C01277706
:1050D0003093B9032093B80320914F04277059F0FF
:1050E00094FF09C087779F7E9093B9038093B8039C
:1050F0008FE00E94C3248AE00E94C32480912B0485
:105100008931ECF08091BC03E82FF0E0EC53FD4FC7
:1051100090819F3F09F0815060E80E94FA158CE071
:1051200080932B048091B8039091B90380629061C1
:105130009093B9038093B8038EE00E94C3248091BA
:105140003C04882389F09091B80391FF06C082E067
:105150000E94C32410923C0407C0815080933C04F9
:10516000811102C00E94301581E008950E94D31A77
:105170008111A8CF90914F0490FF60CF0895809146
:10518000510481110CC0A0912D04B0E0119622E1D0
:105190003AE70E94B73240E255E10C9490140E9425
:1051A0001528882381F30895CF92DF92EF92FF9222
:1051B00080915104811120C010924F040E94A10CD3
:1051C0006B017C0182E00E94121426E3C20E2EE6DF
:1051D000D21E21E0E21EF11CAB01BC014C0D5D1D95
:1051E0006E1D7F1D22E039E284E293E0FF90EF9094
:1051F000DF90CF900C94DC0CFF90EF90DF90CF907D
:105200000C9415280C941528E8EBF3E0808191812B
:105210008C7F9183808310923C040C940B1F81112E
:1052200080E88093310408950C94FA1584E293E0A9
:105230000E94A30C80E00E948812E8EBF3E08081DA
:1052400091818064918380830895CF9380E00E9450
:10525000881284E293E00E94A30C8CE991E0E1E1E2
:10526000F3E0DF019C011D9221503040E1F70E94E4
:10527000AF11C82F0E94AF112C2F30E0322F222700
:10528000282B3093FD032093FC031092B903109256
:10529000B8031092BD0380E8809331041092350466
:1052A00088E096EEA3EDB3E3809336049093370441
:1052B000A0933804B093390421E020932D04809307
:1052C0004A0490934B04A0934C04B0934D0483E0A4
:1052D00080933E048FEF80933F04CF9108950E9406
:1052E00025290E94971E8CE00C94C32480E490E052
:1052F0009093B9038093B80308958091B803909177
:10530000B9039C0127763093B9032093B803109218
:10531000C70385709927892B49F484E293E00E94A2
:10532000A30C80E00E9488120C940B1F08958091BA
:10533000B8039091B9039C0128603093B90320937E
:10534000B80382FF10924E040C940B1F1F93CF934F
:10535000DF934533B0F4122FC42FD82F6115710598
:1053600029F050E088EC93E00E9485341093C60346
:10537000D093C503C093C7030E94972980E090E0B3
:1053800002C08EEF9FEFDF91CF911F910895E8EB60
:10539000F3E0808191818061918380830C940B1F65
:1053A000E8EBF3E0808191818062918380830C94AB
:1053B0000B1FEF92FF920F931F936093B4037093B0
:1053C000B5038093B6039093B70320931E043093E4
:1053D0001F0440932004509321040115110541F04E
:1053E00080E1F801AEEFB3E001900D928A95E1F70C
:1053F000E114F10441F080E1F701AEE0B4E0019086
:105400000D928A95E1F780E00E9477158091B803AC
:105410009091B90389759D7F98609093B9038093AB
:10542000B8031F910F91FF90EF900C94CC13109242
:105430002C04811102C080E801C084EF80932B040A
:105440000895660F771F660F771F860F971FFC0161
:10545000659175918591949108952F923F924F9205
:105460005F926F927F928F929F92AF92BF92CF92F4
:10547000DF92EF92FF920F931F93CF93DF93CDB7FD
:10548000DEB7AB970FB6F894DEBF0FBECDBF898BEA
:105490007BA76AA71A010DEA14E01A8709872DEB8A
:1054A00034E0F80160817181828193810E94A13290
:1054B00061937193819391932E173F0799F7809190
:1054C000B9049091BA04A091BB04B091BC0404E06B
:1054D00010E0980123703327232B81F5EA2FF0E0A9
:1054E000E657FF4E24912A8BE92FF0E0E657FF4E56
:1054F00034913D87E82FF0E0E657FF4E44914E8B04
:105500008B2F9927AA27BB27FC01E657FF4E549102
:105510005A8FB801645071097595679575956795AF
:105520008AE891E10E94212ADC01CB01EA8D8E27D5
:10553000FA89BF272D85A2273E899327E985FA8519
:105540004191519161917191FA87E987842795275B
:10555000A627B72784879587A687B7870F5F1F4F32
:105560000C32110509F0B5CF098903FF21C0109253
:10557000690510926A0510926B0510926C051092E5
:1055800065051092660510926705109268051092E5
:1055900061051092620510926305109264051092E5
:1055A0005D0510925E0510925F051092600577C050
:1055B00060915D0570915E0580915F059091600539
:1055C0000E94A13260935D0570935E0580935F0534
:1055D000909360056091610570916205809163050B
:1055E000909164050E94A1326093610570936205F9
:1055F00080936305909364056091650570916605DD
:1056000080916705909168050E94A13260936505BD
:1056100070936605809367059093680560916905AE
:1056200070916A0580916B0590916C050E94A13282
:105630006093690570936A0580936B0590936C0580
:105640002EC029813A814B815C8120935D05309386
:105650005E0540935F0550936005C0926105D0924E
:105660006205E0926305F0926405409265055092F0
:105670006605609267057092680580926905909250
:105680006A05A0926B05B0926C0509891D821E8285
:105690001F82188603FDD1C609890860098B121480
:1056A0000CF0D5C6198912FD04C011FF19C613FDEF
:1056B00025C020915D0530915E0540915F055091B8
:1056C000600529833A834B835C83C0906105D09049
:1056D0006205E0906305F090640540906505509088
:1056E00066056090670570906805809069059090E8
:1056F0006A05A0906B05B0906C059DC031E1231642
:10570000310408F0EDC540E12416310411F480E1C4
:1057100001C080E20989082B098B812C912C54014E
:10572000412C512C3201C12CD12C760119821A82C4
:105730001B821C8280C04D815E816F817885762FAF
:10574000652F542F44274D835E836F8378870985A7
:105750001A852B853C8580179107A207B30708F0AF
:10576000CCC5408150E060E070E00D811E812F814A
:105770003885042B152B262B372B0D831E832F8367
:105780003887AC01BD014370552766277727433022
:1057900051056105710551F4C982DA82EB82FC8200
:1057A0007301620124013501480159010196A11DCF
:1057B000B11D319680319105A105B10509F0BBCF2E
:1057C000198911FF38C080915D0590915E05A09107
:1057D0005F05B091600529813A814B815C81282762
:1057E00039274A275B2729833A834B835C8380913F
:1057F000610590916205A0916305B0916405C8268A
:10580000D926EA26FB268091650590916605A09130
:105810006705B0916805482659266A267B2680913F
:10582000690590916A05A0916B05B0916C05882679
:105830009926AA26BB268091AD049091AE04A09132
:10584000AF04B091B00449815A816B817C814827B3
:1058500059276A277B2749835A836B837C838091EE
:10586000B1049091B204A091B304B091B404970133
:105870008601082719272A273B270D831E832F839C
:1058800038878091B5049091B604A091B704B09187
:10589000B804A3019201282739274A275B272987C3
:1058A0003A874B875C878091B9049091BA04A091A4
:1058B000BB04B091BC04B501A401482759276A274D
:1058C0007B274A8B5B8B6C8B7D8B0DEA14E0D801B8
:1058D00054966D917D918D919C9157976D877E87A0
:1058E0008F87988B58962D913D914D915C915B9748
:1058F0002E8B3F8B488F598F5C962D913D914D910A
:105900005C915F972A8F3B8F4C8F5D8F50962D91C6
:105910003D914D915C9153972E8F3F8F48A359A392
:10592000B9816B2F70E08AE890E00E94212A6AA377
:105930007BA38CA39DA3EA816E2F70E08AE894E09C
:105940000E94212A2B013C01FB816F2F70E08AE825
:1059500098E00E94212A4B015C0129813A814B8108
:105960005C81652F7727882799278AE89CE00E9429
:10597000212A6B017C013D81632F70E08AE890E071
:105980000E94212AA3019201262737274827592759
:105990002EA33FA348A759A73E81632F70E08AE852
:1059A00094E00E94212A86269726A826B9264F81B0
:1059B000642F70E08AE898E00E94212AC626D72644
:1059C000E826F9262D813E814F815885652F77275E
:1059D000882799278AE89CE00E94212A4AA05BA098
:1059E0006CA07DA046265726682679263985632F28
:1059F00070E08AE890E00E94212A9B01AC012825F2
:105A000039254A255B2529833A834B835C833A8574
:105A1000632F70E08AE894E00E94212AC626D726E8
:105A2000E826F9264B85642F70E08AE898E00E940A
:105A3000212A4B015C0184249524A624B7242985BE
:105A40003A854B855C85652F7727882799278AE8D3
:105A50009CE00E94212A4EA05FA068A479A446265B
:105A60005726682679263A89632F70E08AE890E005
:105A70000E94212AC626D726E826F9264E8D5F8D5C
:105A800068A179A1C426D526E626F7265B89652F6D
:105A900070E08AE894E00E94212ADC01CB0188258D
:105AA0009925AA25BB252D853E854F855889282710
:105AB00039274A275B272D873E874F87588B3C899C
:105AC000632F70E08AE898E00E94212A4626572634
:105AD000682679264E895F89688D798D44255525FC
