:100000000C94D9080C943C0D0C94F6080C94F6084A
:100010000C94F6080C94610D0C94F6080C94F608F8
:100020000C94F6080C94F6080C94F6080C94F60858
:100030000C94F6080C94F6080C94F6080C94F60848
:100040000C94EB0C0C94F6080C9473310C94F60899
:100050000C94100D0C94F6080C94F6080C94F60809
:100060000C94F6080C94F608741A7A1A2A1BF71ADC
:10007000EE1A501B291C291C291C291C291C291C6F
:10008000291C291C291C941BB21BC6A56363F88478
:100090007C7CEE997777F68D7B7BFF0DF2F2D6BDF7
:1000A0006B6BDEB16F6F9154C5C560503030020389
:1000B0000101CEA96767567D2B2BE719FEFEB562BD
:1000C000D7D74DE6ABABEC9A76768F45CACA1F9D63
:1000D00082828940C9C9FA877D7DEF15FAFAB2EBB1
:1000E00059598EC94747FB0BF0F041ECADADB367F2
:1000F000D4D45FFDA2A245EAAFAF23BF9C9C53F7C7
:10010000A4A4E49672729B5BC0C075C2B7B7E11C31
:10011000FDFD3DAE93934C6A26266C5A36367E41E1
:100120003F3FF502F7F7834FCCCC685C343451F491
:10013000A5A5D134E5E5F908F1F1E2937171AB734E
:10014000D8D8625331312A3F1515080C0404955252
:10015000C7C7466523239D5EC3C33028181837A13F
:1001600096960A0F05052FB59A9A0E0907072436A9
:1001700012121B9B8080DF3DE2E2CD26EBEB4E6945
:1001800027277FCDB2B2EA9F7575121B09091D9E04
:10019000838358742C2C342E1A1A362D1B1BDCB278
:1001A0006E6EB4EE5A5A5BFBA0A0A4F65252764D86
:1001B0003B3BB761D6D67DCEB3B3527B2929DD3E1A
:1001C000E3E35E712F2F13978484A6F55353B96828
:1001D000D1D100000000C12CEDED40602020E31FD4
:1001E000FCFC79C8B1B1B6ED5B5BD4BE6A6A8D46E2
:1001F000CBCB67D9BEBE724B393994DE4A4A98D40C
:100200004C4CB0E85858854ACFCFBB6BD0D0C52AEC
:10021000EFEF4FE5AAAAED16FBFB86C543439AD73D
:100220004D4D66553333119485858ACF4545E91088
:10023000F9F904060202FE817F7FA0F05050784455
:100240003C3C25BA9F9F4BE3A8A8A2F351515DFE09
:10025000A3A380C04040058A8F8F3FAD929221BCFE
:100260009D9D70483838F104F5F563DFBCBC77C15B
:10027000B6B6AF75DADA4263212120301010E51AE4
:10028000FFFFFD0EF3F3BF6DD2D2814CCDCD18141C
:100290000C0C26351313C32FECECBEE15F5F35A2C7
:1002A000979788CC44442E3917179357C4C455F2F6
:1002B000A7A7FC827E7E7A473D3DC8AC6464BAE75E
:1002C0005D5D322B1919E6957373C0A060601998B3
:1002D00081819ED14F4FA37FDCDC44662222547E75
:1002E0002A2A3BAB90900B8388888CCA4646C72944
:1002F000EEEE6BD3B8B8283C1414A779DEDEBCE26E
:100300005E5E161D0B0BAD76DBDBDB3BE0E064567F
:100310003232744E3A3A141E0A0A92DB49490C0AE8
:100320000606486C2424B8E45C5C9F5DC2C2BD6EC6
:10033000D3D343EFACACC4A6626239A8919131A487
:100340009595D337E4E4F28B7979D532E7E78B439F
:10035000C8C86E593737DAB76D6D018C8D8DB164B1
:10036000D5D59CD24E4E49E0A9A9D8B46C6CACFA54
:100370005656F307F4F4CF25EAEACAAF6565F48E62
:100380007A7A47E9AEAE101808086FD5BABAF08885
:1003900078784A6F25255C722E2E38241C1C57F164
:1003A000A6A673C7B4B49751C6C6CB23E8E8A17C10
:1003B000DDDDE89C74743E211F1F96DD4B4B61DC34
:1003C000BDBD0D868B8B0F858A8AE09070707C4254
:1003D0003E3E71C4B5B5CCAA666690D848480605BD
:1003E0000303F701F6F61C120E0EC2A361616A5FE9
:1003F0003535AEF9575769D0B9B9179186869958EE
:10040000C1C13A271D1D27B99E9ED938E1E1EB13E2
:10041000F8F82BB3989822331111D2BB6969A970EF
:10042000D9D907898E8E33A794942DB69B9B3C22F5
:100430001E1E15928787C920E9E98749CECEAAFFFB
:10044000555550782828A57ADFDF038F8C8C59F812
:10045000A1A1098089891A170D0D65DABFBFD731AF
:10046000E6E684C64242D0B8686882C3414129B0FA
:1004700099995A772D2D1E110F0F7BCBB0B0A8FC88
:1004800054546DD6BBBB2C3A161663C6A5637CF8D4
:10049000847C77EE99777BF68D7BF2FF0DF26BD63D
:1004A000BD6B6FDEB16FC59154C530605030010235
:1004B000030167CEA9672B567D2BFEE719FED7B542
:1004C00062D7AB4DE6AB76EC9A76CA8F45CA821FEF
:1004D0009D82C98940C97DFA877DFAEF15FA59B224
:1004E000EB59478EC947F0FB0BF0AD41ECADD4B3EF
:1004F00067D4A25FFDA2AF45EAAF9C23BF9CA45383
:10050000F7A472E49672C09B5BC0B775C2B7FDE1F9
:100510001CFD933DAE93264C6A26366C5A363F7EC0
:10052000413FF7F502F7CC834FCC34685C34A551DA
:10053000F4A5E5D134E5F1F908F171E29371D8AB96
:1005400073D831625331152A3F1504080C04C7953E
:1005500052C723466523C39D5EC3183028189637BB
:10056000A196050A0F059A2FB59A070E09071224BE
:100570003612801B9B80E2DF3DE2EBCD26EB274E5F
:100580006927B27FCDB275EA9F7509121B09831DD9
:100590009E832C58742C1A342E1A1B362D1B6EDC9D
:1005A000B26E5AB4EE5AA05BFBA052A4F6523B7650
:1005B0004D3BD6B761D6B37DCEB329527B29E3DD5F
:1005C0003EE32F5E712F8413978453A6F553D1B960
:1005D00068D100000000EDC12CED20406020FCE35C
:1005E0001FFCB179C8B15BB6ED5B6AD4BE6ACB8D36
:1005F00046CBBE67D9BE39724B394A94DE4A4C9815
:10060000D44C58B0E858CF854ACFD0BB6BD0EFC59B
:100610002AEFAA4FE5AAFBED16FB4386C5434D9A88
:10062000D74D3366553385119485458ACF45F9E911
:1006300010F9020406027FFE817F50A0F0503C7842
:10064000443C9F25BA9FA84BE3A851A2F351A35D58
:10065000FEA34080C0408F058A8F923FAD929D21BE
:10066000BC9D38704838F5F104F5BC63DFBCB67743
:10067000C1B6DAAF75DA2142632110203010FFE5F0
:100680001AFFF3FD0EF3D2BF6DD2CD814CCD0C1805
:10069000140C13263513ECC32FEC5FBEE15F9735C6
:1006A000A2974488CC44172E3917C49357C4A75532
:1006B000F2A77EFC827E3D7A473D64C8AC645DBA99
:1006C000E75D19322B1973E6957360C0A06081193C
:1006D00098814F9ED14FDCA37FDC224466222A54AE
:1006E0007E2A903BAB90880B8388468CCA46EEC727
:1006F00029EEB86BD3B814283C14DEA779DE5EBCB3
:10070000E25E0B161D0BDBAD76DBE0DB3BE032641B
:1007100056323A744E3A0A141E0A4992DB49060CC4
:100720000A0624486C245CB8E45CC29F5DC2D3BD59
:100730006ED3AC43EFAC62C4A6629139A8919531F7
:10074000A495E4D337E479F28B79E7D532E7C88B07
:1007500043C8376E59376DDAB76D8D018C8DD5B1C1
:1007600064D54E9CD24EA949E0A96CD8B46C56AC65
:10077000FA56F4F307F4EACF25EA65CAAF657AF4CE
:100780008E7AAE47E9AE08101808BA6FD5BA78F07D
:100790008878254A6F252E5C722E1C38241CA6579B
:1007A000F1A6B473C7B4C69751C6E8CB23E8DDA160
:1007B0007CDD74E89C741F3E211F4B96DD4BBD61B0
:1007C000DCBD8B0D868B8A0F858A70E090703E7C35
:1007D000423EB571C4B566CCAA664890D8480306B7
:1007E0000503F6F701F60E1C120E61C2A361356A0D
:1007F0005F3557AEF957B969D0B986179186C19957
:1008000058C11D3A271D9E27B99EE1D938E1F8EB62
:1008100013F8982BB3981122331169D2BB69D9A967
:1008200070D98E07898E9433A7949B2DB69B1E3C5E
:10083000221E87159287E9C920E9CE8749CE55AA9D
:10084000FF5528507828DFA57ADF8C038F8CA159BB
:10085000F8A1890980890D1A170DBF65DABFE6D79F
:1008600031E64284C64268D0B8684182C3419929C2
:10087000B0992D5A772D0F1E110FB07BCBB054A815
:10088000FC54BB6DD6BB162C3A166363C6A57C7CA4
:10089000F8847777EE997B7BF68DF2F2FF0D6B6B28
:1008A000D6BD6F6FDEB1C5C59154303060500101C7
:1008B00002036767CEA92B2B567DFEFEE719D7D71B
:1008C000B562ABAB4DE67676EC9ACACA8F458282AA
:1008D0001F9DC9C989407D7DFA87FAFAEF155959DC
:1008E000B2EB47478EC9F0F0FB0BADAD41ECD4D471
:1008F000B367A2A25FFDAFAF45EA9C9C23BFA4A44F
:1009000053F77272E496C0C09B5BB7B775C2FDFD2A
:10091000E11C93933DAE26264C6A36366C5A3F3F17
:100920007E41F7F7F502CCCC834F3434685CA5A543
:1009300051F4E5E5D134F1F1F9087171E293D8D8B9
:10094000AB733131625315152A3F0404080CC7C735
:10095000955223234665C3C39D5E1818302896968A
:1009600037A105050A0F9A9A2FB507070E0912122B
:10097000243680801B9BE2E2DF3DEBEBCD26272770
:100980004E69B2B27FCD7575EA9F0909121B838348
:100990001D9E2C2C58741A1A342E1B1B362D6E6E6D
:1009A000DCB25A5AB4EEA0A05BFB5252A4F63B3B19
:1009B000764DD6D6B761B3B37DCE2929527BE3E31A
:1009C000DD3E2F2F5E71848413975353A6F5D1D14A
:1009D000B96800000000EDEDC12C20204060FCFC57
:1009E000E31FB1B179C85B5BB6ED6A6AD4BECBCB0D
:1009F0008D46BEBE67D93939724B4A4A94DE4C4C9B
:100A000098D45858B0E8CFCF854AD0D0BB6BEFEF21
:100A1000C52AAAAA4FE5FBFBED16434386C54D4DFB
:100A20009AD7333366558585119445458ACFF9F9B0
:100A3000E910020204067F7FFE815050A0F03C3C8A
:100A400078449F9F25BAA8A84BE35151A2F3A3A3D2
:100A50005DFE404080C08F8F058A92923FAD9D9D84
:100A600021BC38387048F5F5F104BCBC63DFB6B67C
:100A700077C1DADAAF752121426310102030FFFF11
:100A8000E51AF3F3FD0ED2D2BF6DCDCD814C0C0C27
:100A9000181413132635ECECC32F5F5FBEE1979754
:100AA00035A2444488CC17172E39C4C49357A7A73E
:100AB00055F27E7EFC823D3D7A476464C8AC5D5D44
:100AC000BAE71919322B7373E6956060C0A0818173
:100AD00019984F4F9ED1DCDCA37F222244662A2A3C
:100AE000547E90903BAB88880B8346468CCAEEEED2
:100AF000C729B8B86BD31414283CDEDEA7795E5E34
:100B0000BCE20B0B161DDBDBAD76E0E0DB3B3232EB
:100B100064563A3A744E0A0A141E494992DB060694
:100B20000C0A2424486C5C5CB8E4C2C29F5DD3D339
:100B3000BD6EACAC43EF6262C4A6919139A89595A5
:100B400031A4E4E4D3377979F28BE7E7D532C8C82A
:100B50008B4337376E596D6DDAB78D8D018CD5D5D6
:100B6000B1644E4E9CD2A9A949E06C6CD8B45656DB
:100B7000ACFAF4F4F307EAEACF256565CAAF7A7AEE
:100B8000F48EAEAE47E908081018BABA6FD5787877
:100B9000F08825254A6F2E2E5C721C1C3824A6A6D0
:100BA00057F1B4B473C7C6C69751E8E8CB23DDDD6F
:100BB000A17C7474E89C1F1F3E214B4B96DDBDBD8C
:100BC00061DC8B8B0D868A8A0F857070E0903E3ECB
:100BD0007C42B5B571C46666CCAA484890D8030378
:100BE0000605F6F6F7010E0E1C126161C2A335353B
:100BF0006A5F5757AEF9B9B969D086861791C1C1F6
:100C000099581D1D3A279E9E27B9E1E1D938F8F879
:100C1000EB1398982BB3111122336969D2BBD9D940
:100C2000A9708E8E0789949433A79B9B2DB61E1EA8
:100C30003C2287871592E9E9C920CECE87495555D0
:100C4000AAFF28285078DFDFA57A8C8C038FA1A11A
:100C500059F8898909800D0D1A17BFBF65DAE6E6D4
:100C6000D731424284C66868D0B8414182C399995D
:100C700029B02D2D5A770F0F1E11B0B07BCB5454D5
:100C8000A8FCBBBB6DD616162C3AA56363C6847C44
:100C90007CF8997777EE8D7B7BF60DF2F2FFBD6BDA
:100CA0006BD6B16F6FDE54C5C59150303060030113
:100CB0000102A96767CE7D2B2B5619FEFEE762D78E
:100CC000D7B5E6ABAB4D9A7676EC45CACA8F9D8216
:100CD000821F40C9C989877D7DFA15FAFAEFEB5961
:100CE00059B2C947478E0BF0F0FBECADAD4167D46C
:100CF000D4B3FDA2A25FEAAFAF45BF9C9C23F7A48B
:100D0000A453967272E45BC0C09BC2B7B7751CFD5A
:100D1000FDE1AE93933D6A26264C5A36366C413F30
:100D20003F7E02F7F7F54FCCCC835C343468F4A5F2
:100D3000A55134E5E5D108F1F1F9937171E273D869
:100D4000D8AB533131623F15152A0C04040852C741
:100D5000C795652323465EC3C39D28181830A19606
:100D600096370F05050AB59A9A2F0907070E36120E
:100D700012249B80801B3DE2E2DF26EBEBCD69274E
:100D8000274ECDB2B27F9F7575EA1B0909129E836B
:100D9000831D742C2C582E1A1A342D1B1B36B26E40
:100DA0006EDCEE5A5AB4FBA0A05BF65252A44D3B47
:100DB0003B7661D6D6B7CEB3B37D7B2929523EE3CD
:100DC000E3DD712F2F5E97848413F55353A668D10A
:100DD000D1B9000000002CEDEDC1602020401FFCC7
:100DE000FCE3C8B1B179ED5B5BB6BE6A6AD446CBB1
:100DF000CB8DD9BEBE674B393972DE4A4A94D44C8A
:100E00004C98E85858B04ACFCF856BD0D0BB2AEF6A
:100E1000EFC5E5AAAA4F16FBFBEDC5434386D74DA8
:100E20004D9A5533336694858511CF45458A10F91F
:100E3000F9E906020204817F7FFEF05050A0443C95
:100E40003C78BA9F9F25E3A8A84BF35151A2FEA37B
:100E5000A35DC04040808A8F8F05AD92923FBC9DBC
:100E60009D214838387004F5F5F1DFBCBC63C1B68C
:100E7000B67775DADAAF63212142301010201AFFFD
:100E8000FFE50EF3F3FD6DD2D2BF4CCDCD81140C36
:100E90000C18351313262FECECC3E15F5FBEA2974D
:100EA0009735CC4444883917172E57C4C493F2A7FA
:100EB000A755827E7EFC473D3D7AAC6464C8E75D01
:100EC0005DBA2B191932957373E6A06060C09881E2
:100ED0008119D14F4F9E7FDCDCA3662222447E2AFB
:100EE0002A54AB90903B8388880BCA46468C29EEE7
:100EF000EEC7D3B8B86B3C14142879DEDEA7E25EE7
:100F00005EBC1D0B0B1676DBDBAD3BE0E0DB563247
:100F100032644E3A3A741E0A0A14DB4949920A06B0
:100F2000060C6C242448E45C5CB85DC2C29F6ED39E
:100F3000D3BDEFACAC43A66262C4A8919139A4952D
:100F4000953137E4E4D38B7979F232E7E7D543C8BA
:100F5000C88B5937376EB76D6DDA8C8D8D0164D5BE
:100F6000D5B1D24E4E9CE0A9A949B46C6CD8FA56C2
:100F700056AC07F4F4F325EAEACFAF6565CA8E7A7A
:100F80007AF4E9AEAE4718080810D5BABA6F887877
:100F900078F06F25254A722E2E5C241C1C38F1A691
:100FA000A657C7B4B47351C6C69723E8E8CB7CDD17
:100FB000DDA19C7474E8211F1F3EDD4B4B96DCBD08
:100FC000BD61868B8B0D858A8A0F907070E0423EE2
:100FD0003E7CC4B5B571AA6666CCD8484890050376
:100FE000030601F6F6F7120E0E1CA36161C25F350F
:100FF000356AF95757AED0B9B9699186861758C185
:10100000C199271D1D3AB99E9E2738E1E1D913F8F1
:10101000F8EBB398982B33111122BB6969D270D9C0
:10102000D9A9898E8E07A7949433B69B9B2D221E37
:101030001E3C9287871520E9E9C949CECE87FF5526
:1010400055AA782828507ADFDFA58F8C8C03F8A169
:10105000A15980898909170D0D1ADABFBF6531E6DC
:10106000E6D7C6424284B86868D0C3414182B0998D
:101070009929772D2D5A110F0F1ECBB0B07BFC5440
:1010800054A8D6BBBB6D3A16162C637C777BF26BEB
:101090006FC53001672BFED7AB76CA82C97DFA597E
:1010A00047F0ADD4A2AF9CA472C0B7FD9326363FE3
:1010B000F7CC34A5E5F171D8311504C723C31896D0
:1010C000059A071280E2EB27B27509832C1A1B6E72
:1010D0005AA0523BD6B329E32F8453D100ED20FC14
:1010E000B15B6ACBBE394A4C58CFD0EFAAFB434D17
:1010F000338545F9027F503C9FA851A3408F929DB4
:1011000038F5BCB6DA2110FFF3D2CD0C13EC5F97A3
:101110004417C4A77E3D645D197360814FDC222AA9
:10112000908846EEB814DE5E0BDBE0323A0A4906E0
:10113000245CC2D3AC629195E479E7C8376D8DD554
:101140004EA96C56F4EA657AAE08BA78252E1CA62C
:10115000B4C6E8DD741F4BBD8B8A703EB56648038C
:10116000F60E613557B986C11D9EE1F8981169D90F
:101170008E949B1E87E9CE5528DF8CA1890DBFE692
:10118000426841992D0FB054BB16000000010000C9
:101190000002000000040000000800000010000031
:1011A000002000000040000000800000001B000044
:1011B000003611241FBECFEFD8E0DEBFCDBF11E057
:1011C000A0E0B1E0E4E5F8E602C005900D92A83F8A
:1011D000B107D9F725E0A8EFB1E001C01D92AC310D
:1011E000B207E1F70E94B70A0C9428340C9400006F
:1011F000CF92DF92EF92FF92CF93DF93EC01E8E979
:10120000F2E08681A781B0E02AE0829FA00DB11DA7
:1012100011248085418550E09AE0899F400D511D41
:101220001124C2842AE0C29E600111240D2C000CFE
:10123000EE08FF088385C80ED11CE11CF11C20E1DB
:1012400037E20E945132C60ED71EE81EF91E24E670
:1012500030E0DA010E945132DC01CB018C0D9D1D82
:10126000AE1DBF1D208140E1249F900111243181DA
:101270003F70232B2093F903228140E1249F9001AA
:10128000112433813F70232B2093FA03248140E102
:10129000249F9001112435813F70232B2093FB0361
:1012A000A093FC039093FD038093FE0383898093B6
:1012B000FF038585A685B0E09AE0899FA00DB11D4A
:1012C00011248785408950E02AE0829F400D511DFE
:1012D0001124C1888AE0C89E600111240D2C000CE5
:1012E000EE08FF088289C80ED11CE11CF11C20E128
:1012F00037E20E945132C60ED71EE81EF91E24E6C0
:1013000030E0DA010E945132DC01CB018C0D9D1DD1
:10131000AE1DBF1DA09300049093010480930204AE
:10132000848980930304858980930404968987893E
:101330002AE0929F800D112480930504808D428DB8
:10134000218D30E09AE0899F200D311D112454E653
:10135000529FC001539F900D11242AE0429F800D9F
:10136000911D1124238D820F911D9093060480936B
:10137000070420E04FE069EF73E081E00E9402285B
:101380000E94FA0AAB01BC014C545B436B4F7F4F88
:1013900028EF38E0CE01DF91CF91FF90EF90DF9002
:1013A000CF900C94350B419B02C0419801C0419AEB
:1013B0000E94FA0AAB01BC014E5E55486F4F7F4F49
:1013C00023ED39E080E992E00C94350BCF92DF9267
:1013D000EF92FF920F931F93CF93DF93CDB7DEB7BA
:1013E000A0970FB6F894DEBF0FBECDBF6C010E9470
:1013F00081270E94F31C80E1E3E1F1E0DE015196D8
:1014000001900D928A95E1F780E1E3E2F1E0DE01DF
:10141000119601900D928A95E1F7CE0141967C01DB
:101420008E010F5F1F4F2FED31E141E056E261E089
:1014300070E080E090E00E94352801E02FE330E08A
:1014400040EA57E26EEB73E380E00E94A7182FE7B3
:1014500030E040EA57E26EEB73E381E00E94A718A8
:101460002FE330E040EA57E26EEB73E382E00E9444
:10147000A7182FE330E040EA57E26EEB73E383E016
:101480000E94A7182FE330E040EA57E26EEB73E3C7
:1014900084E00E94A7182FE330E040EA57E26EEBA9
:1014A00073E385E00E94A7182FE330E040EA57E29B
:1014B0006EEB73E386E00E94A7182FE330E040EA6A
:1014C00057E26EEB73E387E00E94A71800E020E884
:1014D00030E040E056ED68EC73E388E00E94A71826
:1014E00080E00E94732883E08093DC036EE085E057
:1014F0000E9470270E94FA0AAB01BC0128EF38E075
:10150000C6010E94350BA0960FB6F894DEBF0FBE41
:10151000CDBFDF91CF911F910F91FF90EF90DF90A2
:10152000CF900895DC0198E0EBE4F1E001900D929A
:101530009A95E1F70895DC0198E0E3E4F1E0019089
:101540000D929A95E1F70895DC0190E1E3E3F1E073
:1015500001900D929A95E1F708958AEA90E0089536
:10156000863021F488EF91E00C94F8080895CF9329
:10157000DF93CDB7DEB728970FB6F894DEBF0FBE66
:10158000CDBF0E94ED0A80E091E00E94EE0B63ED7A
:1015900079E080E992E00E940F0B66EE79E0CE01DF
:1015A00001960E940F0B0E947A0BFFCFFC01208155
:1015B00031812115310571F02617370749F4FB01F8
:1015C00020813181FC013183208381E090E0089506
:1015D000C901ECCF80E090E0089584E0E0E0F2E023
:1015E000DF011D928A95E9F70E94030C0E94A00F6B
:1015F0000C94D2270C94800CCF93DF93EC010E94C3
:101600007A0CBE0180E092E00E94D60ABE0182E020
:1016100092E00E94D60ADF91CF910C947C0C0F933C
:101620001F93CF93DF93EC018B010E947A0CBE01D4
:1016300082E092E00E94D60A1F830E8319821882EC
:10164000E0910202F0910302A2E0B2E0309729F0AB
:10165000DF010190F081E02DF9CFCD93DC93DF9194
:10166000CF911F910F910C947C0CCF92DF92EF924F
:10167000FF920F931F93CF93DF93EC016A017B01DD
:1016800089010E947A0CBE0180E092E00E94D60A95
:10169000CA82DB82EC82FD821F830E83198218824C
:1016A000E0910002F091010220E032E03097A9F0D1
:1016B00082819381A481B5818C199D09AE09BF09EE
:1016C000181619061A061B061CF4F983E88305C0D0
:1016D0009F010190F081E02DE9CFF901D183C08312
:1016E000DF91CF911F910F91FF90EF90DF90CF90FE
:1016F0000C947C0C0E947A0CC0910202D0910302DF
:10170000209739F088819981909303028093020297
:101710001BC0E0910002F0910102309799F06281C4
:101720007381848195810E94B80C892B59F0C091F6
:101730000002D091010288819981909301028093E7
:10174000000202C00E947E0C0E947C0C209791F245
:10175000EE81FF81CE010995CDCFF89483E380938C
:10176000C4001092C500E1ECF0E0808188608083C5
:1017700080818061808380818064808380818068B3
:101780008083E2ECF0E08081866080837894089525
:101790009091C00095FF07C090910402911103C081
:1017A0008093C6000895909104029431B0F4909112
:1017B00004029F5F90930402E0910502F0E0E95F6C
:1017C000FD4F8083809105028F5F80930502809199
:1017D0000502843111F4109205020895CF93DF932E
:1017E000EC018991882319F00E94C80BFACFDF9190
:1017F000CF910895229A84B1886284B924988CB5D7
:1018000081658CBD0895399A41980E94AD0B0E9464
:10181000FA0B84E085BD81E080936E00E9E6F0E09C
:10182000808183608083E89A55985D98E8E6F0E0CF
:10183000808184608083EDE6F0E080818062808337
:1018400083B7817F83BF78940895813011F42A9AF9
:1018500008952A9808950895823038F4219A8130A5
:1018600011F4299A089529980895219808958EBD14
:101870000DB407FEFDCF8EB50895FF920F931F9311
:10188000CF93DF93F82EEB018A0180E00E94250CB4
:101890008F2D0E94370C0C0F1D1FC017D10721F090
:1018A00089910E94370CF9CF2A9ADF91CF911F912D
:1018B0000F91FF900895FF920F931F93CF93DF93A3
:1018C000F82EEB018A0180E00E94250C8F2D0E94EA
:1018D000370C0C0F1D1FC017D10729F080E00E94A4
:1018E000370C8993F8CF2A9ADF91CF911F910F91EE
:1018F000FF900895F8940895789408958895089530
:10190000F8948091B4029091B502A091B602B09182
:10191000B70226B57894BA2FA92F982F8827BC0133
:10192000CD01622B0895CF92DF92EF92FF926B016F
:101930007C010E94800CA7019601261B370B480BE7
:10194000590BDA01C90112161306140615065CF4C8
:10195000AD01772757FD7095672F452B462B472BF9
:1019600041F7892B31F7FF90EF90DF90CF900895EA
:10197000CF92DF92EF92FF920F931F936B017C0146
:101980000E94800C97018601061B170B280B390B50
:10199000101611061206130684F4C901BB2797FD21
:1019A000B095AB2F892B8A2B8B2B49F481E090E0EB
:1019B0000530110530F080E004C081E001C080E016
:1019C00090E01F910F91FF90EF90DF90CF900895DE
:1019D0000895089508951F920F920FB60F92112443
:1019E0008F939F93AF93BF938091B4029091B50270
:1019F000A091B602B091B7020196A11DB11D8093CE
:101A0000B4029093B502A093B602B093B702BF910F
:101A1000AF919F918F910F900FBE0F901F901895CF
:101A20001F920F920FB60F9211248F93EF93FF9393
:101A3000809104028823C1F0E0910602F0E0E95FA2
:101A4000FD4F80818093C600809104028150809375
:101A50000402809106028F5F809306028091060245
:101A6000843111F410920602FF91EF918F910F9043
:101A70000FBE0F901F9018951F920F920FB60F92E6
:101A800011242F933F934F935F936F937F938F9383
:101A90009F93AF93BF93EF93FF9380E00E94331027
:101AA000FF91EF91BF91AF919F918F917F916F9136
:101AB0005F914F913F912F910F900FBE0F901F900C
:101AC00018951F920F920FB60F9211242F933F93E8
:101AD0004F935F936F937F938F939F93AF93BF9336
:101AE000EF93FF934D9B03C081E00E943310FF9161
:101AF000EF91BF91AF919F918F917F916F915F9186
:101B00004F913F912F910F900FBE0F901F901895FE
:101B1000CF93DF93D82FC62F80E00E94250C8D2F06
:101B200080680E94370C8C2F0E94370C81E0DF9177
:101B3000CF910C94250CCF93DF938091C6029091A6
:101B4000C702D82FD77053E0969587955A95E1F73D
:101B50008370813029F050F0823021F480E907C091
:101B600080E805C00E94E80C80E001C080E7609139
:101B7000C6027091C7029B0145E0369527954A95AC
:101B8000E1F72370C82F223041F0233041F021309B
:101B900011F0C26005C0C46003C0C66001C0C86067
:101BA000672F77276115710521F0C16082E20E94DD
:101BB000880D6C2F8DE10E94880D6D2F6295607FDE
:101BC000605A8091C60287FF64608EE10E94880D92
:101BD000D550D23068F48091C6029091C70223E0BC
:101BE000969587952A95E1F7837011F46CE001C012
:101BF00064E086E2DF91CF910C94880DAF92BF92A2
:101C0000CF92DF92EF92FF920F931F93CF93DF93C8
:101C10008091C0029091C102A091C202B091C30212
:101C20009C01AD0160E070E080E090E003E10E9483
:101C3000C633A12CE8E4BE2EF8EECF2EDD24D394DB
:101C4000E12CF12C00E010E00E942233C22FB32ED1
:101C50006A017B01182FD92F00E10E94E133622F26
:101C600086E00E94880D2C2F3B2DA601B701812F05
:101C70009D2F08E00E94E133622F87E00E94880DCB
:101C80006C2F88E0DF91CF911F910F91FF90EF9023
:101C9000DF90CF90BF90AF900C94880DCF93C82F5A
:101CA00080E00E94250C8C2F8F770E94370C80E0FB
:101CB0000E94370CC82F81E00E94250C8C2FCF91F9
:101CC0000895CF93C82F81E00E944E0E887F682F21
:101CD0006C2B81E0CF910C94880DCF93C82F68E8CE
:101CE00081E00E94880D81E00E944E0E87FF0E94D5
:101CF000E80C81E00E94610EC23049F46AE08DE197
:101D00000E94880D60E78EE10E94880D04C00E9449
:101D10009B0D0E94FE0D61E28CE00E94880D60E444
:101D200083E20E94880D80915304882331F083E37D
:101D30000E944E0E682F6F7B05C083E30E944E0EFB
:101D4000682F606483E30E94880D6091C8028FE170
:101D50000E94880D64E389E30E94880D60EC80E4B2
:101D60000E94880D6FEF82E10E94880DEC2FF0E059
:101D7000EF59FE4F6081609581E10E94880D80E0FF
:101D80000E942B0CC1110CC06091BC027091BD026D
:101D90008091BE029091BF020E94930C86E001C028
:101DA00085E0CF910C94610E6091CA02613124F4F8
:101DB00062301CF462E001C06FE06F70606889E01F
:101DC0000E94880D8AE50E944E0E682F64608AE5A5
:101DD0000C94880DCF93C82F81E00E944E0E87701F
:101DE00011F00E94E80C8091C602877009F067C06C
:101DF000C1110E94E80C68E081E00E94880D81E03A
:101E00000E944E0E87FD0E94E80C81E00E94610E48
:101E10000E94FE0D61E28CE00E94880D6EE18DE073
:101E20000E94880D6BE082E10E94880D62E183E1EF
:101E30000E94880D6AEA8FE10E94880D62E187E2C4
:101E40000E94880D68ED80E30E94880D60E481E3C4
:101E50000E94880D61EC88E20E94880D64E989E2A5
:101E60000E94880D61EC8AE20E94880D6FEF81E28A
:101E70000E94880D62E082E00E94880D60E883E0A5
:101E80000E94880D61E084E00E94880D69E985E088
:101E90000E94880D68E380E40E94880D80E00E9423
:101EA0002B0C6091BC027091BD028091BE0290919A
:101EB000BF020E94930C85E0CF910C94610E8C2F91
:101EC000CF910C946D0E0F931F93CF93DF93D82F68
:101ED00080E00E94250C80E00E94370C09EF13E09F
:101EE000C0E0CD1741F080E00E94370CF8018193EB
:101EF0008F01CF5FF6CF81E0DF91CF911F910F91DE
:101F00000C94250C0F931F93CF93DF93D82F80E071
:101F10000E94250C80E80E94370C09EF13E0C0E016
:101F2000CD1739F0F80181918F010E94370CCF5FF6
:101F3000F7CF81E0DF91CF911F910F910C94250C89
:101F4000AF92BF92CF92DF92EF92FF921F93CF9307
:101F5000DF930E947A0C80E00E942C0C0E94FA0A07
:101F6000615E7F4F8F4F9F4F0E94930C82E00E94D3
:101F70002C0C0E94FA0A64567F4F8F4F9F4F0E948D
:101F8000930C80E00E94610E82E40E944E0E82312A
:101F900011F00E94E80C82E00E946D0E81E00E9428
:101FA0004E0E87708530D1F7CBE1D2E09AE2A92EB0
:101FB00092E0B92E88E0E82EF12C8CE20E944E0EC1
:101FC000182F11708CE20E944E0E212F30E080FB02
:101FD000CC24C0F8D12C2C153D0579F38981880FCC
:101FE000182B198381E0E81AF10839F72196AC160D
:101FF000BD0601F780E180931B0280E00E94610E24
:10200000DF91CF911F91FF90EF90DF90CF90BF9025
:10201000AF900C947C0CCF93C0911B02C11103C0F4
:102020000E94E80C0AC0C03141F440E150E06BE18D
:1020300072E080E00E948928C0E0EC2FF0E0E55ECD
:10204000FD4F8081CF5FC0931B02CF910895CF9346
:102050000E947A0C8BE10E944E0EC82F0E947C0CCD
:102060008C2FCF910895CF92DF92EF92FF92CF9372
:102070000E94FA0A6B017C0181E00E944E0E87FFEC
:1020800065C082E10E944E0E83FF0EC081E0C81A37
:10209000D108E108F108C092B802D092B902E092EA
:1020A000BA02F092BB0249C086FF44C08091C602CA
:1020B0009091C7029C0193E0369527959A95E1F798
:1020C000237069F48770E82FF0E0EE0FFF1FED5AE0
:1020D000FE4F80819181C81AD90AE108F108C092A7
:1020E000BC02D092BD02E092BE02F092BF028DE12E
:1020F0000E944E0E82FF02C082E201C083E10E9474
:102100004E0E8093F80380E10E944E0E682F8DE002
:102110000E94880D8091F8030E94630F89E10E945C
:102120004E0E8093C5028AE10E944E0E8D5380931D
:10213000C40203C087FD1092F8036FEF81E10E9493
:10214000880D6FEF82E10E94880D2EC08EE30E9401
:102150004E0EC82F8FE30E944E0E83FF09C0C0921F
:10216000B802D092B902E092BA02F092BB021CC04F
:1021700082FF14C0C092BC02D092BD02E092BE02A7
:10218000F092BF0282E30E944E0E8093F8030E94F9
:10219000630F1092C5021092C40206C0C2FF03C0B2
:1021A0001092F80301C0FFCF80E00E94610E6091A1
:1021B000D1027091D2028BEC92E0CF91FF90EF9020
:1021C000DF90CF900C940F0BCF93C82F0E947A0C06
:1021D000C13059F040F0C23009F4A7C0C33009F053
:1021E000A7C081E0A3C080E065C081E00E944E0EE0
:1021F000877011F00E94E80C8091C602877009F088
:102200005CC060E181E00E94880D81E00E944E0E7A
:10221000803111F00E94E80C81E00E94610E62E0C2
:1022200082E00E94880D60E883E00E94880D61E0F2
:1022300084E00E94880D69E985E00E94880D60E0D5
:1022400085E20E94880D65E086E20E94880D62E1C9
:1022500087E20E94880D60ED80E30E94880D60E4B3
:1022600081E30E94880D61EC88E20E94880D64E998
:1022700089E20E94880D61EC8AE20E94880D0E942A
:10228000FE0D0E94D40E64E380E40E94880D6091EC
:10229000F8036F5F82E30E94880D6091F80380E08D
:1022A0000E94880D8091F8030E94820F81E00E94B5
:1022B0002B0C83E00E94610E3BC068E881E00E9425
:1022C000880D81E00E944E0E87FF0E94E80C81E09D
:1022D0000E94610E0E949B0D0E94FE0D8AE00E94EA
:1022E0004E0E807F682F68608AE00E94880D0E94F1
:1022F000D40E64E389E30E94880D60EF80E40E94BD
:10230000880D6FEF82E10E94880D67EF81E10E94E6
:10231000880D60E08EE00E94880D60E08DE00E94F4
:10232000880D6091F80382E2BBCF80E00E94EA0E44
:10233000CF910C947C0C4F925F926F927F928F9210
:102340009F92AF92BF92CF92DF92EF92FF92E62FD1
:10235000A0916603B0916703809068039090690331
:10236000811109C06D01BB0FEE08FF08092C000C9C
:10237000AA08BB081AC0482F50E09A010E945132A7
:102380006B017C0187E0F594E794D794C7948A9514
:10239000D1F7D4010E9451324B015C0197E0B59412
:1023A000A794979487949A95D1F7A0916A03B091D6
:1023B0006B032091E20384E0E89FF0011124EC56C6
:1023C000FE4F408051806280738030E00E94513225
:1023D000680D791D8A1D9B1DA30192010E94163272
:1023E0002B5F2093C802ADEFBFEFA30192010E94C3
:1023F00066326C0D7D1D8E1D9F1DFF90EF90DF904E
:10240000CF90BF90AF909F908F907F906F905F9094
:102410004F900895CF93DF93C8EBD2E01092F8036A
:10242000E091390484E0E89FF0011124E854FD4F65
:1024300083AD94ADA5ADB6AD8C7F88879987AA870B
:10244000BB8783E891E19F878E87DF91CF910895C5
:102450001092CD031092CE031092CF031092D003AE
:102460001092C9031092CA031092CB031092CC03AE
:10247000109265031092D7031092D6031092D303E3
:102480001092D1031092DA031092DB031092E10351
:102490001092D9031092E4031092610384EF8093A9
:1024A000D2031092DC0388E096EEA3EDB3E38093B1
:1024B000DD039093DE03A093DF03B093E00325E0F8
:1024C000209339048093F1039093F203A093F303D4
:1024D000B093F40383E08093E5030895CF92DF92F5
:1024E000EF92FF92CF93DF93D82F0E940B10C82F4B
:1024F0000E940B102C2F30E0322F2227282B233163
:102500008AE7380710F4690106C0C90162E17AE779
:102510000E94EE316C01E12CF12CDD23C1F0C901E8
:1025200099276D2F70E00E940232AC0122E13AE758
:10253000429FC001439F900D529F900D1124092E80
:10254000000CAA0BBB0BC80ED91EEA1EFB1EC7014E
:10255000B601DF91CF91FF90EF90DF90CF9008957B
:10256000CF92DF92EF92FF926B017C01842F0E9449
:102570006E12DC01CB018C0D9D1DAE1DBF1D209187
:102580005603222399F0C0905703D0905803E0904F
:102590005903F0905A039C01AD012C193D094E09D5
:1025A0005F0912161306140615068CF48093570360
:1025B00090935803A0935903B0935A0380915F03FB
:1025C0009091600391609093600380935F03FF900C
:1025D000EF90DF90CF900895CF92DF92EF92FF922D
:1025E0000F931F93CF93DF936B017C01FA01C8EB2C
:1025F000D2E0A091DC0384E0A89FD0011124AC5666
:10260000BE4F2D913D914D915C91A3E0B0E00E94B1
:102610005832088119812A813B81C00ED11EE21EE9
:10262000F31EAB01BC014C0D5D1D6E1D7F1D4C8367
:102630005D836E837F834E535109610971099F0148
:102640008BEC92E0DF91CF911F910F91FF90EF9073
:10265000DF90CF900C94350B84E893E29093D202F4
:102660008093D10282E00C94E41081E696E290938C
:10267000D2028093D10282E00C94E410E8EBF2E005
:1026800021E02093F6032685378520683787268743
:102690001092F803928F818F82E00C94E4108BE10A
:1026A00097E20C943E1380E496E20C943E13A8EB60
:1026B000B2E082E08093F603E091DC03F0E0ED51BC
:1026C000FE4F818190E08F7780681F969C938E9358
:1026D0001E974091DD035091DE036091DF037091FE
:1026E000E00318964D935D936D937C931B97109226
:1026F000F80382E00C94E41080E397E29093D20216
:102700008093D1020C94571381E596E29093D20204
:102710008093D1020C9457138091C5039091C60306
:10272000A091C703B091C803892B8A2B8B2B19F07A
:1027300080915F0382FD0E94E80C80915F0390917D
:10274000600386FD2FC0109245041092D1031092B1
:10275000F5038E7781609093600380935F030E94FE
:102760000A120E94FA0AAB01BC014E5E5C47624C41
:102770007F4F40933F045093400460934104709313
:1027800042044093BC025093BD026093BE0270931A
:10279000BF0223E233E28BEC92E00E94350B83E030
:1027A0000C94E4100895CF93DF9390E4E3EFF2E00C
:1027B000DF011D929A95E9F790E2E3E3F3E0DF0190
:1027C000292F1D922A95E9F7E3EDF2E0DF011D9232
:1027D0009A95E9F72FE330E03093540320935303A5
:1027E000811102C086E001C080E0C3EFD2E0A3E324
:1027F000B3E096E0980F2FE330E044E0849FF001CF
:102800001124EC59FE4F40815181628173814993BB
:102810005993699379932D933D938F5F8913EDCFEE
:1028200088EE93E09093D4028093D302CEE0C093DD
:10283000D5020E940B108F708093D60284E690E040
:102840009093DC028093DB02C093DD020E940B10A8
:102850008F708093DE028AE090E09093E402809390
:10286000E3028BE18093E5020E940B108F7080934E
:10287000E6020E94FA0A6093E7027093E8028093EE
:10288000E9029093EA026093DF027093E002809382
:10289000E1029093E2026093D7027093D802809392
:1028A000D9029093DA02DF91CF910895603811F048
:1028B0006093620390916303981759F080936303C8
:1028C00080915F0390916003986090936003809380
:1028D0005F03089587700895887F862B089523E00D
:1028E000969587952A95E1F783700895877E28E06D
:1028F000629FB0011124862B972B089525E09695B1
:1029000087952A95E1F7837008958F7920E2629F79
:10291000B0011124862B972B089587FB882780F917
:1029200090E008958F777695762F6627779567954F
:10293000862B972B0895892F90E0089520E030E0B2
:10294000362FA901482BCA0108950F931F93E82F32
:10295000F0E088E0689FB001112480E2489FA00168
:102960001124012B19F4A0E0B0E002C0A0E8B0E00F
:1029700080E090E0922F842B952B8E2B9F2B862B23
:10298000972B8A2B9B2B1F910F91089586279727B2
:10299000BC016F71772781E090E0672B11F080E038
:1029A00090E00895E82FF0E0ED51FE4F818190E036
:1029B0000895E82FF0E0ED51FE4F818190E08F7790
:1029C0008068089521E030E0681710F020E030E0E2
:1029D000C901089521E030E0861710F020E030E0D2
:1029E000C9010895E82FF0E0ED51FE4F92819F3F1D
:1029F00009F08F5F0895E82FF0E0ED51FE4F9081D0
:102A00009F3F09F081500895E82FF0E0ED51FE4F0F
:102A100091819F3F09F485E00895E82FF0E0ED51A2
:102A2000FE4F81E091819F3F09F480E0089561505D
:102A300048F0E82FF0E0ED51FE4F90819F3FB9F351
:102A40008150F5CF0895FC01808191810895FC01AA
:102A5000228160817181CB01770FAA0BBB0BA22B66
:102A60002381BC01CD01922B08950F931F930197F1
:102A70000E942715272F382F492F5527A4E6B0E0AD
:102A80000E9458328B019C01005C1545204733435E
:102A9000013C1F4C2A46310518F060E070E0CB0184
:102AA0001F910F9108950F931F93FC012181608165
:102AB000862F90E0A0E0B0E0B82FAA2799278827BA
:102AC000AC01BD01622B82819381982789279827C9
:102AD000092E000CAA0BBB0B8A019B01082B192B9A
:102AE0002A2B3B2BC901B8011F910F910895FC01BE
:102AF000608371830895FC014083518362837383F3
:102B000008954F925F926F927F92AF92BF92CF9251
:102B1000DF92EF92FF920F931F93CF93DF93EC011D
:102B20002801390180E1E4E0F5E0DF011D928A959A
:102B3000E9F781E08093130580930405EF2809F4F9
:102B400080E0809309058AE095E00E947B15B3013F
:102B5000A2018EE095E00E947B1580E1FE01A4E5D4
:102B6000B4E001900D928A95E1F7A501B60184E0E9
:102B7000DF91CF911F910F91FF90EF90DF90CF9059
:102B8000BF90AF907F906F905F904F900C9489288A
:102B90008F929F92AF92BF92CF92DF92EF92FF926D
:102BA0000F931F93CF9380E1E4E5F4E0DF011D92E2
:102BB0008A95E9F788E0E1E0F4E0DF011D928A956B
:102BC000E9F74091460450914704609148047091A0
:102BD000490489EF93E00E947B154091C503509111
:102BE000C6036091C7037091C8038DEF93E00E9404
:102BF0007B1540E150E069EF73E080E00E94892896
:102C0000C091E60387E090E08C1B91094FEF5FE0F5
:102C100002C0559547958A95E2F78091F903909106
:102C2000FA03482359238CE1A82E9EE4B92E2EE006
:102C3000C22ED12CE12CF12C00E010E09A0140E0F2
:102C400050E060E070E080E090E00E946B32E8EEDF
:102C5000AE2EF3E0BF2EC12C0E94F13249015A0181
:102C600080913F0490914004A0914104B0914204AE
:102C700086539D4FAE4FBF4F880E991EAA1EBB1E96
:102C80008092E9039092EA03A092EB03B092EC03E6
:102C90001092E70381E090E001C0880FCA95EAF73F
:102CA0006091E5038E5F0E949B11861A970AA80A1D
:102CB000B90A8092ED039092EE03A092EF03B092D6
:102CC000F0038091C8028093E803CF911F910F9188
:102CD000FF90EF90DF90CF90BF90AF909F908F903C
:102CE00008958F929F92AF92BF92CF92DF92EF9210
:102CF000FF92CF93DF934B015C01EA0180915F0368
:102D000090916003827096708230944059F40E94D2
:102D1000C81580915F039091600392609093600367
:102D200080935F038091C802C090B802D090B9022E
:102D3000E090BA02F090BB02873099F4C80CD91C1D
:102D4000EA1CFB1C85E0C81AD108E108F108C09212
:102D5000BC02D092BD02E092BE02F092BF0288E0B7
:102D600023C0E091C90224E0E29FF0011124EC5657
:102D7000FE4F2081318142815381A3E0B0E00E9467
:102D80005832C80CD91CEA1CFB1CDC01CB018C0D91
:102D90009D1DAE1DBF1D8093BC029093BD02A093EC
:102DA000BE02B093BF0285E08093C8024091BC028E
:102DB0005091BD026091BE027091BF024E53510905
:102DC000610971099E018BEC92E0DF91CF91FF9038
:102DD000EF90DF90CF90BF90AF909F908F900C942A
:102DE000350B2091D40330E0A2E1BAE70E944232D1
:102DF0004FE453E10C94711643E553E16AE572E642
:102E000082E090E00C947116FC014383528361834D
:102E1000708308958FEF0895FC01680F791F80E09B
:102E200090E0E617F70791F02191922728E0AC0196
:102E3000440F551F97FF06C0CA0131E2832730E1D6
:102E4000932701C0CA01215091F7EBCF08950F934A
:102E50001F93CF938091F803813111F00E94E80C09
:102E600067E070E089EF93E00E940C172091000466
:102E700030E099272817390709F081C089EF93E0DE
:102E80000E942715DC01CB01BB2700915B03109149
:102E90005C0320915D0330915E0380179107A207C8
:102EA000B30709F06FC0C0914504CC7FC0934504BF
:102EB0008091C502809344048091C40280934304AE
:102EC0008091BC029091BD02A091BE02B091BF0260
:102ED000805A9141A109B10980933F049093400425
:102EE000A0934104B09342048CEF93E00E94271515
:102EF0006093460470934704809348049093490478
:102F00008C2F81608093450400910804109109047E
:102F10006FE070E089EF93E00E940C178017910733
:102F2000A1F581E094E00E942715BB2797FDBA9593
:102F3000A92F982F872F80934B0490934C04A09334
:102F40004D04B0934E0484E094E00E942715BB2703
:102F500097FDBA95A92F982F872F80934F049093B0
:102F60005004A0935104B0935204809101048093C3
:102F70004A04C360C093450482E090E008C080E04A
:102F800090E005C08FEF9FEF02C081E090E0CF910D
:102F90001F910F910895282F277030E043E09695F8
:102FA00087954A95E1F78370F901EE0FFF1FE20F55
:102FB000F31FE254FE4FE80FF11D808190E08D5821
:102FC00091090895EF92FF920F931F93FC01382F00
:102FD0003770A62FB0E031F41B9625E030E00E9458
:102FE00051328BC0632F660F660F685E353010F468
:102FF00020E001C028E013E0AA0FBB1F1A95E1F7FB
:10300000CD01861B9109DC015C96E7FD03C080E1E0
:1030100090E002C080E090E08A0F9B1F4F2F552761
:10302000452B19F440E050E002C044E150E0841B1D
:10303000950B18161906D4F4621B70E0860F971FC3
:1030400001970E940232AF01A5E056954795AA95D7
:10305000E1F7437050E04B5F5F4F469FC001479FD1
:10306000900D569F900D1124089602C088E090E0C4
:10307000880F991F880F991FC1963F5F63E0F695EF
:10308000E7956A95E1F7E3703E1B353050F0345018
:10309000E9E0FDE302C0F595E7953A95E2F734E003
:1030A00002C0E9E0FDE3092E000CAA0BBB0B7C017A
:1030B0008D0104C0EE0CFF1C001F111F3A95D2F7C2
:1030C000A8019701A2E1BAE70E9458329F01F7FFD9
:1030D00002C02F5F3F4F359527958901330F220B93
:1030E000330B600F711F821F931F9F01FF0F440B53
:1030F000550B0E941632CA01B9011F910F91FF9022
:10310000EF900895EFE5F3E080819181997F9183BD
:1031100080830895CF93DF938430A8F498E0899F4B
:10312000E0011124C854DD4F6D8F5C8F4B8F0E94DE
:10313000FA0A6F8F78A389A39AA30E940B108F704D
:103140008E8F81E001C080E0DF91CF910895CF9212
:10315000DF92EF92FF920F93CF93DF93A82F8031EE
:1031600008F074C00F3FC1F56A017B0180ECC81AFA
:103170008DEFD80A81EDE80A83E3F80A81E9C816E1
:1031800080EDD80683E0E806F10410F4426030C018
:103190006A017B0181EAD81A8CEBE80A83E3F80A1A
:1031A00081ECC81687E2D80689E0E806F10490F0C1
:1031B0006A017B0180EAC81A81E9D80A86EDE80A2B
:1031C00083E3F80A81EEC81683E9D80684E0E806AE
:1031D000F10470F441600CC00430C4F54C7FC02E83
:1031E000000FDD08EE08FF084C295D296E297F29B4
:1031F000EA2FF0E0EF01CC0FDD1FCC0FDD1FC8542C
:10320000DD4F4BAF5CAF6DAF7EAF2115310519F0CF
:10321000922F832F02C09FE380E0EE0FFF1FED5C33
:10322000FC4F9083818381E090E002C0880F991F5A
:10323000AA95E2F72091530330915403822B932BEC
:10324000909354038093530381E001C080E0DF91A9
:10325000CF910F91FF90EF90DF90CF9008952F9234
:103260003F924F925F926F927F928F929F92AF9216
:10327000BF92CF92DF92EF92FF920F931F93CF9363
:10328000DF93CDB7DEB729970FB6F894DEBF0FBE38
:10329000CDBF0091F80310E00C30110524F410921A
:1032A000F80380E035C32091F90329832370288730
:1032B0002111F5CF3981307E3E83303611F0303A1E
:1032C00071F78AEF93E00E942715AB01BC01809152
:1032D000FF0390910004C090C503D090C603E09016
:1032E000C703F090C8034C155D056E057F05B9F660
:1032F000A091FE03AB832A2F2F70E22FF0E0FD8315
:10330000EC834F01F8E08F0E911C180124E0221A83
:103310003108281439041CF2821493046CF4F4016B
:10332000E750FC4F2081A22FB0E0BA83A983EC8143
:10333000FD8139964F0104C02FEF3FEF3A83298377
:103340004090C9035090CA036090CB037090CC03A7
:1033500084199509480E591E611C711C10E1E4E0A6
:10336000F5E0DF01212F1D922A95E9F789E480938A
:10337000040581E080930905209213058AE095E019
:103380000E947B15B301A2018EE095E00E947B159F
:10339000E5EAF3E0A4E5B4E001900D921A95E1F7B7
:1033A000A10169EF73E082E00E9489286B017C0132
:1033B000C10187509C4F0E945315C616D706E806D8
:1033C000F90609F06CCF8091C9039091CA03A091CE
:1033D000CB03B091CC03481659066A067B06E8F485
:1033E00084159505A605B7050CF459CF0197A109D9
:1033F000B109481659066A067B0609F050CF80913C
:10340000D103882309F44BCF3E81303A09F047CFEE
:1034100081E090E09F838E8317C0D301C2010196A3
:10342000A11DB11D8093C9039093CA03A093CB0340
:10343000B093CC039E81903A11F480E201C080E009
:103440008093D1031F821E828091D103811103C01A
:10345000AB81A4FF09C080915F03909160038061FC
:103460009093600380935F03109265031092D303DF
:103470008091D203803819F084EF8093D203809139
:10348000C6029091C7020E94CB172091C402022E5F
:10349000000C330B20543109281B390B37FD06C0B3
:1034A0002F3F310514F02EEF30E02887B885B09318
:1034B000D5031986188688859985AC81BD818A17C0
:1034C0009B070CF0C6C1E885F985EF5FFB4FE081F3
:1034D0008E2F90E0FC013297E131F10508F0B9C17F
:1034E000EC5CFF4F0C943532E885F9853396F9870B
:1034F000E887E1CFE885F985EE5FFB4FA081E8859D
:10350000F985ED5FFB4F80819181E885F985EB5F5F
:10351000FB4FB081288539852B5F3F4F398728873E
:1035200037E83093D6032B2F207F09F0E4C10097B2
:1035300009F4E1C120915303309154032095309553
:1035400028233923232B09F0D6C1E8EBF2E020E051
:1035500030E041E050E0022E02C0440F551F0A94B3
:10356000E2F7BA0168237923672B61F0C3ACD4ACCE
:10357000E5ACF6ACCD28CE28CF2821F44095509567
:10358000842395232F5F3F4F34962031310509F76F
:1035900090935403809353038A2F82958F70E82F62
:1035A000F0E0ED51FE4F91819F3F29F49091D603B9
:1035B0009D7F9093D6039091D6039F77973051F4D7
:1035C000BF70B0936103AF70B0E0AD52BE4F6C916D
:1035D0000E94561481E08093D3036DCF91E09093C5
:1035E000D703A885B9851196B987A88764CFE885E0
:1035F000F985EE5FFB4F10811F70888599858D5F7F
:103600009B4F0E943515E885F9853596F987E8873F
:10361000F0E8F093E103E12FF0E0ED51FE4F21815E
:103620002F3F09F46CC122E82093E1036115710575
:103630008105910509F43FCF33E83093E1031093FE
:10364000DC036093DD037093DE038093DF039093CC
:10365000E00331CFE885F985EE5FFB4F2081888557
:1036600099850296998788872F3F49F480915F0357
:103670009091600380649093600380935F032F7048
:10368000209356030E94FA0A6093570370935803DD
:103690008093590390935A0391E09093DA030BCFF0
:1036A000E885F985EE5FFB4FD080888599858D5F31
:1036B0009B4F0E943515AB01BC01E885F985EA5F97
:1036C000FB4FE081A0E8A093DB03411551056105A4
:1036D000710521F18E2F82958F702FE030E0281B2D
:1036E0003109C9012FEF3FEF02C0369527958A9522
:1036F000E2F7EF708FEF9FEF02C0880F991FEA95F6
:10370000E2F7282339230FEF8D2D0E94A718882375
:1037100029F08091DB0383608093DB0388859985A2
:10372000069699878887C7CE888599858E5F9B4F37
:103730000E943515A885B9851496B987A8876115A3
:1037400071058105910551F06093F1037093F203C7
:103750008093F3039093F40381E801C080E88093A1
:10376000E403A9CE80915F039091600381FD6AC05C
:10377000E885F985EC5FFB4F208120933904826056
:103780009093600380935F038091E303811102C0F3
:103790000E94E80CE885F985EE5FFB4F80819181FE
:1037A000BEE1B89FB001B99F700D112480E090E098
:1037B00022E13AE740E050E00E94C432E8EEAE2E4B
:1037C000F3E0BF2EC12CD12CE12CF12C00E010E055
:1037D0000E94F13259016A018091BC029091BD02B0
:1037E000A091BE02B091BF028A0D9B1DAC1DBD1DF4
:1037F000AC01BD014B5257406D43710940933F04EA
:103800005093400460934104709342041092670304
:103810001092660310926B0310926A031092E203F7
:10382000ECE0E0934504F3E1F0933A048B5E9109F8
:10383000A109B10980933B0490933C04A0933D04FB
:10384000B0933E04288539852C5F3F4F3987288700
:1038500032CEEE81FF81EF2B31F529813A812F3F66
:103860008FEF380701F15101A818B9081A141B0489
:10387000D4F4D401A750BC4F6D014091C5035091C1
:10388000C6036091C7037091C803232B19F485EA1E
:1038900093E002C085EB93E0EE24E394F12C9301D6
:1038A00082010E9481158091F503882359F080914F
:1038B000F603BB81B5FF02C090E801C090E4892BFC
:1038C0008093F6038091F603E981FA81319641F401
:1038D00080628093F6038092F7031092F80309C088
:1038E00080618093F6038092F703822D881980937C
:1038F000F80381E00DC086E88093D6034DCE672B98
:10390000682B692B09F4D7CD31E83093E103D3CD8F
:1039100029960FB6F894DEBF0FBECDBFDF91CF91D1
:103920001F910F91FF90EF90DF90CF90BF90AF90DD
:103930009F908F907F906F905F904F903F902F90CF
:103940000895482F282F30E0F901EE0FFF1FEE0FEA
:10395000FF1FE854FD4F13AE14AE15AE16AE220F86
:10396000331FF901ED5CFC4F11821082E3E5F3E0B7
:1039700081E090E002C0880F991F4A95E2F7809598
:1039800090952081318182239323918380830895B0
:1039900020915F033091600323743327232B39F484
:1039A0008093E303811105C00E948C1302C080E064
:1039B000089581E0089587708093E60380915F0306
:1039C000909160039C0134603093600320935F0307
:1039D00083709927892B31F48091E303811102C010
:1039E0000C94C81C0895CF92DF92EF92FF928091C1
:1039F000C5039091C603A091C703B091C803892B5A
:103A00008A2B8B2B09F05DC080915F03909160033E
:103A100080799927892B11F00E94E80C10925603A7
:103A200080915F03909160038E7D977E90936003F9
:103A300080935F0310926D031092F503109265035B
:103A40000E940B1066E00E94E231909355038EE0D5
:103A50008093620383E08093630381E00E94D31329
:103A600080915F039091600393FD0E94E80CC090E9
:103A7000D702D090D802E090D902F090DA0288E024
:103A80000E946E12DC01CB018C0D9D1DAE1DBF1D71
:103A90008093B8029093B902A093BA02B093BB028C
:103AA00080915F03909160038460909360038093A2
:103AB0005F036CE576E28BEC92E00E940F0B81E0F5
:103AC00001C080E0FF90EF90DF90CF9008952F929B
:103AD0003F924F925F926F927F928F929F92AF929E
:103AE000BF92CF92DF92EF92FF920F931F93CF93EB
:103AF000DF93CDB7DEB762970FB6F894DEBF0FBE87
:103B0000CDBF80915F03909160039C01217C33279E
:103B1000232B09F07BC54091C5035091C6036091EA
:103B2000C7037091C803452B462B472BE1F482FD58
:103B30001AC062960FB6F894DEBF0FBECDBFDF91FC
:103B4000CF911F910F91FF90EF90DF90CF90BF909A
:103B5000AF909F908F907F906F905F904F903F902D
:103B60002F900C94F31C0E94FA0A2B013C018091C7
:103B70005F0381FF2BC040913B0450913C04609156
:103B80003D0470913E04D301C201CE96A11DB11D2A
:103B9000841B950BA60BB70B181619061A061B06E5
:103BA00014F40E94E80C80913B0490913C04A09195
:103BB0003D04B0913E048C019D010E531109210971
:103BC000310909831A832B833C8304C019821A822A
:103BD0001B821C8220915F03309160033A8B298BFA
:103BE000C9018C739927892B09F4CEC3190134E2DA
:103BF0002322332449895A8953FFBAC06091530361
:103C0000709154037A876987809163038F7021E0F4
:103C100030E0D90102C0AA0FBB1F8A95E2F7BC872A
:103C2000AB87AFE093018201005C1C4D214F3C4B00
:103C30000D871E872F87388BCD84DE84EF84F8882C
:103C4000E8EBF2E080E090E0B0E02A2F30E0A9015C
:103C5000082E02C0559547950A94E2F740FF12C01E
:103C6000478D50A161A172A146015701841A950A9E
:103C7000A60AB70A181419041A041B041CF4B82F56
:103C80006A017B01019638968430910501F72B2F4C
:103C900030E03E832D83890163E0000F111F6A9598
:103CA000E1F7F801E854FD4F268D90E18B2E912C21
:103CB000A12CB12C81E0820F803110F081EF820FB6
:103CC000282F30E041E050E0082E02C0440F551F7D
:103CD0000A94E2F769857A8546235723452B41F1FB
:103CE000F901EE0FFF1FED5CFC4F408151816B85A8
:103CF0007C8546235723452BD9F0220F331F220FF3
:103D0000331FF901E854FD4F43AD54AD65AD76ADB9
:103D1000437055276627772784169506A606B706AB
:103D200039F4F801E854FD4F868F8093550310C095
:103D3000915011F0282FBECF81E090E00D8002C09D
:103D4000880F991F0A94E2F78095A82309F074CF91
:103D5000C092B802D092B902E092BA02F092BB02CD
:103D600089899A89977F9093600380935F0308C045
:103D7000C090B802D090B902E090BA02F090BB02B5
:103D80002091560380915F0390916003211102C03E
:103D900090FF12C04091570350915803609159030E
:103DA00070915A0397018601041B150B260B370BE4
:103DB00037FF02C06A017B019C012270332781FF1B
:103DC00027C02114310429F44CE65CED62E070E078
:103DD00004C042EA5AE464E070E04C0D5D1D6E1DC3
:103DE0007F1D89809A80AB80BC80481959096A0977
:103DF0007B09141615061606170654F440E1C50192
:103E0000B40166537D4F8E4F9F4F0E94B012BFC2C8
:103E1000B301A201425C5F4F6F4F7F4F46015701D4
:103E2000841A950AA60AB70AB7FEA1C29090630346
:103E3000232809F444C085FF0FC080916503815099
:103E400048F0E92DF0E0ED51FE4F90819F3FB9F32E
:103E50009A94F5CF80EC01C080E08093F9038AEF5B
:103E600093E00E94920A82E094E00E949B0A909163
:103E7000A3038091A40390930A0480930B0484E528
:103E800094E00E94A40A43E150E069EF73E08AE005
:103E90000E948928AB01BC018CE094E00E940417C9
:103EA00087E18093F8038091A3039091A403019686
:103EB0009093A4038093A3038CEF96E1DCC140911F
:103EC000C9035091CA036091CB037091CC03403871
:103ED0005F4F6F4F7F4FF0F06BEC77E28BEC92E02F
:103EE00062960FB6F894DEBF0FBECDBFDF91CF91C3
:103EF0001F910F91FF90EF90DF90CF90BF90AF9008
:103F00009F908F907F906F905F904F903F902F90F9
:103F10000C940F0B2091F50321110DC04091CD039E
:103F20005091CE036091CF037091D0034F3F5F4F0C
:103F30006F4F7F4F89F29C01287133272031310563
:103F400021F080906E038D8201C01D82827094707A
:103F50008230944089F480E1809301048091E603EB
:103F600010E1819FC00111249091E503892B80937A
:103F700002040AE010E002C008E010E08091DA03D9
:103F8000882349F0F801E750FC4F84E080830F5FFD
:103F90001F4F1092DA034091E103442379F0C801E6
:103FA00088549D4FFC01EF5BFE4F55E050833196E6
:103FB000437040830E5F1F4F1092E1038091D7033F
:103FC000882399F0C80188549D4FFC01EF5BFE4F98
:103FD00046E0408331964FEF408331964091D503C0
:103FE00040830D5F1F4F1092D7034091D6034423A7
:103FF00079F0C80188549D4FFC01EF5BFE4F53E000
:1040000050833196477040830E5F1F4F1092D60346
:104010008091E303882339F0F801E750FC4F82E1F7
:1040200080830F5F1F4F8091D303882339F08091E5
:10403000D20387FD1092D2031092D3034091E40380
:10404000442379F0C80188549D4FFC01EF5BFE4F7B
:1040500051E150833196417040830E5F1F4F1092A3
:10406000E4034091DB03442379F0C80188549D4F59
:10407000FC01EF5BFE4F57E0508331964370408365
:104080000E5F1F4F1092DB032031310521F04D816F
:104090004B5F498302C054E05983402F8980800ED2
:1040A0008982582D513430F4FF24F39420313105A6
:1040B00031F404C094E0892E800E8982F12C80E4D2
:1040C0008093F9039091D1032091D803292B9091EB
:1040D000D2039095892F881F8827881F8295880F83
:1040E000880F807C98EF940F922B892B8093FE038E
:1040F0004091C5035091C6036091C7037091C803F6
:104100008AEF93E00E947B152091F503211113C0E3
:104110008091CD039091CE03A091CF03B091D003B5
:104120000196A11DB11D8093CD039093CE03A09362
:10413000CF03B093D0038091CD039091CE0301972C
:104140008093FF03909300041092D103FF2009F4A1
:1041500043C080916D03882341F080E88093F90388
:10416000211103C081E08093F503F801E750FC4F73
:1041700080916C038083980126503C4F69018D80AB
:10418000A82CB12CA5016FE673E0C9010E941F3471
:1041900080916C03882319F085EB93E002C085EAD7
:1041A00093E0A114B104C1F00091CD031091CE03AE
:1041B0002091CF033091D003015011092109310919
:1041C0004091C5035091C6036091C7037091C80325
:1041D000E12CF12C0E9481158980082D10E00450FB
:1041E0001109C090CD03D090CE03E090CF03F090A2
:1041F000D00321E0C21AD108E108F1084091C503BB
:104200005091C6036091C7037091C803E4E0F5E0E4
:10421000DF01E0E18E2E1D928A94E9F789E4809314
:10422000040510920905009313058AE095E00E94A9
:104230007B15B701A6018EE095E00E947B15E5EAAB
:10424000F3E0A4E5B4E080E1A82E01900D92AA94D9
:10425000E1F7A80169EF73E082E00E948928AB01D1
:10426000BC01C80187509C4F0E940417898080922E
:10427000F80381EF96E19093D2028093D102E92D69
:10428000F0E0ED51FE4F21812F798091640300E22F
:10429000809FC0011124822B9093C7028093C60295
:1042A0009092C90220915F03309160032F76367F90
:1042B000206838603093600320935F03E0915503DA
:1042C00014E0E19FF0011124E854FD4F83AC94AC5D
:1042D000A5ACB6AC6091F8030E94E2176B017C01BB
:1042E000D501C40183709927AA27BB272CEF82220E
:1042F0008092C0029092C102A092C202B092C30208
:1043000043E0880F991F4A95E1F7FC01E854FD4FFF
:10431000858D8093CA02A38DB48DA70196010E945A
:104320005832DC01CB01840D951DA61DB71D878F6A
:1043300090A3A1A3B2A380915603882399F004C04F
:10434000CC0CDD1CEE1CFF1C8A95D2F7C40CD51CCE
:10435000E61CF71CC0925703D0925803E092590311
:10436000F0925A0381E10E941F2381E0B8C0232B01
:1043700009F4DCC0C114D104E104F10459F4C12CE6
:10438000D12C7601C39406C0398931FF3FC1C12CBD
:10439000D12C760180915F039091600391FF65C0FD
:1043A000B301A201425C5F4F6F4F7F4F4D835E832D
:1043B0006F8378874091ED035091EE036091EF0396
:1043C0007091F003DB01CA018D809E80AF80B884BC
:1043D00088199909AA09BB09B7FF9BC01091E70387
:1043E00017FD43C0E1E0F0E00090E60302C0EE0FED
:1043F000FF1F0A94E2F71E0F1093E70317FD35C065
:10440000A12FB0E020E038E94AE350E00E945832A2
:10441000DC01CB0127E0B595A795979587952A955F
:10442000D1F78090E9039090EA03A090EB03B0905D
:10443000EC03880E991EAA1EBB1E82E08E0F6091AF
:10444000E503810F0E949B11861A970AA80AB90AF0
:104450008092ED039092EE03A092EF03B092F003EE
:104460008091C8028093E803A5CFC114D104E10470
:10447000F10461F0D701C60189809A80AB80BC80CD
:1044800088199909AA09BB09B7FD50C00E940A12F0
:1044900080913A048093C80280913B0490913C043F
:1044A000A0913D04B0913E048093BC029093BD0264
:1044B000A093BE02B093BF02D301C20189809A804B
:1044C000AB80BC8088199909AA09BB09B7FD52C005
:1044D00084E893E29093D2028093D10282E06296C4
:1044E0000FB6F894DEBF0FBECDBFDF91CF911F9105
:1044F0000F91FF90EF90DF90CF90BF90AF909F9083
:104500008F907F906F905F904F903F902F900C9482
:10451000E410C114D104E104F10499F1D701C601FA
:10452000841B950BA60BB70BB7FF2BC0B701A601D9
:104530004E535109610971092FE536E28BEC92E087
:1045400062960FB6F894DEBF0FBECDBFDF91CF915C
:104550001F910F91FF90EF90DF90CF90BF90AF90A1
:104560009F908F907F906F905F904F903F902F9093
:104570000C94350B2CE233E149815A816B817C81AB
:10458000DDCF8091E8038093C8024093BC02509332
:10459000BD026093BE027093BF028091F1039091BF
:1045A000F203A091F303B091F4038093C0029093BF
:1045B000C102A093C202B093C302E091E503F0E010
:1045C000ED51FE4F818190E08F7780689093C70214
:1045D0008093C6021092F8034419550966097709B9
:1045E000423C5F4F6F4F7F4F14F40E94E80C4091A4
:1045F000BC025091BD026091BE027091BF024E5349
:1046000051096109710925E333E198CF62960FB62C
:10461000F894DEBF0FBECDBFDF91CF911F910F91F8
:10462000FF90EF90DF90CF90BF90AF909F908F90D2
:104630007F906F905F904F903F902F9008950E94D1
:10464000B00A0C94671D80E00E94E4108BEC92E0AD
:104650000E94FC0A8091F80381110BC080915F03D6
:10466000909160038C7F9093600380935F0381E05F
:1046700049C00E942717181619069CF01092F803DB
:1046800083E00E94E41040913F0450914004609107
:1046900041047091420423E233E28BEC92E00C94EB
:1046A000350B109267031092660310926B03109201
:1046B0006A031092E203809145048C608093450464
:1046C0008BE080933A0480913F0490914004A09144
:1046D0004104B0914204805C974FA24CBF4F80933D
:1046E0003B0490933C04A0933D04B0933E0480911E
:1046F0005F03909160038E7F82609093600380934C
:104700005F0382E00C941F23CF92DF92EF92FF921F
:10471000CF938091F803882309F47BC0C0903F04B5
:10472000D0904004E0904104F0904204C0914504D0
:104730000E942717181619060CF06BC0C370C9F435
:104740008BE080933A0480913F0490914004A091C3
:104750004104B0914204805C974FA24CBF4F8093BC
:104760003B0490933C04A0933D04B0933E04C4E00A
:10477000DAC027EFD21A80913F0490914004C81A02
:10478000D90A6091E203662379F0209166033091A3
:104790006703C601821B930B70E06F5F7F4F0E941F
:1047A00002326901C60ED71E2091450422FD1DC0AC
:1047B00080916603909167038C199D0997FF03C050
:1047C0009195819591099093690380936803409135
:1047D0006A0350916B034817590724F490936B03B5
:1047E00080936A03277F20934504D0926703C09289
:1047F0006603109265031092E20380914504982F9E
:104800009B7F90934504837009F069C00E94E80C77
:1048100066C0C0906603D09067030D2C000CEE08B4
:10482000FF0880E099E0ADE3B0E0AC01BD014C19B8
:104830005D096E097F0980913F0490914004A09129
:104840004104B0914204840F951FA61FB71F8093A7
:104850003F0490934004A0934104B0934204C0905D
:104860004604D0904704E0904804F090490420E8C2
:10487000C20ED11CE11CF11CC0924604D092470428
:10488000E0924804F09249042091E2032F5F2093C4
:10489000E203BC01CD0166537D4F8E4F9F4F44E034
:1048A0000E94B0128091E203853148F080915F034D
:1048B0009091600380629093600380935F03809186
:1048C0003A04853670F080915F03909160038D7D8E
:1048D000997F9093600380935F038BE02CC0C4E0CA
:1048E00001C0C3E0C0903F04D0904004E090410478
:1048F000F090420489E0D80E8DE3E81EF11C63E0DD
:1049000080E00E949B11C61AD70AE80AF90AC092F1
:104910003B04D0923C04E0923D04F0923E0480912E
:10492000C80280933A0480915F039091600391FDE7
:104930000E94C8158C2FCF91FF90EF90DF90CF9001
:104940000C941F23CF92DF92EF92FF920F931F934D
:10495000CF93DF938091F603813031F48091F80397
:10496000811102C00E94E80C80915F0387FF0E94C2
:10497000E80C1091F80311118FC080915F039091A2
:10498000600382FD15C085FF0E94E80C80915F03E3
:10499000909160038F759093600380935F03809183
:1049A00065038A3018F48F5F8093650389E05CC1EA
:1049B000209155032F5F263019F02093550302C034
:1049C000109255032091F5032F5F2093F50320FDEE
:1049D0000EC020916303222361F0E22FF0E0ED513D
:1049E000FE4F30813F3F09F0215020936303C0E028
:1049F00001C0C1E08F77977F9093600380935F033E
:104A00000E94FA0A6B017C018091D7029091D80232
:104A1000A091D902B091DA02B701A601481B590B47
:104A20006A0B7B0B77FF02C06C017D018FEF90E07A
:104A30000090630302C0959587950A94E2F70E945F
:104A40006E12DC01CB018A5C9149AE4FBF4FC80E9C
:104A5000D91EEA1EFB1EC092B802D092B902E092A3
:104A6000BA02F092BB02CC2ED12CE12CF12CC11158
:104A700003C0CFE5D6E202C0C9E5D6E20E94FA0A39
:104A8000AB01BC014C0D5D1D6E1D7F1D9E018BECAD
:104A900092E00E94350BEAC0113141F0113231F041
:104AA0008091F60380FF69CF80E0E1C08091F90337
:104AB000837E8032A9F7C12FD0E084E594E00E9484
:104AC000A40AAE01415051096AEF73E080E00E94F0
:104AD000892884E594E00E94A40A2497AE0169EF36
:104AE00073E08AE00E9489286B017C01CE01875027
:104AF0009C4F0E945315C616D706E806F90681F6A4
:104B000080E094E00E9427156093C5037093C6036C
:104B10008093C7039093C8038DEF93E00E942715FD
:104B2000DC01CB01BB2780935B0390935C03A093D4
:104B30005D03B0935E0380E00E94D313123108F04E
:104B400049C08091A3039091A403019720E1E5EA75
:104B5000F3E0DF01322F1D923A95E9F731E030930F
:104B6000A50336E0EAEFF3E0A6EAB3E001900D9288
:104B70003A95E1F78093AC039093AD03E5EAF3E057
:104B8000A5EBB3E001900D922A95E1F782E08093C6
:104B9000B50384E594E00E94A40A40E150E065EA90
:104BA00073E080E00E94892884E594E00E94A40AD2
:104BB00040E150E065EB73E080E00E94892880913D
:104BC0005F039091600384729927892BF9F40E9406
:104BD000E80C1CC086E0E82E84E0F82EC3E0C70194
:104BE0000E943515AB01BC014115510561057105E8
:104BF00031F00FEF20E030E08C2F0E94A718CF5F3C
:104C000083E0E80EF11CC83051F79BCF80915F0321
:104C10009091600385FF11C030916503209163037B
:104C2000315048F0E22FF0E0ED51FE4F40814F3F10
:104C3000B9F32150F5CF2093630389759D7F90933D
:104C4000600380935F031092F5030E942812809105
:104C500004048F708093DC0380910504811101C0EE
:104C600081E08093D40386E00E941F2381E0DF91DE
:104C7000CF911F910F91FF90EF90DF90CF9008950B
:104C80008091F803811108C044E853E16CE67CEDA3
:104C900082E090E00C94EC120E94A2248823A1F3FD
:104CA00008958091F803811102C01092F6030C94CC
:104CB000A22488E00C941F2385E00C941F230C94FD
:104CC000671D8091F803882351F084E08093F603F8
:104CD0000E942F19882319F08DE00C941F230C9447
:104CE000671D80915F0387FF0E94E80C8091F803A5
:104CF000811198C0E091F503EE2391F1E83070F551
:104D0000EF5FE093F503F0E0EC54FE4F908180916B
:104D10006303915048F0E82FF0E0ED51FE4F208101
:104D20002F3FB9F38150F5CF60E80E94561460918F
:104D3000BC027091BD028091BE029091BF0243E01F
:104D40000E94B01280915F03909160038F779093DF
:104D5000600380935F030E94671D62C080E601C00C
:104D600080E28093F6038091D203803819F08F5F40
:104D70008093D2031092F8031092F70380915F039F
:104D8000909160039C0127773093600320935F0329
:104D90002091F603277059F094FF09C087779F7E12
:104DA0009093600380935F038FE00E941F238AE04B
:104DB0000E941F238091D2038931ECF0809163031C
:104DC000E82FF0E0ED51FE4F90819F3F09F08150B8
:104DD00060E80E9456148CE08093D20380915F03B8
:104DE00090916003806290619093600380935F0371
:104DF0008EE00E941F238091E303882389F0909125
:104E00005F0391FF06C082E00E941F231092E3031C
:104E100007C081508093E303811102C00E948C136C
:104E200081E008950E942F198111A8CF9091F60377
:104E300090FF60CF08958091F80381110CC0A0917C
:104E4000D403B0E0119622E13AE70E9451324CE7D8
:104E500053E10C94EC120E947126882381F308958B
:104E6000CF92DF92EF92FF928091F803811120C0E0
:104E70001092F6030E94FA0A6B017C0182E00E9404
:104E80006E1226E3C20E2EE6D21E21E0E21EF11CB7
:104E9000AB01BC014C0D5D1D6E1D7F1D2EE537E283
:104EA0008BEC92E0FF90EF90DF90CF900C94350B5D
:104EB000FF90EF90DF90CF900C9471260C947126A8
:104EC000EFE5F3E0808191818C7F91838083109264
:104ED000E3030C94671D811180E88093D803089543
:104EE0000C9456148BEC92E00E94FC0A80E00E9425
:104EF000E410EFE5F3E08081918180649183808309
:104F00000895CF9380E00E94E4108BEC92E00E9421
:104F1000FC0A8CE991E0E8EBF2E0DF019C011D92D4
:104F200021503040E1F70E940B10C82F0E940B1057
:104F30002C2F30E0322F2227282B3093A4032093EC
:104F4000A3031092600310925F031092640380E841
:104F50008093D8031092DC0388E096EEA3EDB3E3D0
:104F60008093DD039093DE03A093DF03B093E0030F
:104F700021E02093D4038093F1039093F203A09354
:104F8000F303B093F40383E08093E5038FEF809302
:104F9000E603CF9108950E9481270E94F31C8CE0C4
:104FA0000C941F2380E490E09093600380935F0350
:104FB000089580915F03909160039C012776309360
:104FC000600320935F0310926E0385709927892BED
:104FD00049F48BEC92E00E94FC0A80E00E94E4100D
:104FE0000C94671D089580915F03909160039C016C
:104FF00028603093600320935F0382FF1092F503D3
:105000000C94671D1F93CF93DF934533B0F4122F99
:10501000C42FD82F6115710529F050E08FE693E079
:105020000E941F3410936D03D0936C03C0936E03E2
:105030000E94F32780E090E002C08EEF9FEFDF91A7
:10504000CF911F910895EFE5F3E080819181806118
:10505000918380830C94671DEFE5F3E0808191815B
:105060008062918380830C94671DEF92FF920F936F
:105070001F9360935B0370935C0380935D03909335
:105080005E032093C5033093C6034093C703509338
:10509000C8030115110541F080E1F801A5EAB3E06C
:1050A00001900D928A95E1F7E114F10441F080E15D
:1050B000F701A5EBB3E001900D928A95E1F780E04E
:1050C0000E94D31380915F039091600389759D7F47
:1050D00098609093600380935F031F910F91FF90FE
:1050E000EF900C9428121092D303811102C080E833
:1050F00001C084EF8093D2030895660F771F660F77
:10510000771F860F971FFC0165917591859194918A
:1051100008952F923F924F925F926F927F928F925B
:105120009F92AF92BF92CF92DF92EF92FF920F9336
:105130001F93CF93DF93CDB7DEB7AB970FB6F8943D
:10514000DEBF0FBECDBF898B7BA76AA71A0104E51E
:1051500014E01A87098724E634E0F8016081718140
:10516000828193810E943B326193719381939193E9
:105170002E173F0799F78091600490916104A091E8
:105180006204B091630404E010E0980123703327B7
:10519000232B81F5EA2FF0E0E657FF4E24912A8B6E
:1051A000E92FF0E0E657FF4E34913D87E82FF0E01D
:1051B000E657FF4E44914E8B8B2F9927AA27BB278A
:1051C000FC01E657FF4E54915A8FB80164507109A3
:1051D00075956795759567958AE891E10E947D2898
:1051E000DC01CB01EA8D8E27FA89BF272D85A22706
:1051F0003E899327E985FA85419151916191719199
:10520000FA87E98784279527A627B7278487958774
:10521000A687B7870F5F1F4F0C32110509F0B5CF76
:10522000098903FF21C010921005109211051092F8
:1052300012051092130510920C0510920D05109294
:105240000E0510920F051092080510920905109294
:105250000A0510920B051092040510920505109294
:1052600006051092070577C0609104057091050549
:1052700080910605909107050E943B3260930405DA
:1052800070930505809306059093070560910805C6
:105290007091090580910A0590910B050E943B329F
:1052A000609308057093090580930A0590930B0598
:1052B00060910C0570910D0580910E0590910F0580
:1052C0000E943B3260930C0570930D0580930E0590
:1052D00090930F0560911005709111058091120552
:1052E000909113050E943B32609310057093110555
:1052F00080931205909313052EC029813A814B812A
:105300005C81209304053093050540930605509376
:105310000705C0920805D0920905E0920A05F092AF
:105320000B0540920C0550920D0560920E0570928F
:105330000F058092100590921105A0921205B0926F
:10534000130509891D821E821F82188603FDD1C69E
:1053500009890860098B12140CF0D5C6198912FD51
:1053600004C011FF19C613FD25C02091040530911A
:105370000505409106055091070529833A834B8323
:105380005C83C0900805D0900905E0900A05F09074
:105390000B0540900C0550900D0560900E05709027
:1053A0000F058090100590901105A0901205B09007
:1053B00013059DC031E12316310408F0EDC540E12D
:1053C0002416310411F480E101C080E20989082B20
:1053D000098B812C912C5401412C512C3201C12C70
:1053E000D12C760119821A821B821C8280C04D81C9
:1053F0005E816F817885762F652F542F44274D83EA
:105400005E836F83788709851A852B853C85801795
:105410009107A207B30708F0CCC5408150E060E0D7
:1054200070E00D811E812F813885042B152B262BD2
:10543000372B0D831E832F833887AC01BD0143704A
:10544000552766277727433051056105710551F4CB
:10545000C982DA82EB82FC82730162012401350188
:10546000480159010196A11DB11D31968031910568
:10547000A105B10509F0BBCF198911FF38C0809192
:10548000040590910505A0910605B09107052981B5
:105490003A814B815C81282739274A275B2729835A
:1054A0003A834B835C838091080590910905A09114
:1054B0000A05B0910B05C826D926EA26FB2680915D
:1054C0000C0590910D05A0910E05B0910F05482691
:1054D00059266A267B268091100590911105A0918E
:1054E0001205B091130588269926AA26BB2680911D
:1054F000540490915504A0915604B09157044981E9
:105500005A816B817C81482759276A277B274983E9
:105510005A836B837C838091580490915904A091A5
:105520005A04B0915B0497018601082719272A279E
:105530003B270D831E832F83388780915C049091D5
:105540005D04A0915E04B0915F04A301920128273D
:1055500039274A275B2729873A874B875C878091C1
:10556000600490916104A0916204B0916304B5015C
:10557000A401482759276A277B274A8B5B8B6C8BB2
:105580007D8B04E514E0D80154966D917D918D9149
:105590009C9157976D877E878F87988B58962D9112
:1055A0003D914D915C915B972E8B3F8B488F598F2E
:1055B0005C962D913D914D915C915F972A8F3B8F29
:1055C0004C8F5D8F50962D913D914D915C915397ED
:1055D0002E8F3F8F48A359A3B9816B2F70E08AE8C3
:1055E00090E00E947D286AA37BA38CA39DA3EA81FF
:1055F0006E2F70E08AE894E00E947D282B013C0128
:10560000FB816F2F70E08AE898E00E947D284B01B3
:105610005C0129813A814B815C81652F772788273E
:1056200099278AE89CE00E947D286B017C013D81DE
:10563000632F70E08AE890E00E947D28A301920128
:1056400026273727482759272EA33FA348A759A71E
:105650003E81632F70E08AE894E00E947D288626D0
:105660009726A826B9264F81642F70E08AE898E033
:105670000E947D28C626D726E826F9262D813E8160
:105680004F815885652F7727882799278AE89CE0DE
:105690000E947D284AA05BA06CA07DA046265726CC
:1056A000682679263985632F70E08AE890E00E94A9
:1056B0007D289B01AC01282539254A255B252983B6
:1056C0003A834B835C833A85632F70E08AE894E0E9
:1056D0000E947D28C626D726E826F9264B85642F0A
:1056E00070E08AE898E00E947D284B015C018424E8
:1056F0009524A624B72429853A854B855C85652F9A
:105700007727882799278AE89CE00E947D284EA069
:105710005FA068A479A446265726682679263A8988
:10572000632F70E08AE890E00E947D28C626D72685
:10573000E826F9264E8D5F8D68A179A1C426D5266D
:10574000E626F7265B89652F70E08AE894E00E94E0
:105750007D28DC01CB0188259925AA25BB252D852F
:105760003E854F855889282739274A275B272D876B
:105770003E874F87588B3C89632F70E08AE898E01A
:105780000E947D2846265726682679264E895F89FD
:10579000688D798D44255525662577254E8B5F8B41
:1057A000688F798F2A893B894C895D89652F772796
:1057B000882799278AE89CE00E947D2889809A8022
:1057C000AB80BC8086269726A826B9264A8D5B8D9D
:1057D0006C8D7D8D482559256A257B254A8F5B8FE9
:1057E0006C8F7D8FD80194966D917D918D919C9158
:1057F00097976D837E838F83988798962D913D919F
:105800004D915C919B9729873A874B875C879C9643
:105810002D913D914D915C919F972A8B3B8B4C8BA9
:105820005D8B90962D913D914D915C91939729833D
:105830003A834B835C836C2D70E08AE890E00E9491
:105840007D286E8F7F8F88A399A36D2D70E08AE8E5
:1058500094E00E947D282B013C016E2D70E08AE8C7
:1058600098E00E947D284B015C016F2D77278827E7
:1058700099278AE89CE00E947D286B017C01BD8508
:105880006B2F70E08AE890E00E947D28A3019201CE
:1058900026273727482759272AA33BA34CA35DA3D4
:1058A0003E85632F70E08AE894E00E947D28240101
:1058B000350146265726682679264F85642F70E0E5
:1058C0008AE898E00E947D28C626D726E826F92691
:1058D0002D853E854F855889652F772788279927FD
:1058E0008AE89CE00E947D288E8C9F8CA8A0B9A09D
:1058F00086269726A826B9263E89632F70E08AE877
:1059000090E00E947D289B01AC0124253525462589
:1059100057252D873E874F87588B3F89632F70E02F
:105920008AE894E00E947D28C626D726E826F92634
:10593000488D642F70E08AE898E00E947D288626D2
:105940009726A826B9262E893F89488D598D652F1F
:105950007727882799278AE89CE00E947D284AA01B
:105960005BA06CA07DA046265726682679263A8D36
:10597000632F70E08AE890E00E947D28C626D72633
:10598000E826F92649815A816B817C814C255D2569
:105990006E257F2549835A836B837C835B8D652FBE
:1059A00070E08AE894E00E947D28DC01CB01882524
:1059B0009925AA25BB252D813E814F815885282711
:1059C00039274A275B272D833E834F8358873C8D99
:1059D000632F70E08AE898E00E947D2846265726CB
:1059E0006826792649855A856B857C854425552509
:1059F0006625772549875A876B877C872A8D3B8D5B
:105A00004C8D5D8D652F7727882799278AE89CE044
:105A10000E947D288D849E84AF84B8888626972630
:105A2000A826B9264A895B896C897D89482559252C
:105A30006A257B254A8B5B8B6C8B7D8B005E1F4FB1
:105A400054E0043D150709F09ECD6091E804709183
:105A5000E9048091EA049091EB046A8F7B8F8C8F2C
:105A60009D8F8091EC049091ED04A091EE04B09193
:105A7000EF048E8B9F8BA88FB98F0091F00410914B
:105A8000F1042091F2043091F3040D871E872F87D3
:105A9000388B2091E4043091E5044091E604509164
:105AA000E7042E8F3F8F48A359A33981632F70E0FD
:105AB0008AE890E00E947D286AA37BA38CA39DA323
:105AC0004A81642F70E08AE894E00E947D282B01CF
:105AD0003C015B81652F70E08AE898E00E947D2898
