:100000000C94D9080C94FC0D0C94F6080C94F6088A
:100010000C94F6080C94F6080C94F6080C94F60868
:100020000C94F6080C94F6080C94F6080C94F60858
:100030000C94F6080C94F6080C94F6080C94F60848
:100040000C94AB0D0C94F6080C94F6080C94F6087E
:100050000C94D00D0C94F6080C94F6080C94F60849
:100060000C94F6080C94F6080E1B141BC41B911B71
:10007000881BEA1BC31CC31CC31CC31CC31CC31C9E
:10008000C31CC31CC31C2E1C4C1CC6A56363F88474
:100090007C7CEE997777F68D7B7BFF0DF2F2D6BDF7
:1000A0006B6BDEB16F6F9154C5C560503030020389
:1000B0000101CEA96767567D2B2BE719FEFEB562BD
:1000C000D7D74DE6ABABEC9A76768F45CACA1F9D63
:1000D00082828940C9C9FA877D7DEF15FAFAB2EBB1
:1000E00059598EC94747FB0BF0F041ECADADB367F2
:1000F000D4D45FFDA2A245EAAFAF23BF9C9C53F7C7
:10010000A4A4E49672729B5BC0C075C2B7B7E11C31
:10011000FDFD3DAE93934C6A26266C5A36367E41E1
:100120003F3FF502F7F7834FCCCC685C343451F491
:10013000A5A5D134E5E5F908F1F1E2937171AB734E
:10014000D8D8625331312A3F1515080C0404955252
:10015000C7C7466523239D5EC3C33028181837A13F
:1001600096960A0F05052FB59A9A0E0907072436A9
:1001700012121B9B8080DF3DE2E2CD26EBEB4E6945
:1001800027277FCDB2B2EA9F7575121B09091D9E04
:10019000838358742C2C342E1A1A362D1B1BDCB278
:1001A0006E6EB4EE5A5A5BFBA0A0A4F65252764D86
:1001B0003B3BB761D6D67DCEB3B3527B2929DD3E1A
:1001C000E3E35E712F2F13978484A6F55353B96828
:1001D000D1D100000000C12CEDED40602020E31FD4
:1001E000FCFC79C8B1B1B6ED5B5BD4BE6A6A8D46E2
:1001F000CBCB67D9BEBE724B393994DE4A4A98D40C
:100200004C4CB0E85858854ACFCFBB6BD0D0C52AEC
:10021000EFEF4FE5AAAAED16FBFB86C543439AD73D
:100220004D4D66553333119485858ACF4545E91088
:10023000F9F904060202FE817F7FA0F05050784455
:100240003C3C25BA9F9F4BE3A8A8A2F351515DFE09
:10025000A3A380C04040058A8F8F3FAD929221BCFE
:100260009D9D70483838F104F5F563DFBCBC77C15B
:10027000B6B6AF75DADA4263212120301010E51AE4
:10028000FFFFFD0EF3F3BF6DD2D2814CCDCD18141C
:100290000C0C26351313C32FECECBEE15F5F35A2C7
:1002A000979788CC44442E3917179357C4C455F2F6
:1002B000A7A7FC827E7E7A473D3DC8AC6464BAE75E
:1002C0005D5D322B1919E6957373C0A060601998B3
:1002D00081819ED14F4FA37FDCDC44662222547E75
:1002E0002A2A3BAB90900B8388888CCA4646C72944
:1002F000EEEE6BD3B8B8283C1414A779DEDEBCE26E
:100300005E5E161D0B0BAD76DBDBDB3BE0E064567F
:100310003232744E3A3A141E0A0A92DB49490C0AE8
:100320000606486C2424B8E45C5C9F5DC2C2BD6EC6
:10033000D3D343EFACACC4A6626239A8919131A487
:100340009595D337E4E4F28B7979D532E7E78B439F
:10035000C8C86E593737DAB76D6D018C8D8DB164B1
:10036000D5D59CD24E4E49E0A9A9D8B46C6CACFA54
:100370005656F307F4F4CF25EAEACAAF6565F48E62
:100380007A7A47E9AEAE101808086FD5BABAF08885
:1003900078784A6F25255C722E2E38241C1C57F164
:1003A000A6A673C7B4B49751C6C6CB23E8E8A17C10
:1003B000DDDDE89C74743E211F1F96DD4B4B61DC34
:1003C000BDBD0D868B8B0F858A8AE09070707C4254
:1003D0003E3E71C4B5B5CCAA666690D848480605BD
:1003E0000303F701F6F61C120E0EC2A361616A5FE9
:1003F0003535AEF9575769D0B9B9179186869958EE
:10040000C1C13A271D1D27B99E9ED938E1E1EB13E2
:10041000F8F82BB3989822331111D2BB6969A970EF
:10042000D9D907898E8E33A794942DB69B9B3C22F5
:100430001E1E15928787C920E9E98749CECEAAFFFB
:10044000555550782828A57ADFDF038F8C8C59F812
:10045000A1A1098089891A170D0D65DABFBFD731AF
:10046000E6E684C64242D0B8686882C3414129B0FA
:1004700099995A772D2D1E110F0F7BCBB0B0A8FC88
:1004800054546DD6BBBB2C3A161663C6A5637CF8D4
:10049000847C77EE99777BF68D7BF2FF0DF26BD63D
:1004A000BD6B6FDEB16FC59154C530605030010235
:1004B000030167CEA9672B567D2BFEE719FED7B542
:1004C00062D7AB4DE6AB76EC9A76CA8F45CA821FEF
:1004D0009D82C98940C97DFA877DFAEF15FA59B224
:1004E000EB59478EC947F0FB0BF0AD41ECADD4B3EF
:1004F00067D4A25FFDA2AF45EAAF9C23BF9CA45383
:10050000F7A472E49672C09B5BC0B775C2B7FDE1F9
:100510001CFD933DAE93264C6A26366C5A363F7EC0
:10052000413FF7F502F7CC834FCC34685C34A551DA
:10053000F4A5E5D134E5F1F908F171E29371D8AB96
:1005400073D831625331152A3F1504080C04C7953E
:1005500052C723466523C39D5EC3183028189637BB
:10056000A196050A0F059A2FB59A070E09071224BE
:100570003612801B9B80E2DF3DE2EBCD26EB274E5F
:100580006927B27FCDB275EA9F7509121B09831DD9
:100590009E832C58742C1A342E1A1B362D1B6EDC9D
:1005A000B26E5AB4EE5AA05BFBA052A4F6523B7650
:1005B0004D3BD6B761D6B37DCEB329527B29E3DD5F
:1005C0003EE32F5E712F8413978453A6F553D1B960
:1005D00068D100000000EDC12CED20406020FCE35C
:1005E0001FFCB179C8B15BB6ED5B6AD4BE6ACB8D36
:1005F00046CBBE67D9BE39724B394A94DE4A4C9815
:10060000D44C58B0E858CF854ACFD0BB6BD0EFC59B
:100610002AEFAA4FE5AAFBED16FB4386C5434D9A88
:10062000D74D3366553385119485458ACF45F9E911
:1006300010F9020406027FFE817F50A0F0503C7842
:10064000443C9F25BA9FA84BE3A851A2F351A35D58
:10065000FEA34080C0408F058A8F923FAD929D21BE
:10066000BC9D38704838F5F104F5BC63DFBCB67743
:10067000C1B6DAAF75DA2142632110203010FFE5F0
:100680001AFFF3FD0EF3D2BF6DD2CD814CCD0C1805
:10069000140C13263513ECC32FEC5FBEE15F9735C6
:1006A000A2974488CC44172E3917C49357C4A75532
:1006B000F2A77EFC827E3D7A473D64C8AC645DBA99
:1006C000E75D19322B1973E6957360C0A06081193C
:1006D00098814F9ED14FDCA37FDC224466222A54AE
:1006E0007E2A903BAB90880B8388468CCA46EEC727
:1006F00029EEB86BD3B814283C14DEA779DE5EBCB3
:10070000E25E0B161D0BDBAD76DBE0DB3BE032641B
:1007100056323A744E3A0A141E0A4992DB49060CC4
:100720000A0624486C245CB8E45CC29F5DC2D3BD59
:100730006ED3AC43EFAC62C4A6629139A8919531F7
:10074000A495E4D337E479F28B79E7D532E7C88B07
:1007500043C8376E59376DDAB76D8D018C8DD5B1C1
:1007600064D54E9CD24EA949E0A96CD8B46C56AC65
:10077000FA56F4F307F4EACF25EA65CAAF657AF4CE
:100780008E7AAE47E9AE08101808BA6FD5BA78F07D
:100790008878254A6F252E5C722E1C38241CA6579B
:1007A000F1A6B473C7B4C69751C6E8CB23E8DDA160
:1007B0007CDD74E89C741F3E211F4B96DD4BBD61B0
:1007C000DCBD8B0D868B8A0F858A70E090703E7C35
:1007D000423EB571C4B566CCAA664890D8480306B7
:1007E0000503F6F701F60E1C120E61C2A361356A0D
:1007F0005F3557AEF957B969D0B986179186C19957
:1008000058C11D3A271D9E27B99EE1D938E1F8EB62
:1008100013F8982BB3981122331169D2BB69D9A967
:1008200070D98E07898E9433A7949B2DB69B1E3C5E
:10083000221E87159287E9C920E9CE8749CE55AA9D
:10084000FF5528507828DFA57ADF8C038F8CA159BB
:10085000F8A1890980890D1A170DBF65DABFE6D79F
:1008600031E64284C64268D0B8684182C3419929C2
:10087000B0992D5A772D0F1E110FB07BCBB054A815
:10088000FC54BB6DD6BB162C3A166363C6A57C7CA4
:10089000F8847777EE997B7BF68DF2F2FF0D6B6B28
:1008A000D6BD6F6FDEB1C5C59154303060500101C7
:1008B00002036767CEA92B2B567DFEFEE719D7D71B
:1008C000B562ABAB4DE67676EC9ACACA8F458282AA
:1008D0001F9DC9C989407D7DFA87FAFAEF155959DC
:1008E000B2EB47478EC9F0F0FB0BADAD41ECD4D471
:1008F000B367A2A25FFDAFAF45EA9C9C23BFA4A44F
:1009000053F77272E496C0C09B5BB7B775C2FDFD2A
:10091000E11C93933DAE26264C6A36366C5A3F3F17
:100920007E41F7F7F502CCCC834F3434685CA5A543
:1009300051F4E5E5D134F1F1F9087171E293D8D8B9
:10094000AB733131625315152A3F0404080CC7C735
:10095000955223234665C3C39D5E1818302896968A
:1009600037A105050A0F9A9A2FB507070E0912122B
:10097000243680801B9BE2E2DF3DEBEBCD26272770
:100980004E69B2B27FCD7575EA9F0909121B838348
:100990001D9E2C2C58741A1A342E1B1B362D6E6E6D
:1009A000DCB25A5AB4EEA0A05BFB5252A4F63B3B19
:1009B000764DD6D6B761B3B37DCE2929527BE3E31A
:1009C000DD3E2F2F5E71848413975353A6F5D1D14A
:1009D000B96800000000EDEDC12C20204060FCFC57
:1009E000E31FB1B179C85B5BB6ED6A6AD4BECBCB0D
:1009F0008D46BEBE67D93939724B4A4A94DE4C4C9B
:100A000098D45858B0E8CFCF854AD0D0BB6BEFEF21
:100A1000C52AAAAA4FE5FBFBED16434386C54D4DFB
:100A20009AD7333366558585119445458ACFF9F9B0
:100A3000E910020204067F7FFE815050A0F03C3C8A
:100A400078449F9F25BAA8A84BE35151A2F3A3A3D2
:100A50005DFE404080C08F8F058A92923FAD9D9D84
:100A600021BC38387048F5F5F104BCBC63DFB6B67C
:100A700077C1DADAAF752121426310102030FFFF11
:100A8000E51AF3F3FD0ED2D2BF6DCDCD814C0C0C27
:100A9000181413132635ECECC32F5F5FBEE1979754
:100AA00035A2444488CC17172E39C4C49357A7A73E
:100AB00055F27E7EFC823D3D7A476464C8AC5D5D44
:100AC000BAE71919322B7373E6956060C0A0818173
:100AD00019984F4F9ED1DCDCA37F222244662A2A3C
:100AE000547E90903BAB88880B8346468CCAEEEED2
:100AF000C729B8B86BD31414283CDEDEA7795E5E34
:100B0000BCE20B0B161DDBDBAD76E0E0DB3B3232EB
:100B100064563A3A744E0A0A141E494992DB060694
:100B20000C0A2424486C5C5CB8E4C2C29F5DD3D339
:100B3000BD6EACAC43EF6262C4A6919139A89595A5
:100B400031A4E4E4D3377979F28BE7E7D532C8C82A
:100B50008B4337376E596D6DDAB78D8D018CD5D5D6
:100B6000B1644E4E9CD2A9A949E06C6CD8B45656DB
:100B7000ACFAF4F4F307EAEACF256565CAAF7A7AEE
:100B8000F48EAEAE47E908081018BABA6FD5787877
:100B9000F08825254A6F2E2E5C721C1C3824A6A6D0
:100BA00057F1B4B473C7C6C69751E8E8CB23DDDD6F
:100BB000A17C7474E89C1F1F3E214B4B96DDBDBD8C
:100BC00061DC8B8B0D868A8A0F857070E0903E3ECB
:100BD0007C42B5B571C46666CCAA484890D8030378
:100BE0000605F6F6F7010E0E1C126161C2A335353B
:100BF0006A5F5757AEF9B9B969D086861791C1C1F6
:100C000099581D1D3A279E9E27B9E1E1D938F8F879
:100C1000EB1398982BB3111122336969D2BBD9D940
:100C2000A9708E8E0789949433A79B9B2DB61E1EA8
:100C30003C2287871592E9E9C920CECE87495555D0
:100C4000AAFF28285078DFDFA57A8C8C038FA1A11A
:100C500059F8898909800D0D1A17BFBF65DAE6E6D4
:100C6000D731424284C66868D0B8414182C399995D
:100C700029B02D2D5A770F0F1E11B0B07BCB5454D5
:100C8000A8FCBBBB6DD616162C3AA56363C6847C44
:100C90007CF8997777EE8D7B7BF60DF2F2FFBD6BDA
:100CA0006BD6B16F6FDE54C5C59150303060030113
:100CB0000102A96767CE7D2B2B5619FEFEE762D78E
:100CC000D7B5E6ABAB4D9A7676EC45CACA8F9D8216
:100CD000821F40C9C989877D7DFA15FAFAEFEB5961
:100CE00059B2C947478E0BF0F0FBECADAD4167D46C
:100CF000D4B3FDA2A25FEAAFAF45BF9C9C23F7A48B
:100D0000A453967272E45BC0C09BC2B7B7751CFD5A
:100D1000FDE1AE93933D6A26264C5A36366C413F30
:100D20003F7E02F7F7F54FCCCC835C343468F4A5F2
:100D3000A55134E5E5D108F1F1F9937171E273D869
:100D4000D8AB533131623F15152A0C04040852C741
:100D5000C795652323465EC3C39D28181830A19606
:100D600096370F05050AB59A9A2F0907070E36120E
:100D700012249B80801B3DE2E2DF26EBEBCD69274E
:100D8000274ECDB2B27F9F7575EA1B0909129E836B
:100D9000831D742C2C582E1A1A342D1B1B36B26E40
:100DA0006EDCEE5A5AB4FBA0A05BF65252A44D3B47
:100DB0003B7661D6D6B7CEB3B37D7B2929523EE3CD
:100DC000E3DD712F2F5E97848413F55353A668D10A
:100DD000D1B9000000002CEDEDC1602020401FFCC7
:100DE000FCE3C8B1B179ED5B5BB6BE6A6AD446CBB1
:100DF000CB8DD9BEBE674B393972DE4A4A94D44C8A
:100E00004C98E85858B04ACFCF856BD0D0BB2AEF6A
:100E1000EFC5E5AAAA4F16FBFBEDC5434386D74DA8
:100E20004D9A5533336694858511CF45458A10F91F
:100E3000F9E906020204817F7FFEF05050A0443C95
:100E40003C78BA9F9F25E3A8A84BF35151A2FEA37B
:100E5000A35DC04040808A8F8F05AD92923FBC9DBC
:100E60009D214838387004F5F5F1DFBCBC63C1B68C
:100E7000B67775DADAAF63212142301010201AFFFD
:100E8000FFE50EF3F3FD6DD2D2BF4CCDCD81140C36
:100E90000C18351313262FECECC3E15F5FBEA2974D
:100EA0009735CC4444883917172E57C4C493F2A7FA
:100EB000A755827E7EFC473D3D7AAC6464C8E75D01
:100EC0005DBA2B191932957373E6A06060C09881E2
:100ED0008119D14F4F9E7FDCDCA3662222447E2AFB
:100EE0002A54AB90903B8388880BCA46468C29EEE7
:100EF000EEC7D3B8B86B3C14142879DEDEA7E25EE7
:100F00005EBC1D0B0B1676DBDBAD3BE0E0DB563247
:100F100032644E3A3A741E0A0A14DB4949920A06B0
:100F2000060C6C242448E45C5CB85DC2C29F6ED39E
:100F3000D3BDEFACAC43A66262C4A8919139A4952D
:100F4000953137E4E4D38B7979F232E7E7D543C8BA
:100F5000C88B5937376EB76D6DDA8C8D8D0164D5BE
:100F6000D5B1D24E4E9CE0A9A949B46C6CD8FA56C2
:100F700056AC07F4F4F325EAEACFAF6565CA8E7A7A
:100F80007AF4E9AEAE4718080810D5BABA6F887877
:100F900078F06F25254A722E2E5C241C1C38F1A691
:100FA000A657C7B4B47351C6C69723E8E8CB7CDD17
:100FB000DDA19C7474E8211F1F3EDD4B4B96DCBD08
:100FC000BD61868B8B0D858A8A0F907070E0423EE2
:100FD0003E7CC4B5B571AA6666CCD8484890050376
:100FE000030601F6F6F7120E0E1CA36161C25F350F
:100FF000356AF95757AED0B9B9699186861758C185
:10100000C199271D1D3AB99E9E2738E1E1D913F8F1
:10101000F8EBB398982B33111122BB6969D270D9C0
:10102000D9A9898E8E07A7949433B69B9B2D221E37
:101030001E3C9287871520E9E9C949CECE87FF5526
:1010400055AA782828507ADFDFA58F8C8C03F8A169
:10105000A15980898909170D0D1ADABFBF6531E6DC
:10106000E6D7C6424284B86868D0C3414182B0998D
:101070009929772D2D5A110F0F1ECBB0B07BFC5440
:1010800054A8D6BBBB6D3A16162C637C777BF26BEB
:101090006FC53001672BFED7AB76CA82C97DFA597E
:1010A00047F0ADD4A2AF9CA472C0B7FD9326363FE3
:1010B000F7CC34A5E5F171D8311504C723C31896D0
:1010C000059A071280E2EB27B27509832C1A1B6E72
:1010D0005AA0523BD6B329E32F8453D100ED20FC14
:1010E000B15B6ACBBE394A4C58CFD0EFAAFB434D17
:1010F000338545F9027F503C9FA851A3408F929DB4
:1011000038F5BCB6DA2110FFF3D2CD0C13EC5F97A3
:101110004417C4A77E3D645D197360814FDC222AA9
:10112000908846EEB814DE5E0BDBE0323A0A4906E0
:10113000245CC2D3AC629195E479E7C8376D8DD554
:101140004EA96C56F4EA657AAE08BA78252E1CA62C
:10115000B4C6E8DD741F4BBD8B8A703EB56648038C
:10116000F60E613557B986C11D9EE1F8981169D90F
:101170008E949B1E87E9CE5528DF8CA1890DBFE692
:10118000426841992D0FB054BB16000000010000C9
:101190000002000000040000000800000010000031
:1011A000002000000040000000800000001B000044
:1011B000003611241FBECFEFD8E0DEBFCDBF11E057
:1011C000A0E0B1E0ECE0F7E602C005900D92A03E91
:1011D000B107D9F724E0A0EEB1E001C01D92A3371A
:1011E000B207E1F70E943E090C9484330C9400008E
:1011F000419B02C0419801C0419A0E94C90BAB01BA
:10120000BC01475F524C6F4F7F4F28EF38E08BE0B7
:1012100092E00C94040C0E941B280C948D1DDC01A0
:1012200098E0EBE2F1E001900D929A95E1F70895D4
:10123000DC0198E0E3E2F1E001900D929A95E1F78C
:101240000895DC0190E1E3E1F1E001900D929A95BF
:10125000E1F708958AEA90E00895853019F0863024
:1012600039F0089568EF78E08BE092E00C94DE0BA3
:101270008BE092E00E94CB0B419A0895CF93DF93CD
:10128000CDB7DEB728970FB6F894DEBF0FBECDBF3F
:101290000E94BC0B80E091E00E94BA0C68EF78E0FD
:1012A0008BE092E00E94DE0B6BE079E0CE010196CC
:1012B0000E94DE0B0E94490CFFCFFC01862F309765
:1012C00049F0A081B1816C938081918101969183D5
:1012D000808308950C94940C8F929F92AF92BF924A
:1012E000CF92DF92EF92FF920F931F93CF93DF93F2
:1012F0004C018B01EA011C161D06ACF4FB01CF0169
:10130000801B910B31913111FACF8C179D071CF482
:10131000C81BD90B02C0C0E0D0E021FF04C090E39D
:10132000A92EB12C03C080E2A82EB12C20FD14C040
:101330007E011E141F0444F4B501C4010E945D091E
:1013400081E0E81AF108F5CF7E01D7FF02C0E12C59
:10135000F12CCE19DF0902C0E12CF12CE01AF10AC0
:101360006701C00ED11EF80161918F01662339F02B
:10137000062E000C770BC4010E945D09F1CF8E018F
:10138000101611063CF4B501C4010E945D0901501C
:101390001109F6CFCE01D7FF02C080E090E08C0D9E
:1013A0009D1DDF91CF911F910F91FF90EF90DF90E6
:1013B000CF90BF90AF909F908F9008956F927F9243
:1013C0008F929F92AF92BF92CF92DF92EF92FF9255
:1013D0000F931F93CF93DF93CDB7DEB72C970FB644
:1013E000F894DEBF0FBECDBF5C014A01FB01309710
:1013F00061F480E389831A829701A801BE016F5FBF
:101400007F4FC5010E946C094CC0232B59F04A3014
:10141000510541F477FF06C0F195E195F10921E00E
:1014200030E002C020E030E01C863E01ACE06A0EF5
:10143000711CBAE3CB1AD108309799F0CF01B401EF
:101440000E944A318A30910514F08C0D9D1D805DFB
:10145000D3018E933D01CF01B4010E944A31FB01BB
:10146000EBCF232BA1F00115110569F0E1FE0BC0B4
:101470006DE270E0C5010E945D0901501109CC24A4
:10148000C394D12C06C0F3018DE282933F01C12C9D
:10149000D12C9701A801B301C5010E946C098C0DE4
:1014A0009D1D2C960FB6F894DEBF0FBECDBFDF9109
:1014B000CF911F910F91FF90EF90DF90CF90BF9051
:1014C000AF909F908F907F906F9008953F924F9232
:1014D0005F926F927F928F929F92AF92BF92CF92C4
:1014E000DF92EF92FF920F931F93CF93DF9300D081
:1014F000CDB7DEB73C014B016A01A12CB12C5AE0FB
:10150000352ED4018C91882351F0853209F0A6C084
:10151000F4013196D40111968C91811109C06114A6
:10152000710409F4AAC0D301ED91FC911082A5C009
:10153000853209F492C08D3231F4F4013296EE24F2
:10154000E394F12C02C0E12CF12C9F012F5F3F4F5F
:101550008081803321F46894E1F8F901F6CF00E04E
:1015600010E04F014081319680ED840F8A3068F49D
:10157000309EC001319E900D1124042F440F110B99
:1015800000531109080F191FECCF433779F42601D6
:10159000B2E04B0E511CF60160817181611571053D
:1015A00011F463E371E09701A80153C04436A9F434
:1015B0002601F2E04F0E511CD6016D917C9131E66F
:1015C000C32ED12C21E030E04AE050E0C3010E945C
:1015D000DE09A80EB91E62014CC0483759F4260135
:1015E000B2E04B0E511CF6016081718121E6C22EE2
:1015F000D12C0CC0483579F42601F2E04F0E511C75
:10160000D6016D917C9191E4C92ED12C20E030E07F
:1016100040E150E0DBCF453769F42601B2E04B0EE4
:10162000511CF6016081718181E6C82ED12C20E029
:1016300030E0CACF4336E9F42601F2E04F0E511CE8
:10164000D6018C9189831A829701A801BE016F5F30
:101650007F4FC3010E946C09BCCF4F01F401608130
:10166000062E000C770BC3010E945D09FFEFAF1A35
:10167000BF0A8FEF881A980A44CFC5010F900F90C8
:10168000DF91CF911F910F91FF90EF90DF90CF905E
:10169000BF90AF909F908F907F906F905F904F9092
:1016A0003F9008950E94940C80E090E00895EF929E
:1016B000FF920F931F93CF93DF938B017A01EB017E
:1016C000CE01801B910B8E159F0524F489910E94F9
:1016D000940CF6CF80E090E0DF91CF911F910F91B5
:1016E000FF90EF900895CF93DF93CDB7DEB7AE01B3
:1016F0004B5F5F4FFA0161917191AF0180E090E023
:101700000E94660ADF91CF910895CF93DF93CDB702
:10171000DEB7AE01475F5F4F6F817885CE010596DA
:101720000E94660ADF91CF910895CF93DF93CDB7E2
:10173000DEB7AE01455F5F4F69857A85CE010596BC
:101740000E94660ADF91CF910895FC0120813181CA
:101750002115310571F02617370749F4FB01208167
:101760003181FC013183208381E090E00895C9013B
:10177000ECCF80E090E0089584E0E0EEF1E0DF015E
:101780001D928A95E9F70E94CF0C0E943A100C94A2
:101790006C280C94400DCF93DF93EC010E943A0D1E
:1017A000BE0180EE91E00E94A50BBE0182EE91E0A9
:1017B0000E94A50BDF91CF910C943C0D0F931F93CA
:1017C000CF93DF93EC018B010E943A0DBE0182EEB4
:1017D00091E00E94A50B1F830E8319821882E0916D
:1017E000E201F091E301A2EEB1E0309729F0DF01D0
:1017F0000190F081E02DF9CFCD93DC93DF91CF9173
:101800001F910F910C943C0DCF92DF92EF92FF92BB
:101810000F931F93CF93DF93EC016A017B01890142
:101820000E943A0DBE0180EE91E00E94A50BCA8293
:10183000DB82EC82FD821F830E8319821882E09185
:10184000E001F091E10120EE31E03097A9F08281D2
:101850009381A481B5818C199D09AE09BF09181621
:1018600019061A061B061CF4F983E88305C09F01BC
:101870000190F081E02DE9CFF901D183C083DF91A0
:10188000CF911F910F91FF90EF90DF90CF900C942C
:101890003C0D0E943A0DC091E201D091E3012097E6
:1018A00039F0888199819093E3018093E2011BC014
:1018B000E091E001F091E101309799F0628173814C
:1018C000848195810E94780D892B59F0C091E001A7
:1018D000D091E101888199819093E1018093E001A9
:1018E00002C00E943E0D0E943C0D209791F2EE81B5
:1018F000FF81CE010995CDCFF89483E38093C40096
:101900001092C500E1ECF0E08081886080838081E6
:1019100080618083808180648083E2ECF0E080815C
:1019200086608083789408959091C00095FF07C0E9
:101930009091E401911103C08093C60008959091A5
:10194000E4019431B0F49091E4019F5F9093E4013D
:10195000E091E501F0E0E951FE4F80838091E501DF
:101960008F5F8093E5018091E501843111F410923D
:10197000E5010895CF93DF93EC018991882319F055
:101980000E94940CFACFDF91CF910895229A84B1EE
:10199000886284B924988CB581658CBD0895399A84
:1019A00041980E947C0C0E94C60C84E085BD81E0B9
:1019B00080936E00E9E6F0E0808183608083E89A9E
:1019C00083B7817F83BF78940895813011F42A9A78
:1019D00008952A9808950895823038F4219A813024
:1019E00011F4299A089529980895219808958EBD93
:1019F0000DB407FEFDCF8EB50895FF920F931F9390
:101A0000CF93DF93F82EEB018A0180E00E94E50C72
:101A10008F2D0E94F70C0C0F1D1FC017D10721F04E
:101A200089910E94F70CF9CF2A9ADF91CF911F91EB
:101A30000F91FF900895FF920F931F93CF93DF9321
:101A4000F82EEB018A0180E00E94E50C8F2D0E94A8
:101A5000F70C0C0F1D1FC017D10729F080E00E9462
:101A6000F70C8993F8CF2A9ADF91CF911F910F91AC
:101A7000FF900895F89408957894089588950895AE
:101A8000F8948091130290911402A0911502B091E4
:101A9000160226B57894BA2FA92F982F8827BC0153
:101AA000CD01622B0895CF92DF92EF92FF926B01EE
:101AB0007C010E94400DA7019601261B370B480BA5
:101AC000590BDA01C90112161306140615065CF447
:101AD000AD01772757FD7095672F452B462B472B78
:101AE00041F7892B31F7FF90EF90DF90CF90089569
:101AF000CF92DF92EF92FF920F931F936B017C01C5
:101B00000E94400D97018601061B170B280B390B0D
:101B1000101611061206130684F4C901BB2797FD9F
:101B2000B095AB2F892B8A2B8B2B49F481E090E069
:101B30000530110530F080E004C081E001C080E094
:101B400090E01F910F91FF90EF90DF90CF9008955C
:101B50000895089508951F920F920FB60F921124C1
:101B60008F939F93AF93BF93809113029091140230
:101B7000A0911502B09116020196A11DB11D80938E
:101B8000130290931402A0931502B0931602BF9112
:101B9000AF919F918F910F900FBE0F901F9018954E
:101BA0001F920F920FB60F9211248F93EF93FF9312
:101BB0008091E4018823C1F0E091E601F0E0E95171
:101BC000FE4F80818093C6008091E4018150809314
:101BD000E4018091E6018F5F8093E6018091E60148
:101BE000843111F41092E601FF91EF918F910F90E3
:101BF0000FBE0F901F9018951F920F920FB60F9265
:101C000011242F933F934F935F936F937F938F9301
:101C10009F93AF93BF93EF93FF938AE391E00E946A
:101C2000BA0CFF91EF91BF91AF919F918F917F91EE
:101C30006F915F914F913F912F910F900FBE0F9039
:101C40001F901895CF93DF93D82FC62F80E00E9466
:101C5000E50C8D2F80680E94F70C8C2F0E94F70CEA
:101C600081E0DF91CF910C94E50CCF93DF938091CD
:101C7000250290912602D82FD77053E0969587952C
:101C80005A95E1F78370813029F050F0823021F4C9
:101C900080E907C080E805C00E94A80D80E001C06F
:101CA00080E760912502709126029B0145E0369500
:101CB00027954A95E1F72370C82F223041F0233051
:101CC00041F0213011F0C26005C0C46003C0C6609D
:101CD00001C0C860672F77276115710521F0C160C9
:101CE00082E20E94220E6C2F8DE10E94220E6D2F47
:101CF0006295607F605A8091250287FF64608EE163
:101D00000E94220ED550D23068F480912502909125
:101D1000260223E0969587952A95E1F7837011F4C2
:101D20006CE001C064E086E2DF91CF910C94220E5A
:101D3000AF92BF92CF92DF92EF92FF920F931F93D9
:101D4000CF93DF9380911F0290912002A0912102F6
:101D5000B09122029C01AD0160E070E080E090E073
:101D600003E10E942233A12CE8E4BE2EF8EECF2E30
:101D7000DD24D394E12CF12C00E010E00E947E32AF
:101D8000C22FB32E6A017B01182FD92F00E10E94C8
:101D90003D33622F86E00E94220E2C2F3B2DA601A0
:101DA000B701812F9D2F08E00E943D33622F87E00D
:101DB0000E94220E6C2F88E0DF91CF911F910F912E
:101DC000FF90EF90DF90CF90BF90AF900C94220ED9
:101DD000CF93C82F80E00E94E50C8C2F8F770E9454
:101DE000F70C80E00E94F70CC82F81E00E94E50C00
:101DF0008C2FCF910895CF93C82F81E00E94E80ED9
:101E0000887F682F6C2B81E0CF910C94220ECF93AA
:101E1000C82F68E881E00E94220E81E00E94E80E4F
:101E200087FF0E94A80D81E00E94FB0EC23049F49A
:101E30006AE08DE10E94220E60E78EE10E94220E90
:101E400004C00E94350E0E94980E61E28CE00E9450
:101E5000220E60E483E20E94220E8091B203882366
:101E600031F083E30E94E80E682F6F7B05C083E3A7
:101E70000E94E80E682F606483E30E94220E609146
:101E800027028FE10E94220E64E389E30E94220E62
:101E900060EC80E40E94220E6FEF82E10E94220E2D
:101EA000EC2FF0E0E15BFE4F6081609581E10E94E4
:101EB000220E80E00E94EB0CC1110CC060911B024D
:101EC00070911C0280911D0290911E020E94530D80
:101ED00086E001C085E0CF910C94FB0E6091290251
:101EE000613124F462301CF462E001C06FE06F7075
:101EF000606889E00E94220E8AE50E94E80E682F41
:101F000064608AE50C94220ECF93C82F81E00E9472
:101F1000E80E877011F00E94A80D8091250287704D
:101F200009F067C0C1110E94A80D68E081E00E941D
:101F3000220E81E00E94E80E87FD0E94A80D81E03C
:101F40000E94FB0E0E94980E61E28CE00E94220E1D
:101F50006EE18DE00E94220E6BE082E10E94220E73
:101F600062E183E10E94220E6AEA8FE10E94220E62
:101F700062E187E20E94220E68ED80E30E94220E59
:101F800060E481E30E94220E61EC88E20E94220E4E
:101F900064E989E20E94220E61EC8AE20E94220E2C
:101FA0006FEF81E20E94220E62E082E00E94220E28
:101FB00060E883E00E94220E61E084E00E94220E2D
:101FC00069E985E00E94220E68E380E40E94220E07
:101FD00080E00E94EB0C60911B0270911C028091CA
:101FE0001D0290911E020E94530D85E0CF910C942A
:101FF000FB0E8C2FCF910C94070F0F931F93CF9351
:10200000DF93D82F80E00E94E50C80E00E94F70C5F
:1020100008E513E0C0E0CD1741F080E00E94F70C26
:10202000F80181938F01CF5FF6CF81E0DF91CF91EF
:102030001F910F910C94E50C0F931F93CF93DF9397
:10204000D82F80E00E94E50C80E80E94F70C08E59C
:1020500013E0C0E0CD1739F0F80181918F010E94A3
:10206000F70CCF5FF7CF81E0DF91CF911F910F91F8
:102070000C94E50CAF92BF92CF92DF92EF92FF9259
:102080001F93CF93DF930E943A0D80E00E94EC0CE7
:102090000E94C90B615E7F4F8F4F9F4F0E94530D6F
:1020A00082E00E94EC0C0E94C90B64567F4F8F4F58
:1020B0009F4F0E94530D80E00E94FB0E82E40E941D
:1020C000E80E823111F00E94A80D82E00E94070FF5
:1020D00081E00E94E80E87708530D1F7CBEFD1E028
:1020E0009AE0A92E92E0B92E88E0E82EF12C8CE23D
:1020F0000E94E80E182F11708CE20E94E80E212F2A
:1021000030E080FBCC24C0F8D12C2C153D0579F3B0
:102110008981880F182B198381E0E81AF10839F7B3
:102120002196AC16BD0601F780E18093FB0180E0AB
:102130000E94FB0EDF91CF911F91FF90EF90DF90F7
:10214000CF90BF90AF900C943C0DCF93C091FB010A
:10215000C11103C00E94A80D0AC0C03141F440E182
:1021600050E06BEF71E080E00E942329C0E0EC2F8B
:10217000F0E0E550FE4F8081CF5FC093FB01CF912F
:102180000895CF930E943A0D8BE10E94E80EC82F6C
:102190000E943C0D8C2FCF910895CF92DF92EF9249
:1021A000FF92CF930E94C90B6B017C0181E00E94DA
:1021B000E80E87FF65C082E10E94E80E83FF0EC033
:1021C00081E0C81AD108E108F108C0921702D09244
:1021D0001802E0921902F0921A0249C086FF44C028
:1021E00080912502909126029C0193E036952795D7
:1021F0009A95E1F7237069F48770E82FF0E0EE0F0D
:10220000FF1FEF5BFE4F80819181C81AD90AE10858
:10221000F108C0921B02D0921C02E0921D02F092C3
:102220001E028DE10E94E80E82FF02C082E201C020
:1022300083E10E94E80E8093570380E10E94E80E3C
:10224000682F8DE00E94220E809157030E94FD0F9F
:1022500089E10E94E80E809324028AE10E94E80E40
:102260008D538093230203C087FD109257036FEFB5
:1022700081E10E94220E6FEF82E10E94220E2EC0A9
:102280008EE30E94E80EC82F8FE30E94E80E83FFC2
:1022900009C0C0921702D0921802E0921902F0927F
:1022A0001A021CC082FF14C0C0921B02D0921C02F2
:1022B000E0921D02F0921E0282E30E94E80E8093DB
:1022C00057030E94FD0F109224021092230206C0B1
:1022D000C2FF03C01092570301C0FFCF80E00E94ED
:1022E000FB0E60913002709131028AE292E0CF9150
:1022F000FF90EF90DF90CF900C94DE0BCF93C82F20
:102300000E943A0DC13059F040F0C23009F4A7C024
:10231000C33009F0A7C081E0A3C080E065C081E0C0
:102320000E94E80E877011F00E94A80D809125028E
:10233000877009F05CC060E181E00E94220E81E0BC
:102340000E94E80E803111F00E94A80D81E00E94E9
:10235000FB0E62E082E00E94220E60E883E00E94B1
:10236000220E61E084E00E94220E69E985E00E946D
:10237000220E60E085E20E94220E65E086E20E9465
:10238000220E62E187E20E94220E60ED80E30E944D
:10239000220E60E481E30E94220E61EC88E20E943A
:1023A000220E64E989E20E94220E61EC8AE20E9418
:1023B000220E0E94980E0E946E0F64E380E40E9439
:1023C000220E609157036F5F82E30E94220E60919C
:1023D000570380E00E94220E809157030E941C1038
:1023E00081E00E94EB0C83E00E94FB0E3BC068E89A
:1023F00081E00E94220E81E00E94E80E87FF0E9489
:10240000A80D81E00E94FB0E0E94350E0E94980EDE
:102410008AE00E94E80E807F682F68608AE00E9450
:10242000220E0E946E0F64E389E30E94220E60EF89
:1024300080E40E94220E6FEF82E10E94220E67EF7D
:1024400081E10E94220E60E08EE00E94220E60E098
:102450008DE00E94220E6091570382E2BBCF80E0A4
:102460000E94840FCF910C943C0D4F925F926F921B
:102470007F928F929F92AF92BF92CF92DF92EF9214
:10248000FF92E62FA091C502B091C6028090C702CC
:102490009090C802811109C06D01BB0FEE08FF08C2
:1024A000092C000CAA08BB081AC0482F50E09A015A
:1024B0000E94AD316B017C0187E0F594E794D794DD
:1024C000C7948A95D1F7D4010E94AD314B015C01CC
:1024D00097E0B594A794979487949A95D1F7A09193
:1024E000C902B091CA022091410384E0E89FF00143
:1024F0001124EE57FE4F408051806280738030E09F
:102500000E94AD31680D791D8A1D9B1DA3019201AA
:102510000E9472312B5F20932702ADEFBFEFA30122
:1025200092010E94C2316C0D7D1D8E1D9F1DFF907A
:10253000EF90DF90CF90BF90AF909F908F907F9063
:102540006F905F904F900895CF93DF93C7E1D2E0F3
:1025500010925703E091980384E0E89FF001112462
:10256000E95EFD4F83AD94ADA5ADB6AD8C7F888798
:102570009987AA87BB8783E891E19F878E87DF9140
:10258000CF91089510922C0310922D0310922E03D8
:1025900010922F03109228031092290310922A03FD
:1025A00010922B031092C40210923603109235033E
:1025B00010923203109230031092390310923A03B2
:1025C0001092400310923803109243031092C002FD
:1025D00084EF8093310310923B0388E096EEA3EDE5
:1025E000B3E380933C0390933D03A0933E03B093E9
:1025F0003F0325E020939803809350039093510369
:10260000A0935203B093530383E08093440308954F
:10261000CF92DF92EF92FF92CF93DF93D82F0E9459
:10262000A510C82F0E94A5102C2F30E0322F222792
:10263000282B23318AE7380710F4690106C0C90145
:1026400062E17AE70E944A316C01E12CF12CDD2332
:10265000C1F0C90199276D2F70E00E945E31AC0175
:1026600022E13AE7429FC001439F900D529F900D97
:102670001124092E000CAA0BBB0BC80ED91EEA1E92
:10268000FB1EC701B601DF91CF91FF90EF90DF9065
:10269000CF900895CF92DF92EF92FF926B017C0171
:1026A000842F0E940813DC01CB018C0D9D1DAE1DF3
:1026B000BF1D2091B502222399F0C090B602D090A0
:1026C000B702E090B802F090B9029C01AD012C195C
:1026D0003D094E095F0912161306140615068CF4FF
:1026E0008093B6029093B702A093B802B093B90258
:1026F0008091BE029091BF0291609093BF0280933F
:10270000BE02FF90EF90DF90CF900895CF92DF92BE
:10271000EF92FF920F931F93CF93DF936B017C0196
:10272000FA01C7E1D2E0A0913B0384E0A89FD00169
:102730001124AE57BE4F2D913D914D915C91A3E078
:10274000B0E00E94B431088119812A813B81C00E1A
:10275000D11EE21EF31EAB01BC014C0D5D1D6E1DB2
:102760007F1D4C835D836E837F834E5351096109C6
:1027700071099F018AE292E0DF91CF911F910F9141
:10278000FF90EF90DF90CF900C94040C8EE194E2D8
:10279000909331028093300282E00C947E118BEF93
:1027A00096E2909331028093300282E00C947E1185
:1027B000E7E1F2E021E02093550326853785206884
:1027C0003787268710925703928F818F82E00C946F
:1027D0007E1185EB97E20C94D8138AED96E20C9467
:1027E000D813A7E1B2E082E080935503E0913B0368
:1027F000F0E0EF52FE4F818190E08F7780681F9666
:102800009C938E931E9740913C0350913D036091A1
:102810003E0370913F0318964D935D936D937C93A7
:102820001B971092570382E00C947E118AEC97E27A
:1028300090933102809330020C94F1138BEE96E268
:1028400090933102809330020C94F1138091240311
:1028500090912503A0912603B0912703892B8A2B01
:102860008B2B19F08091BE0282FD0E94A80D8091F1
:10287000BE029091BF0286FD2FC01092A403109259
:102880003003109254038E7781609093BF0280933F
:10289000BE020E94A4120E94C90BAB01BC014E5E95
:1028A0005C47624C7F4F40939E0350939F0360931D
:1028B000A0037093A10340931B0250931C026093EA
:1028C0001D0270931E022DEB33E28AE292E00E9419
:1028D000040C83E00C947E110895CF93DF9390E471
:1028E000E2E5F2E0DF011D929A95E9F790E2E2E974
:1028F000F2E0DF01292F1D922A95E9F7E2E3F2E0E9
:10290000DF011D929A95E9F72FE330E03093B3028F
:102910002093B202811102C086E001C080E0C2E5CE
:10292000D2E0A2E9B2E096E0980F2FE330E044E075
:10293000849FF0011124EE5AFE4F40815181628143
:10294000738149935993699379932D933D938F5F45
:102950008913EDCF88EE93E0909333028093320297
:10296000CEE0C09334020E94A5108F708093350290
:1029700084E690E090933B0280933A02C0933C023D
:102980000E94A5108F7080933D028AE090E09093A2
:102990004302809342028BE1809344020E94A5107F
:1029A0008F70809345020E94C90B6093460270931A
:1029B0004702809348029093490260933E027093CD
:1029C0003F028093400290934102609336027093DD
:1029D00037028093380290933902DF91CF910895A6
:1029E000603811F06093C1029091C202981759F0BB
:1029F0008093C2028091BE029091BF029860909332
:102A0000BF028093BE02089587700895887F862B49
:102A1000089523E0969587952A95E1F783700895A8
:102A2000877E28E0629FB0011124862B972B0895A2
:102A300025E0969587952A95E1F7837008958F791B
:102A400020E2629FB0011124862B972B089587FB0B
:102A5000882780F990E008958F777695762F6627FE
:102A600077956795862B972B0895892F90E0089589
:102A700020E030E0362FA901482BCA0108950F93BA
:102A80001F93E82FF0E088E0689FB001112480E2F6
:102A9000489FA0011124012B19F4A0E0B0E002C06E
:102AA000A0E8B0E080E090E0922F842B952B8E2B55
:102AB0009F2B862B972B8A2B9B2B1F910F91089571
:102AC00086279727BC016F71772781E090E0672BFD
:102AD00011F080E090E00895E82FF0E0EF52FE4F13
:102AE000818190E00895E82FF0E0EF52FE4F818160
:102AF00090E08F778068089521E030E0681710F04B
:102B000020E030E0C901089521E030E0861710F0A0
:102B100020E030E0C9010895E82FF0E0EF52FE4FC9
:102B200092819F3F09F08F5F0895E82FF0E0EF5208
:102B3000FE4F90819F3F09F081500895E82FF0E00B
:102B4000EF52FE4F91819F3F09F485E00895E82FF1
:102B5000F0E0EF52FE4F81E091819F3F09F480E069
:102B60000895615048F0E82FF0E0EF52FE4F908159
:102B70009F3FB9F38150F5CF0895FC018081918189
:102B80000895FC01228160817181CB01770FAA0B2E
:102B9000BB0BA22B2381BC01CD01922B08950F9377
:102BA0001F9301970E94C115272F382F492F5527B2
:102BB000A4E6B0E00E94B4318B019C01005C154595
:102BC00020473343013C1F4C2A46310518F060E092
:102BD00070E0CB011F910F9108950F931F93FC019B
:102BE00021816081862F90E0A0E0B0E0B82FAA2775
:102BF00099278827AC01BD01622B82819381982798
:102C000089279827092E000CAA0BBB0B8A019B0170
:102C1000082B192B2A2B3B2BC901B8011F910F91AF
:102C20000895FC01608371830895FC014083518302
:102C30006283738308954F925F926F927F92AF92F7
:102C4000BF92CF92DF92EF92FF920F931F93CF9399
:102C5000DF93EC012801390180E1E3E6F4E0DF01D4
:102C60001D928A95E9F781E0809372048093630452
:102C7000EF2809F480E08093680489E694E00E94DC
:102C80001516B301A2018DE694E00E94151680E1AD
:102C9000FE01A3EBB3E001900D928A95E1F7A50147
:102CA000B60184E0DF91CF911F910F91FF90EF90DB
:102CB000DF90CF90BF90AF907F906F905F904F90DC
:102CC0000C9423298F929F92AF92BF92CF92DF9262
:102CD000EF92FF920F931F93CF9380E1E3EBF3E02A
:102CE000DF011D928A95E9F788E0E0E6F3E0DF0175
:102CF0001D928A95E9F74091A5035091A603609132
:102D0000A7037091A80388E593E00E9415164091EF
:102D100024035091250360912603709127038CE5CD
:102D200093E00E94151640E150E068E573E080E012
:102D30000E942329C091450387E090E08C1B9109F4
:102D40004FEF5FE002C0559547958A95E2F7809175
:102D5000580390915903482359238CE1A82E9EE4EF
:102D6000B92E2EE0C22ED12CE12CF12C00E010E087
:102D70009A0140E050E060E070E080E090E00E9466
:102D8000C731E8EEAE2EF3E0BF2EC12C0E944D32CB
:102D900049015A0180919E0390919F03A091A00345
:102DA000B091A10386539D4FAE4FBF4F880E991E21
:102DB000AA1EBB1E8092480390924903A0924A0328
:102DC000B0924B031092460381E090E001C0880F5F
:102DD000CA95EAF7609144038E5F0E943512861A05
:102DE000970AA80AB90A80924C0390924D03A092C8
:102DF0004E03B0924F038091270280934703CF91F7
:102E00001F910F91FF90EF90DF90CF90BF90AF9008
:102E10009F908F9008958F929F92AF92BF92CF9282
:102E2000DF92EF92FF92CF93DF934B015C01EA01B7
:102E30008091BE029091BF02827096708230944061
:102E400059F40E9462168091BE029091BF02926076
:102E50009093BF028093BE0280912702C090170218
:102E6000D0901802E0901902F0901A02873099F47D
:102E7000C80CD91CEA1CFB1C85E0C81AD108E10863
:102E8000F108C0921B02D0921C02E0921D02F09247
:102E90001E0288E023C0E091280224E0E29FF001B6
:102EA0001124EE57FE4F2081318142815381A3E0EE
:102EB000B0E00E94B431C80CD91CEA1CFB1CDC0138
:102EC000CB018C0D9D1DAE1DBF1D80931B029093E9
:102ED0001C02A0931D02B0931E0285E0809327027E
:102EE00040911B0250911C0260911D0270911E02C4
:102EF0004E535109610971099E018AE292E0DF9106
:102F0000CF91FF90EF90DF90CF90BF90AF909F90C8
:102F10008F900C94040C2091330330E0A2E1BAE7C7
:102F20000E949E3149EE53E10C940B174DEE53E194
:102F30006AE572E682E090E00C940B17FC01438393
:102F400052836183708308958FEF0895FC01680FA9
:102F5000791F80E090E0E617F70791F02191922722
:102F600028E0AC01440F551F97FF06C0CA0131E2AB
:102F7000832730E1932701C0CA01215091F7EBCF9D
:102F800008950F931F93CF9380915703813111F0D0
:102F90000E94A80D67E070E088E593E00E94A61704
:102FA00020915F0330E099272817390709F081C085
:102FB00088E593E00E94C115DC01CB01BB2700919D
:102FC000BA021091BB022091BC023091BD02801761
:102FD0009107A207B30709F06FC0C091A403CC7F8B
:102FE000C093A403809124028093A30380912302C1
:102FF0008093A20380911B0290911C02A0911D025C
:10300000B0911E02805A9141A109B10980939E039B
:1030100090939F03A093A003B093A1038BE593E04B
:103020000E94C1156093A5037093A6038093A70324
:103030009093A8038C2F81608093A4030091670371
:10304000109168036FE070E088E593E00E94A61796
:1030500080179107A1F580E693E00E94C115BB2778
:1030600097FDBA95A92F982F872F8093AA03909345
:10307000AB03A093AC03B093AD0383E693E00E944F
:10308000C115BB2797FDBA95A92F982F872F80933D
:10309000AE039093AF03A093B003B093B1038091BC
:1030A00060038093A903C360C093A40382E090E00F
:1030B00008C080E090E005C08FEF9FEF02C081E084
:1030C00090E0CF911F910F910895282F277030E045
:1030D00043E0969587954A95E1F78370F901EE0FE5
:1030E000FF1FE20FF31FE455FE4FE80FF11D808133
:1030F00090E08D5891090895EF92FF920F931F93DE
:10310000FC01382F3770A62FB0E031F41B9625E074
:1031100030E00E94AD318BC0632F660F660F685E92
:10312000353010F420E001C028E013E0AA0FBB1FE7
:103130001A95E1F7CD01861B9109DC015C96E7FD4C
:1031400003C080E190E002C080E090E08A0F9B1F06
:103150004F2F5527452B19F440E050E002C044E1C1
:1031600050E0841B950B18161906D4F4621B70E00E
:10317000860F971F01970E945E31AF01A5E056951B
:103180004795AA95E1F7437050E04B5F5F4F469F2C
:10319000C001479F900D569F900D1124089602C0C4
:1031A00088E090E0880F991F880F991FC1963F5FB4
:1031B00063E0F695E7956A95E1F7E3703E1B3530DD
:1031C00050F03450E9E0FDE302C0F595E7953A95FB
:1031D000E2F734E002C0E9E0FDE3092E000CAA0B9F
:1031E000BB0B7C018D0104C0EE0CFF1C001F111FE6
:1031F0003A95D2F7A8019701A2E1BAE70E94B4314B
:103200009F01F7FF02C02F5F3F4F3595279589013A
:10321000330F220B330B600F711F821F931F9F010F
:10322000FF0F440B550B0E947231CA01B9011F9167
:103230000F91FF90EF900895EEEBF2E08081918185
:10324000997F918380830895CF93DF938430A8F48E
:1032500098E0899FE0011124C95EDD4F6D8F5C8F7E
:103260004B8F0E94C90B6F8F78A389A39AA30E94EA
:10327000A5108F708E8F81E001C080E0DF91CF912B
:103280000895CF92DF92EF92FF920F93CF93DF9347
:10329000A82F803108F074C00F3FC1F56A017B018F
:1032A00080ECC81A8DEFD80A81EDE80A83E3F80AAA
:1032B00081E9C81680EDD80683E0E806F10410F431
:1032C000426030C06A017B0181EAD81A8CEBE80ABF
:1032D00083E3F80A81ECC81687E2D80689E0E8069D
:1032E000F10490F06A017B0180EAC81A81E9D80AEA
:1032F00086EDE80A83E3F80A81EEC81683E9D8066A
:1033000084E0E806F10470F441600CC00430C4F5B8
:103310004C7FC02E000FDD08EE08FF084C295D2908
:103320006E297F29EA2FF0E0EF01CC0FDD1FCC0FD3
:10333000DD1FC95EDD4F4BAF5CAF6DAF7EAF2115BA
:10334000310519F0922F832F02C09FE380E0EE0F2A
:10335000FF1FEE56FD4F9083818381E090E002C015
:10336000880F991FAA95E2F72091B2023091B3021B
:10337000822B932B9093B3028093B20281E001C021
:1033800080E0DF91CF910F91FF90EF90DF90CF9091
:1033900008952F923F924F925F926F927F928F92F9
:1033A0009F92AF92BF92CF92DF92EF92FF920F93D4
:1033B0001F93CF93DF93CDB7DEB729970FB6F8945D
:1033C000DEBF0FBECDBF0091570310E00C301105DA
:1033D00024F41092570380E035C3209158032983C9
:1033E000237028872111F5CF3981307E3E83303616
:1033F00011F0303A71F789E593E00E94C115AB01F5
:10340000BC0180915E0390915F03C0902403D09033
:103410002503E0902603F09027034C155D056E050B
:103420007F05B9F6A0915D03AB832A2F2F70E22FA1
:10343000F0E0FD83EC834F01F8E08F0E911C180142
:1034400024E0221A3108281439041CF2821493044F
:103450006CF4F401E85AFC4F2081A22FB0E0BA834B
:10346000A983EC81FD8139964F0104C02FEF3FEF16
:103470003A832983409028035090290360902A03BF
:1034800070902B0384199509480E591E611C711CFC
:1034900010E1E3E6F4E0DF01212F1D922A95E9F720
:1034A00089E48093630481E080936804209272042D
:1034B00089E694E00E941516B301A2018DE694E01E
:1034C0000E941516E4E0F3E0A3EBB3E001900D9247
:1034D0001A95E1F7A10168E573E082E00E942329D3
:1034E0006B017C01C101885A9C4F0E94ED15C616E4
:1034F000D706E806F90609F06CCF80912803909171
:103500002903A0912A03B0912B03481659066A0695
:103510007B06E8F484159505A605B7050CF459CF8C
:103520000197A109B109481659066A067B0609F0F8
:1035300050CF80913003882309F44BCF3E81303A3D
:1035400009F047CF81E090E09F838E8317C0D301BD
:10355000C2010196A11DB11D8093280390932903F8
:10356000A0932A03B0932B039E81903A11F480E23A
:1035700001C080E0809330031F821E82809130035F
:10358000811103C0AB81A4FF09C08091BE0290915C
:10359000BF0280619093BF028093BE021092C4026A
:1035A0001092320380913103803819F084EF8093B8
:1035B000310380912502909126020E946518209186
:1035C0002302022E000C330B20543109281B390B27
:1035D00037FD06C02F3F310514F02EEF30E028876D
:1035E000B885B09334031986188688859985AC818F
:1035F000BD818A179B070CF0C6C1E885F985E05AA2
:10360000FC4FE0818E2F90E0FC013297E131F10513
:1036100008F0B9C1EC5CFF4F0C949131E885F98555
:103620003396F987E887E1CFE885F985EF59FC4FB4
:10363000A081E885F985EE59FC4F80819181E8856C
:10364000F985EC59FC4FB081288539852B5F3F4FB8
:103650003987288737E8309335032B2F207F09F0EF
:10366000E4C1009709F4E1C12091B2023091B302A4
:103670002095309528233923232B09F0D6C1E7E183
:10368000F2E020E030E041E050E0022E02C0440FC2
:10369000551F0A94E2F7BA0168237923672B61F07A
:1036A000C3ACD4ACE5ACF6ACCD28CE28CF2821F401
:1036B00040955095842395232F5F3F4F34962031BA
:1036C000310509F79093B3028093B2028A2F829555
:1036D0008F70E82FF0E0EF52FE4F91819F3F29F469
:1036E000909135039D7F90933503909135039F779B
:1036F000973051F4BF70B093C002AF70B0E0AF53D9
:10370000BE4F6C910E94F01481E0809332036DCF24
:1037100091E090933603A885B9851196B987A8875B
:1037200064CFE885F985EF59FC4F10811F708885BB
:1037300099858E599C4F0E94CF15E885F98535965D
:10374000F987E887F0E8F0934003E12FF0E0EF52CB
:10375000FE4F21812F3F09F46CC122E820934003E2
:10376000611571058105910509F43FCF33E8309368
:10377000400310933B0360933C0370933D0380939D
:103780003E0390933F0331CFE885F985EF59FC4F15
:103790002081888599850296998788872F3F49F4EB
:1037A0008091BE029091BF0280649093BF0280938B
:1037B000BE022F702093B5020E94C90B6093B6021F
:1037C0007093B7028093B8029093B90291E09093FE
:1037D00039030BCFE885F985EF59FC4FD0808885F8
:1037E00099858E599C4F0E94CF15AB01BC01E8858D
:1037F000F985EB59FC4FE081A0E8A0933A0341150D
:1038000051056105710521F18E2F82958F702FE092
:1038100030E0281B3109C9012FEF3FEF02C0369578
:1038200027958A95E2F7EF708FEF9FEF02C0880F20
:10383000991FEA95E2F7282339230FEF8D2D0E9477
:103840004119882329F080913A03836080933A03D9
:1038500088859985069699878887C7CE88859985B2
:103860008F599C4F0E94CF15A885B9851496B987AA
:10387000A887611571058105910551F0609350038A
:1038800070935103809352039093530381E801C0D6
:1038900080E880934303A9CE8091BE029091BF023D
:1038A00081FD6AC0E885F985ED59FC4F20812093A0
:1038B000980382609093BF028093BE02809142037E
:1038C000811102C00E94A80DE885F985EF59FC4FCF
:1038D00080819181BEE1B89FB001B99F700D112424
:1038E00080E090E022E13AE740E050E00E942032A0
:1038F000E8EEAE2EF3E0BF2EC12CD12CE12CF12C42
:1039000000E010E00E944D3259016A0180911B02D3
:1039100090911C02A0911D02B0911E028A0D9B1D68
:10392000AC1DBD1DAC01BD014B5257406D4371092B
:1039300040939E0350939F036093A0037093A10351
:103940001092C6021092C5021092CA021092C902C9
:1039500010924103ECE0E093A403F3E1F0939903A8
:103960008B5E9109A109B10980939A0390939B03FF
:10397000A0939C03B0939D03288539852C5F3F4F0E
:103980003987288732CEEE81FF81EF2B31F52981EF
:103990003A812F3F8FEF380701F15101A818B9087C
:1039A0001A141B04D4F4D401A85ABC4F6D014091E1
:1039B0002403509125036091260370912703232B44
:1039C00019F484E093E002C084E193E0EE24E394F0
:1039D000F12C930182010E941B16809154038823CD
:1039E00059F080915503BB81B5FF02C090E801C03A
:1039F00090E4892B8093550380915503E981FA81E6
:103A0000319641F480628093550380925603109260
:103A1000570309C080618093550380925603822D1D
:103A200088198093570381E00DC086E880933503A1
:103A30004DCE672B682B692B09F4D7CD31E8309335
:103A40004003D3CD29960FB6F894DEBF0FBECDBF8D
:103A5000DF91CF911F910F91FF90EF90DF90CF906A
:103A6000BF90AF909F908F907F906F905F904F909E
:103A70003F902F900895482F282F30E0F901EE0F46
:103A8000FF1FEE0FFF1FE95EFD4F13AE14AE15AE24
:103A900016AE220F331FF901EE56FD4F1182108230
:103AA000E2EBF2E081E090E002C0880F991F4A95B6
:103AB000E2F7809590952081318182239323918331
:103AC000808308952091BE023091BF022374332772
:103AD000232B39F480934203811105C00E942614E0
:103AE00002C080E0089581E00895877080934503C7
:103AF0008091BE029091BF029C0134603093BF025E
:103B00002093BE0283709927892B31F48091420360
:103B1000811102C00C94621D0895CF92DF92EF9242
:103B2000FF928091240390912503A0912603B091E8
:103B30002703892B8A2B8B2B09F05DC08091BE0255
:103B40009091BF0280799927892B11F00E94A80DCE
:103B50001092B5028091BE029091BF028E7D977E39
:103B60009093BF028093BE021092CC021092540335
:103B70001092C4020E94A51066E00E943E3190930C
:103B8000B4028EE08093C10283E08093C20281E0A0
:103B90000E946D148091BE029091BF0293FD0E941D
:103BA000A80DC0903602D0903702E0903802F09015
:103BB000390288E00E940813DC01CB018C0D9D1DA9
:103BC000AE1DBF1D8093170290931802A093190297
:103BD000B0931A028091BE029091BF0284609093CC
:103BE000BF028093BE0266EF76E28AE292E00E9414
:103BF000DE0B81E001C080E0FF90EF90DF90CF907E
:103C000008952F923F924F925F926F927F928F9280
:103C10009F92AF92BF92CF92DF92EF92FF920F935B
:103C20001F93CF93DF93CDB7DEB762970FB6F894AB
:103C3000DEBF0FBECDBF8091BE029091BF029C013E
:103C4000217C3327232B09F07BC54091240350911D
:103C500025036091260370912703452B462B472BA4
:103C6000E1F482FD1AC062960FB6F894DEBF0FBE73
:103C7000CDBFDF91CF911F910F91FF90EF90DF901B
:103C8000CF90BF90AF909F908F907F906F905F90FC
:103C90004F903F902F900C948D1D0E94C90B2B01CB
:103CA0003C018091BE0281FF2BC040919A0350914C
:103CB0009B0360919C0370919D03D301C201CE963A
:103CC000A11DB11D841B950BA60BB70B1816190669
:103CD0001A061B0614F40E94A80D80919A03909175
:103CE0009B03A0919C03B0919D038C019D010E53F9
:103CF00011092109310909831A832B833C8304C0EC
:103D000019821A821B821C822091BE023091BF024E
:103D10003A8B298BC9018C739927892B09F4CEC35F
:103D2000190134E22322332449895A8953FFBAC046
:103D30006091B2027091B3027A8769878091C20262
:103D40008F7021E030E0D90102C0AA0FBB1F8A9515
:103D5000E2F7BC87AB87AFE093018201005C1C4DAA
:103D6000214F3C4B0D871E872F87388BCD84DE84F7
:103D7000EF84F888E7E1F2E080E090E0B0E02A2FFD
:103D800030E0A901082E02C0559547950A94E2F744
:103D900040FF12C0478D50A161A172A14601570199
:103DA000841A950AA60AB70A181419041A041B04DF
:103DB0001CF4B82F6A017B01019638968430910576
:103DC00001F72B2F30E03E832D83890163E0000F44
:103DD000111F6A95E1F7F801E95EFD4F268D90E12C
:103DE0008B2E912CA12CB12C81E0820F803110F010
:103DF00081EF820F282F30E041E050E0082E02C012
:103E0000440F551F0A94E2F769857A8546235723A4
:103E1000452B41F1F901EE0FFF1FEE56FD4F40819A
:103E200051816B857C8546235723452BD9F0220F82
:103E3000331F220F331FF901E95EFD4F43AD54AD2F
:103E400065AD76AD437055276627772784169506AE
:103E5000A606B70639F4F801E95EFD4F868F809318
:103E6000B40210C0915011F0282FBECF81E090E035
:103E70000D8002C0880F991F0A94E2F78095A8234D
:103E800009F074CFC0921702D0921802E092190282
:103E9000F0921A0289899A89977F9093BF02809342
:103EA000BE0208C0C0901702D0901802E09019021C
:103EB000F0901A022091B5028091BE029091BF024B
:103EC000211102C090FF12C04091B6025091B7027A
:103ED0006091B8027091B90297018601041B150B1D
:103EE000260B370B37FF02C06A017B019C01227051
:103EF000332781FF27C02114310429F44CE65CEDFF
:103F000062E070E004C042EA5AE464E070E04C0D04
:103F10005D1D6E1D7F1D89809A80AB80BC80481915
:103F200059096A097B09141615061606170654F472
:103F300040E1C501B40166537D4F8E4F9F4F0E94F3
:103F40004A13BFC2B301A201425C5F4F6F4F7F4F64
:103F500046015701841A950AA60AB70AB7FEA1C2FC
:103F60009090C202232809F444C085FF0FC08091BD
:103F7000C402815048F0E92DF0E0EF52FE4F9081ED
:103F80009F3FB9F39A94F5CF80EC01C080E0809315
:103F9000580389E593E00E940F0981E693E00E94AF
:103FA0001809909102038091030390936903809311
:103FB0006A0383EB93E00E94210943E150E068E546
:103FC00073E08AE00E942329AB01BC018BE693E0F9
:103FD0000E949E1787E1809357038091020390917E
:103FE00003030196909303038093020386E997E10C
:103FF000DCC1409128035091290360912A037091FC
:104000002B0340385F4F6F4F7F4FF0F065E678E24B
:104010008AE292E062960FB6F894DEBF0FBECDBF83
:10402000DF91CF911F910F91FF90EF90DF90CF9094
:10403000BF90AF909F908F907F906F905F904F90C8
:104040003F902F900C94DE0B2091540321110DC052
:1040500040912C0350912D0360912E0370912F03FA
:104060004F3F5F4F6F4F7F4F89F29C01287133277D
:104070002031310521F08090CD028D8201C01D825A
:10408000827094708230944089F480E18093600360
:104090008091450310E1819FC00111249091440358
:1040A000892B809361030AE010E002C008E010E071
:1040B00080913903882349F0F801E85AFC4F84E0E5
:1040C00080830F5F1F4F10923903409140034423B8
:1040D00079F0C801895E9D4FFC01EF5BFE4F55E012
:1040E00050833196437040830E5F1F4F1092400300
:1040F00080913603882399F0C801895E9D4FFC01A9
:10410000EF5BFE4F46E0408331964FEF40833196A0
:104110004091340340830D5F1F4F1092360340914E
:104120003503442379F0C801895E9D4FFC01EF5BA4
:10413000FE4F53E050833196477040830E5F1F4F10
:104140001092350380914203882339F0F801E85A30
:10415000FC4F82E180830F5F1F4F809132038823E1
:1041600039F08091310387FD1092310310923203B0
:1041700040914303442379F0C801895E9D4FFC01BF
:10418000EF5BFE4F51E150833196417040830E5FEB
:104190001F4F1092430340913A03442379F0C80122
:1041A000895E9D4FFC01EF5BFE4F57E050833196D7
:1041B000437040830E5F1F4F10923A032031310548
:1041C00021F04D814B5F498302C054E05983402F59
:1041D0008980800E8982582D513430F4FF24F39465
:1041E0002031310531F404C094E0892E800E89829B
:1041F000F12C80E480935803909130032091370391
:10420000292B909131039095892F881F8827881F2B
:104210008295880F880F807C98EF940F922B892BC2
:1042200080935D0340912403509125036091260300
:104230007091270389E593E00E941516209154039D
:10424000211113C080912C0390912D03A0912E0376
:10425000B0912F030196A11DB11D80932C03909363
:104260002D03A0932E03B0932F0380912C039091E4
:104270002D03019780935E0390935F0310923003A8
:10428000FF2009F443C08091CC02882341F080E8EC
:1042900080935803211103C081E080935403F801F7
:1042A000E85AFC4F8091CB0280839801275A3C4FFB
:1042B00069018D80A82CB12CA5016EEC72E0C901BA
:1042C0000E947B338091CB02882319F084E193E034
:1042D00002C084E093E0A114B104C1F000912C036A
:1042E00010912D0320912E0330912F0301501109BD
:1042F000210931094091240350912503609126033F
:1043000070912703E12CF12C0E941B168980082D47
:1043100010E004501109C0902C03D0902D03E090C0
:104320002E03F0902F0321E0C21AD108E108F10812
:104330004091240350912503609126037091270337
:10434000E3E6F4E0DF01E0E18E2E1D928A94E9F7C6
:1043500089E480936304109268040093720489E6F0
:1043600094E00E941516B701A6018DE694E00E9424
:104370001516E4E0F3E0A3EBB3E080E1A82E019092
:104380000D92AA94E1F7A80168E573E082E00E942B
:104390002329AB01BC01C801885A9C4F0E949E177B
:1043A0008980809257038BE897E190933102809344
:1043B0003002E92DF0E0EF52FE4F21812F798091FC
:1043C000C30200E2809FC0011124822B9093260239
:1043D00080932502909228022091BE023091BF0264
:1043E0002F76367F206838603093BF022093BE025C
:1043F000E091B40214E0E19FF0011124E95EFD4F69
:1044000083AC94ACA5ACB6AC609157030E947C1809
:104410006B017C01D501C40183709927AA27BB27B2
:104420002CEF822280921F0290922002A092210201
:10443000B092220243E0880F991F4A95E1F7FC01F0
:10444000E95EFD4F858D80932902A38DB48DA70170
:1044500096010E94B431DC01CB01840D951DA61D8F
:10446000B71D878F90A3A1A3B2A38091B502882323
:1044700099F004C0CC0CDD1CEE1CFF1C8A95D2F711
:10448000C40CD51CE61CF71CC092B602D092B70231
:10449000E092B802F092B90281E10E94B92381E072
:1044A000B8C0232B09F4DCC0C114D104E104F10429
:1044B00059F4C12CD12C7601C39406C0398931FF3F
:1044C0003FC1C12CD12C76018091BE029091BF02D8
:1044D00091FF65C0B301A201425C5F4F6F4F7F4FF8
:1044E0004D835E836F83788740914C0350914D03D9
:1044F00060914E0370914F03DB01CA018D809E8055
:10450000AF80B88488199909AA09BB09B7FF9BC075
:104510001091460317FD43C0E1E0F0E00090450331
:1045200002C0EE0FFF1F0A94E2F71E0F109346031E
:1045300017FD35C0A12FB0E020E038E94AE350E094
:104540000E94B431DC01CB0127E0B595A795979582
:1045500087952A95D1F78090480390904903A090C1
:104560004A03B0904B03880E991EAA1EBB1E82E020
:104570008E0F60914403810F0E943512861A970AAC
:10458000A80AB90A80924C0390924D03A0924E0360
:10459000B0924F038091270280934703A5CFC114A7
:1045A000D104E104F10461F0D701C60189809A8049
:1045B000AB80BC8088199909AA09BB09B7FD50C016
:1045C0000E94A412809199038093270280919A03FC
:1045D00090919B03A0919C03B0919D0380931B023B
:1045E00090931C02A0931D02B0931E02D301C2013E
:1045F00089809A80AB80BC8088199909AA09BB0977
:10460000B7FD52C08EE194E2909331028093300264
:1046100082E062960FB6F894DEBF0FBECDBFDF9189
:10462000CF911F910F91FF90EF90DF90CF90BF90AF
:10463000AF909F908F907F906F905F904F903F9042
:104640002F900C947E11C114D104E104F10499F16E
:10465000D701C601841B950BA60BB70BB7FF2BC068
:10466000B701A6014E5351096109710929EF36E2DC
:104670008AE292E062960FB6F894DEBF0FBECDBF1D
:10468000DF91CF911F910F91FF90EF90DF90CF902E
:10469000BF90AF909F908F907F906F905F904F9062
:1046A0003F902F900C94040C26EC33E149815A8101
:1046B0006B817C81DDCF80914703809327024093FB
:1046C0001B0250931C0260931D0270931E02809186
:1046D000500390915103A0915203B09153038093E2
:1046E0001F0290932002A0932102B0932202E09136
:1046F0004403F0E0EF52FE4F818190E08F778068B5
:10470000909326028093250210925703441955096D
:1047100066097709423C5F4F6F4F7F4F14F40E9448
:10472000A80D40911B0250911C0260911D027091D6
:104730001E024E535109610971092FEC33E198CFE4
:1047400062960FB6F894DEBF0FBECDBFDF91CF915A
:104750001F910F91FF90EF90DF90CF90BF90AF909F
:104760009F908F907F906F905F904F903F902F9091
:1047700008950E942D090C94011E80E00E947E1174
:104780008AE292E00E94CB0B8091570381110BC00B
:104790008091BE029091BF028C7F9093BF02809364
:1047A000BE0281E049C00E94C117181619069CF08C
:1047B0001092570383E00E947E1140919E03509116
:1047C0009F036091A0037091A1032DEB33E28AE275
:1047D00092E00C94040C1092C6021092C502109242
:1047E000CA021092C902109241038091A4038C6006
:1047F0008093A4038BE08093990380919E03909112
:104800009F03A091A003B091A103805C974FA24C9D
:10481000BF4F80939A0390939B03A0939C03B09304
:104820009D038091BE029091BF028E7F8260909323
:10483000BF028093BE0282E00C94B923CF92DF9234
:10484000EF92FF92CF9380915703882309F47BC0A6
:10485000C0909E03D0909F03E090A003F090A1032E
:10486000C091A4030E94C117181619060CF06BC062
:10487000C370C9F48BE08093990380919E0390915B
:104880009F03A091A003B091A103805C974FA24C1D
:10489000BF4F80939A0390939B03A0939C03B09384
:1048A0009D03C4E0DAC027EFD21A80919E03909155
:1048B0009F03C81AD90A60914103662379F02091B9
:1048C000C5023091C602C601821B930B70E06F5F78
:1048D0007F4F0E945E316901C60ED71E2091A4034E
:1048E00022FD1DC08091C5029091C6028C199D09C0
:1048F00097FF03C09195819591099093C802809389
:10490000C7024091C9025091CA024817590724F4BE
:104910009093CA028093C902277F2093A403D09268
:10492000C602C092C5021092C40210924103809147
:10493000A403982F9B7F9093A403837009F069C010
:104940000E94A80D66C0C090C502D090C6020D2C72
:10495000000CEE08FF0880E099E0ADE3B0E0AC01A8
:10496000BD014C195D096E097F0980919E039091EC
:104970009F03A091A003B091A103840F951FA61FD0
:10498000B71F80939E0390939F03A093A003B093BF
:10499000A103C090A503D090A603E090A703F090D8
:1049A000A80320E8C20ED11CE11CF11CC092A50393
:1049B000D092A603E092A703F092A80320914103AE
:1049C0002F5F20934103BC01CD0166537D4F8E4F75
:1049D0009F4F44E00E944A1380914103853148F083
:1049E0008091BE029091BF0280629093BF0280933B
:1049F000BE0280919903853670F08091BE0290913D
:104A0000BF028D7D997F9093BF028093BE028BE0A1
:104A10002CC0C4E001C0C3E0C0909E03D0909F03AF
:104A2000E090A003F090A10389E0D80E8DE3E81E8A
:104A3000F11C63E080E00E943512C61AD70AE80A2A
:104A4000F90AC0929A03D0929B03E0929C03F092E1
:104A50009D0380912702809399038091BE029091DB
:104A6000BF0291FD0E9462168C2FCF91FF90EF90B4
:104A7000DF90CF900C94B923CF92DF92EF92FF9208
:104A80000F931F93CF93DF9380915503813031F4BF
:104A900080915703811102C00E94A80D8091BE022F
:104AA00087FF0E94A80D1091570311118FC08091AC
:104AB000BE029091BF0282FD15C085FF0E94A80D25
:104AC0008091BE029091BF028F759093BF02809338
:104AD000BE028091C4028A3018F48F5F8093C402B2
:104AE00089E05CC12091B4022F5F263019F0209339
:104AF000B40202C01092B402209154032F5F20939D
:104B0000540320FD0EC02091C202222361F0E22F47
:104B1000F0E0EF52FE4F30813F3F09F021502093EB
:104B2000C202C0E001C0C1E08F77977F9093BF02BF
:104B30008093BE020E94C90B6B017C0180913602FA
:104B400090913702A0913802B0913902B701A601C5
:104B5000481B590B6A0B7B0B77FF02C06C017D0170
:104B60008FEF90E00090C20202C0959587950A945D
:104B7000E2F70E940813DC01CB018A5C9149AE4F39
:104B8000BF4FC80ED91EEA1EFB1EC0921702D0925C
:104B90001802E0921902F0921A02CC2ED12CE12CCC
:104BA000F12CC11103C0C9EFD6E202C0C3EFD6E2B7
:104BB0000E94C90BAB01BC014C0D5D1D6E1D7F1D1C
:104BC0009E018AE292E00E94040CEAC0113141F099
:104BD000113231F08091550380FF69CF80E0E1C050
:104BE00080915803837E8032A9F7C12FD0E083EBF8
:104BF00093E00E942109AE014150510969E573E03B
:104C000080E00E94232983EB93E00E9421092497EE
:104C1000AE0168E573E08AE00E9423296B017C0104
:104C2000CE01885A9C4F0E94ED15C616D706E8069D
:104C3000F90681F68FE593E00E94C1156093240385
:104C40007093250380932603909327038CE593E0CC
:104C50000E94C115DC01CB01BB278093BA0290935F
:104C6000BB02A093BC02B093BD0280E00E946D1411
:104C7000123108F049C0809102039091030301971B
:104C800020E1E4E0F3E0DF01322F1D923A95E9F7ED
:104C900031E03093040336E0E9E5F3E0A5E0B3E06A
:104CA00001900D923A95E1F780930B0390930C03DA
:104CB000E4E0F3E0A4E1B3E001900D922A95E1F77E
:104CC00082E08093140383EB93E00E94210940E18A
:104CD00050E064E073E080E00E94232983EB93E0DE
:104CE0000E94210940E150E064E173E080E00E940D
:104CF00023298091BE029091BF0284729927892B4B
:104D0000F9F40E94A80D1CC085E6E82E83E0F82E79
:104D1000C3E0C7010E94CF15AB01BC01411551058D
:104D20006105710531F00FEF20E030E08C2F0E941B
:104D30004119CF5F83E0E80EF11CC83051F79BCFDB
:104D40008091BE029091BF0285FF11C03091C402D4
:104D50002091C202315048F0E22FF0E0EF52FE4FB6
:104D600040814F3FB9F32150F5CF2093C20289759E
:104D70009D7F9093BF028093BE02109254030E94C5
:104D8000C212809163038F7080933B038091640310
:104D9000811101C081E08093330386E00E94B92332
:104DA00081E0DF91CF911F910F91FF90EF90DF9005
:104DB000CF90089580915703811108C04EE154E1CE
:104DC0006CE67CED82E090E00C9486130E943C251A
:104DD0008823A1F3089580915703811102C0109296
:104DE00055030C943C2588E00C94B92385E00C9481
:104DF000B9230C94011E80915703882351F084E05D
:104E0000809355030E94C919882319F08DE00C94F2
:104E1000B9230C94011E8091BE0287FF0E94A80D49
:104E200080915703811198C0E0915403EE2391F1D2
:104E3000E83070F5EF5FE0935403F0E0EE55FE4F7D
:104E400090818091C202915048F0E82FF0E0EF523B
:104E5000FE4F20812F3FB9F38150F5CF60E80E94CB
:104E6000F01460911B0270911C0280911D029091C0
:104E70001E0243E00E944A138091BE029091BF023D
:104E80008F779093BF028093BE020E94011E62C082
:104E900080E601C080E28093550380913103803821
:104EA00019F08F5F809331031092570310925603CD
:104EB0008091BE029091BF029C0127773093BF0280
:104EC0002093BE0220915503277059F094FF09C02A
:104ED00087779F7E9093BF028093BE028FE00E94EF
:104EE000B9238AE00E94B923809131038931ECF023
:104EF0008091C202E82FF0E0EF52FE4F90819F3F79
:104F000009F0815060E80E94F0148CE08093310336
:104F10008091BE029091BF02806290619093BF0227
:104F20008093BE028EE00E94B923809142038823C1
:104F300089F09091BE0291FF06C082E00E94B923E1
:104F40001092420307C0815080934203811102C036
:104F50000E94261481E008950E94C9198111A8CFEA
:104F60009091550390FF60CF089580915703811170
:104F70000CC0A0913303B0E0119622E13AE70E9401
:104F8000AD3146E154E10C9486130E940B2788232F
:104F900081F30895CF92DF92EF92FF9280915703B1
:104FA000811120C0109255030E94C90B6B017C0136
:104FB00082E00E94081326E3C20E2EE6D21E21E0F4
:104FC000E21EF11CAB01BC014C0D5D1D6E1D7F1D71
:104FD00028EF37E28AE292E0FF90EF90DF90CF90E7
:104FE0000C94040CFF90EF90DF90CF900C940B2763
:104FF0000C940B27EEEBF2E0808191818C7F918302
:105000008083109242030C94011E811180E88093EA
:10501000370308950C94F0148AE292E00E94CB0BBF
:1050200080E00E947E11EEEBF2E08081918180644D
:10503000918380830895CF9380E00E947E118AE25D
:1050400092E00E94CB0B8CE991E0E7E1F2E0DF0116
:105050009C011D9221503040E1F70E94A510C82FFD
:105060000E94A5102C2F30E0322F2227282B3093BE
:105070000303209302031092BF021092BE0210920B
:10508000C30280E88093370310923B0388E096EEDA
:10509000A3EDB3E380933C0390933D03A0933E03C1
:1050A000B0933F0321E02093330380935003909308
:1050B0005103A0935203B093530383E080934403BE
:1050C0008FEF80934503CF9108950E941B280E9483
:1050D0008D1D8CE00C94B92380E490E09093BF0286
:1050E0008093BE0208958091BE029091BF029C0100
:1050F00027763093BF022093BE021092CD028570B6
:105100009927892B49F48AE292E00E94CB0B80E038
:105110000E947E110C94011E08958091BE02909110
:10512000BF029C0128603093BF022093BE0282FF21
:10513000109254030C94011E1F93CF93DF934533B9
:10514000B0F4122FC42FD82F6115710529F050E04B
:105150008EEC92E00E947B331093CC02D093CB0272
:10516000C093CD020E948D2880E090E002C08EEFB7
:105170009FEFDF91CF911F910895EEEBF2E08081D8
:1051800091818061918380830C94011EEEEBF2E0AB
:10519000808191818062918380830C94011EEF92C3
:1051A000FF920F931F936093BA027093BB02809398
:1051B000BC029093BD0220932403309325034093B7
:1051C0002603509327030115110541F080E1F801F2
:1051D000A4E0B3E001900D928A95E1F7E114F104A7
:1051E00041F080E1F701A4E1B3E001900D928A95CE
:1051F000E1F780E00E946D148091BE029091BF02A1
:1052000089759D7F98609093BF028093BE021F9125
:105210000F91FF90EF900C94C21210923203811103
:1052200002C080E801C084EF809331030895660FC7
:10523000771F660F771F860F971FFC016591759189
:105240008591949108952F923F924F925F926F9221
:105250007F928F929F92AF92BF92CF92DF92EF9206
:10526000FF920F931F93CF93DF93CDB7DEB7AB972A
:105270000FB6F894DEBF0FBECDBF898B7BA76AA7A0
:105280001A0103EB13E01A87098723EC33E0F801D6
:1052900060817181828193810E94973161937193C2
:1052A000819391932E173F0799F78091BF039091B7
:1052B000C003A091C103B091C20304E010E09801C3
:1052C00023703327232B81F5EA2FF0E0E657FF4EBA
:1052D00024912A8BE92FF0E0E657FF4E34913D8769
:1052E000E82FF0E0E657FF4E44914E8B8B2F992725
:1052F000AA27BB27FC01E657FF4E54915A8FB801ED
:105300006450710975956795759567958AE891E17F
:105310000E941729DC01CB01EA8D8E27FA89BF276D
:105320002D85A2273E899327E985FA8541915191E0
:1053300061917191FA87E98784279527A627B72776
:1053400084879587A687B7870F5F1F4F0C3211059B
:1053500009F0B5CF098903FF21C010926F041092A4
:105360007004109271041092720410926B041092E7
:105370006C0410926D0410926E04109267041092E7
:1053800068041092690410926A04109263041092E7
:105390006404109265041092660477C060916304FF
:1053A0007091640480916504909166040E94973125
:1053B000609363047093640480936504909366041F
:1053C00060916704709168048091690490916A0407
:1053D0000E94973160936704709368048093690416
:1053E00090936A0460916B0470916C0480916D04D9
:1053F00090916E040E94973160936B0470936C04DB
:1054000080936D0490936E0460916F0470917004AA
:1054100080917104909172040E94973160936F049F
:105420007093700480937104909372042EC029814C
:105430003A814B815C8120936304309364044093F0
:10544000650450936604C0926704D0926804E092A9
:105450006904F0926A0440926B0450926C0460926A
:105460006D0470926E0480926F0490927004A0920A
:105470007104B092720409891D821E821F821886EF
:1054800003FDD1C609890860098B12140CF0D5C63A
:10549000198912FD04C011FF19C613FD25C0209102
:1054A000630430916404409165045091660429833B
:1054B0003A834B835C83C0906704D0906804E0908B
:1054C0006904F0906A0440906B0450906C04609002
:1054D0006D0470906E0480906F0490907004A090A2
:1054E0007104B09072049DC031E12316310408F0BC
:1054F000EDC540E12416310411F480E101C080E2E1
:105500000989082B098B812C912C5401412C512C99
:105510003201C12CD12C760119821A821B821C8285
:1055200080C04D815E816F817885762F652F542FE5
:1055300044274D835E836F83788709851A852B8581
:105540003C8580179107A207B30708F0CCC54081BE
:1055500050E060E070E00D811E812F813885042BC2
:10556000152B262B372B0D831E832F833887AC01F9
:10557000BD014370552766277727433051056105E4
:10558000710551F4C982DA82EB82FC8273016201F7
:1055900024013501480159010196A11DB11D319623
:1055A00080319105A105B10509F0BBCF198911FF23
:1055B00038C08091630490916404A0916504B09117
:1055C000660429813A814B815C81282739274A2743
:1055D0005B2729833A834B835C8380916704909196
:1055E0006804A0916904B0916A04C826D926EA2605
:1055F000FB2680916B0490916C04A0916D04B09196
:105600006E04482659266A267B2680916F04909165
:105610007004A0917104B091720488269926AA267C
:10562000BB268091B3039091B403A091B503B091D0
:10563000B60349815A816B817C81482759276A27A3
:105640007B2749835A836B837C838091B703909136
:10565000B803A091B903B091BA0397018601082756
:1056600019272A273B270D831E832F833887809194
:10567000BB039091BC03A091BD03B091BE03A301F5
:105680009201282739274A275B2729873A874B87A2
:105690005C878091BF039091C003A091C103B0913A
:1056A000C203B501A401482759276A277B274A8BE3
:1056B0005B8B6C8B7D8B03EB13E0D80154966D9163
:1056C0007D918D919C9157976D877E878F87988B61
:1056D00058962D913D914D915C915B972E8B3F8B10
:1056E000488F598F5C962D913D914D915C915F97BC
:1056F0002A8F3B8F4C8F5D8F50962D913D914D9110
:105700005C9153972E8F3F8F48A359A3B9816B2F7C
:1057100070E08AE890E00E9417296AA37BA38CA31B
:105720009DA3EA816E2F70E08AE894E00E94172919
:105730002B013C01FB816F2F70E08AE898E00E940A
:1057400017294B015C0129813A814B815C81652FCE
:105750007727882799278AE89CE00E9417296B0100
:105760007C013D81632F70E08AE890E00E94172958
:10577000A301920126273727482759272EA33FA3A5
:1057800048A759A73E81632F70E08AE894E00E9401
:10579000172986269726A826B9264F81642F70E000
:1057A0008AE898E00E941729C626D726E826F92617
:1057B0002D813E814F815885652F7727882799272E
:1057C0008AE89CE00E9417294AA05BA06CA07DA0FB
:1057D00046265726682679263985632F70E08AE8A1
:1057E00090E00E9417299B01AC01282539254A2504
:1057F0005B2529833A834B835C833A85632F70E072
:105800008AE894E00E941729C626D726E826F926BA
:105810004B85642F70E08AE898E00E9417294B01BD
:105820005C0184249524A624B72429853A854B85D8
:105830005C85652F7727882799278AE89CE00E9456
:1058400017294EA05FA068A479A44626572668268B
:1058500079263A89632F70E08AE890E00E94172940
:10586000C626D726E826F9264E8D5F8D68A179A138
:10587000C426D526E626F7265B89652F70E08AE8E0
:1058800094E00E941729DC01CB0188259925AA25DF
:10589000BB252D853E854F855889282739274A27DE
:1058A0005B272D873E874F87588B3C89632F70E09D
:1058B0008AE898E00E941729462657266826792606
:1058C0004E895F89688D798D442555256625772514
:1058D0004E8B5F8B688F798F2A893B894C895D89D4
:1058E000652F7727882799278AE89CE00E94172947
:1058F00089809A80AB80BC8086269726A826B92608
:105900004A8D5B8D6C8D7D8D482559256A257B25BB
:105910004A8F5B8F6C8F7D8FD80194966D917D91AE
:105920008D919C9197976D837E838F8398879896AE
:105930002D913D914D915C919B9729873A874B879B
:105940005C879C962D913D914D915C919F972A8B00
:105950003B8B4C8B5D8B90962D913D914D915C9145
:10596000939729833A834B835C836C2D70E08AE89C
:1059700090E00E9417296E8F7F8F88A399A36D2DC9
:1059800070E08AE894E00E9417292B013C016E2DFB
:1059900070E08AE898E00E9417294B015C016F2DA6
:1059A0007727882799278AE89CE00E9417296B01AE
:1059B0007C01BD856B2F70E08AE890E00E9417297A
:1059C000A301920126273727482759272AA33BA35B
:1059D0004CA35DA33E85632F70E08AE894E00E94AB
:1059E00017292401350146265726682679264F8532
:1059F000642F70E08AE898E00E941729C626D7260F
:105A0000E826F9262D853E854F855889652F77270D
:105A1000882799278AE89CE00E9417298E8C9F8C02
:105A2000A8A0B9A086269726A826B9263E89632F66
:105A300070E08AE890E00E9417299B01AC012425C0
:105A40003525462557252D873E874F87588B3F891B
:105A5000632F70E08AE894E00E941729C626D726B3
:105A6000E826F926488D642F70E08AE898E00E94C5
:105A7000172986269726A826B9262E893F89488D7C
:105A8000598D652F7727882799278AE89CE00E94FF
:105A900017294AA05BA06CA07DA046265726682641
:105AA00079263A8D632F70E08AE890E00E941729EA
:105AB000C626D726E826F92649815A816B817C8142
:105AC0004C255D256E257F2549835A836B837C8316
:105AD0005B8D652F70E08AE894E00E941729DC0155
