:100000000C94D9080C94E00E0C94F6080C94F608A5
:100010000C94F6080C94050F0C94F6080C94F60852
:100020000C94F6080C94F6080C94F6080C94F60858
:100030000C94F6080C94F6080C94F6080C94F60848
:100040000C948F0E0C94F6080C94F6080C94F60899
:100050000C94B40E0C94F6080C94F6080C94F60864
:100060000C94F6080C94F6081C1C221CD21C9F1C35
:10007000961CF81CD11DD11DD11DD11DD11DD11D26
:10008000D11DD11DD11D3C1D5A1DC6A56363F88429
:100090007C7CEE997777F68D7B7BFF0DF2F2D6BDF7
:1000A0006B6BDEB16F6F9154C5C560503030020389
:1000B0000101CEA96767567D2B2BE719FEFEB562BD
:1000C000D7D74DE6ABABEC9A76768F45CACA1F9D63
:1000D00082828940C9C9FA877D7DEF15FAFAB2EBB1
:1000E00059598EC94747FB0BF0F041ECADADB367F2
:1000F000D4D45FFDA2A245EAAFAF23BF9C9C53F7C7
:10010000A4A4E49672729B5BC0C075C2B7B7E11C31
:10011000FDFD3DAE93934C6A26266C5A36367E41E1
:100120003F3FF502F7F7834FCCCC685C343451F491
:10013000A5A5D134E5E5F908F1F1E2937171AB734E
:10014000D8D8625331312A3F1515080C0404955252
:10015000C7C7466523239D5EC3C33028181837A13F
:1001600096960A0F05052FB59A9A0E0907072436A9
:1001700012121B9B8080DF3DE2E2CD26EBEB4E6945
:1001800027277FCDB2B2EA9F7575121B09091D9E04
:10019000838358742C2C342E1A1A362D1B1BDCB278
:1001A0006E6EB4EE5A5A5BFBA0A0A4F65252764D86
:1001B0003B3BB761D6D67DCEB3B3527B2929DD3E1A
:1001C000E3E35E712F2F13978484A6F55353B96828
:1001D000D1D100000000C12CEDED40602020E31FD4
:1001E000FCFC79C8B1B1B6ED5B5BD4BE6A6A8D46E2
:1001F000CBCB67D9BEBE724B393994DE4A4A98D40C
:100200004C4CB0E85858854ACFCFBB6BD0D0C52AEC
:10021000EFEF4FE5AAAAED16FBFB86C543439AD73D
:100220004D4D66553333119485858ACF4545E91088
:10023000F9F904060202FE817F7FA0F05050784455
:100240003C3C25BA9F9F4BE3A8A8A2F351515DFE09
:10025000A3A380C04040058A8F8F3FAD929221BCFE
:100260009D9D70483838F104F5F563DFBCBC77C15B
:10027000B6B6AF75DADA4263212120301010E51AE4
:10028000FFFFFD0EF3F3BF6DD2D2814CCDCD18141C
:100290000C0C26351313C32FECECBEE15F5F35A2C7
:1002A000979788CC44442E3917179357C4C455F2F6
:1002B000A7A7FC827E7E7A473D3DC8AC6464BAE75E
:1002C0005D5D322B1919E6957373C0A060601998B3
:1002D00081819ED14F4FA37FDCDC44662222547E75
:1002E0002A2A3BAB90900B8388888CCA4646C72944
:1002F000EEEE6BD3B8B8283C1414A779DEDEBCE26E
:100300005E5E161D0B0BAD76DBDBDB3BE0E064567F
:100310003232744E3A3A141E0A0A92DB49490C0AE8
:100320000606486C2424B8E45C5C9F5DC2C2BD6EC6
:10033000D3D343EFACACC4A6626239A8919131A487
:100340009595D337E4E4F28B7979D532E7E78B439F
:10035000C8C86E593737DAB76D6D018C8D8DB164B1
:10036000D5D59CD24E4E49E0A9A9D8B46C6CACFA54
:100370005656F307F4F4CF25EAEACAAF6565F48E62
:100380007A7A47E9AEAE101808086FD5BABAF08885
:1003900078784A6F25255C722E2E38241C1C57F164
:1003A000A6A673C7B4B49751C6C6CB23E8E8A17C10
:1003B000DDDDE89C74743E211F1F96DD4B4B61DC34
:1003C000BDBD0D868B8B0F858A8AE09070707C4254
:1003D0003E3E71C4B5B5CCAA666690D848480605BD
:1003E0000303F701F6F61C120E0EC2A361616A5FE9
:1003F0003535AEF9575769D0B9B9179186869958EE
:10040000C1C13A271D1D27B99E9ED938E1E1EB13E2
:10041000F8F82BB3989822331111D2BB6969A970EF
:10042000D9D907898E8E33A794942DB69B9B3C22F5
:100430001E1E15928787C920E9E98749CECEAAFFFB
:10044000555550782828A57ADFDF038F8C8C59F812
:10045000A1A1098089891A170D0D65DABFBFD731AF
:10046000E6E684C64242D0B8686882C3414129B0FA
:1004700099995A772D2D1E110F0F7BCBB0B0A8FC88
:1004800054546DD6BBBB2C3A161663C6A5637CF8D4
:10049000847C77EE99777BF68D7BF2FF0DF26BD63D
:1004A000BD6B6FDEB16FC59154C530605030010235
:1004B000030167CEA9672B567D2BFEE719FED7B542
:1004C00062D7AB4DE6AB76EC9A76CA8F45CA821FEF
:1004D0009D82C98940C97DFA877DFAEF15FA59B224
:1004E000EB59478EC947F0FB0BF0AD41ECADD4B3EF
:1004F00067D4A25FFDA2AF45EAAF9C23BF9CA45383
:10050000F7A472E49672C09B5BC0B775C2B7FDE1F9
:100510001CFD933DAE93264C6A26366C5A363F7EC0
:10052000413FF7F502F7CC834FCC34685C34A551DA
:10053000F4A5E5D134E5F1F908F171E29371D8AB96
:1005400073D831625331152A3F1504080C04C7953E
:1005500052C723466523C39D5EC3183028189637BB
:10056000A196050A0F059A2FB59A070E09071224BE
:100570003612801B9B80E2DF3DE2EBCD26EB274E5F
:100580006927B27FCDB275EA9F7509121B09831DD9
:100590009E832C58742C1A342E1A1B362D1B6EDC9D
:1005A000B26E5AB4EE5AA05BFBA052A4F6523B7650
:1005B0004D3BD6B761D6B37DCEB329527B29E3DD5F
:1005C0003EE32F5E712F8413978453A6F553D1B960
:1005D00068D100000000EDC12CED20406020FCE35C
:1005E0001FFCB179C8B15BB6ED5B6AD4BE6ACB8D36
:1005F00046CBBE67D9BE39724B394A94DE4A4C9815
:10060000D44C58B0E858CF854ACFD0BB6BD0EFC59B
:100610002AEFAA4FE5AAFBED16FB4386C5434D9A88
:10062000D74D3366553385119485458ACF45F9E911
:1006300010F9020406027FFE817F50A0F0503C7842
:10064000443C9F25BA9FA84BE3A851A2F351A35D58
:10065000FEA34080C0408F058A8F923FAD929D21BE
:10066000BC9D38704838F5F104F5BC63DFBCB67743
:10067000C1B6DAAF75DA2142632110203010FFE5F0
:100680001AFFF3FD0EF3D2BF6DD2CD814CCD0C1805
:10069000140C13263513ECC32FEC5FBEE15F9735C6
:1006A000A2974488CC44172E3917C49357C4A75532
:1006B000F2A77EFC827E3D7A473D64C8AC645DBA99
:1006C000E75D19322B1973E6957360C0A06081193C
:1006D00098814F9ED14FDCA37FDC224466222A54AE
:1006E0007E2A903BAB90880B8388468CCA46EEC727
:1006F00029EEB86BD3B814283C14DEA779DE5EBCB3
:10070000E25E0B161D0BDBAD76DBE0DB3BE032641B
:1007100056323A744E3A0A141E0A4992DB49060CC4
:100720000A0624486C245CB8E45CC29F5DC2D3BD59
:100730006ED3AC43EFAC62C4A6629139A8919531F7
:10074000A495E4D337E479F28B79E7D532E7C88B07
:1007500043C8376E59376DDAB76D8D018C8DD5B1C1
:1007600064D54E9CD24EA949E0A96CD8B46C56AC65
:10077000FA56F4F307F4EACF25EA65CAAF657AF4CE
:100780008E7AAE47E9AE08101808BA6FD5BA78F07D
:100790008878254A6F252E5C722E1C38241CA6579B
:1007A000F1A6B473C7B4C69751C6E8CB23E8DDA160
:1007B0007CDD74E89C741F3E211F4B96DD4BBD61B0
:1007C000DCBD8B0D868B8A0F858A70E090703E7C35
:1007D000423EB571C4B566CCAA664890D8480306B7
:1007E0000503F6F701F60E1C120E61C2A361356A0D
:1007F0005F3557AEF957B969D0B986179186C19957
:1008000058C11D3A271D9E27B99EE1D938E1F8EB62
:1008100013F8982BB3981122331169D2BB69D9A967
:1008200070D98E07898E9433A7949B2DB69B1E3C5E
:10083000221E87159287E9C920E9CE8749CE55AA9D
:10084000FF5528507828DFA57ADF8C038F8CA159BB
:10085000F8A1890980890D1A170DBF65DABFE6D79F
:1008600031E64284C64268D0B8684182C3419929C2
:10087000B0992D5A772D0F1E110FB07BCBB054A815
:10088000FC54BB6DD6BB162C3A166363C6A57C7CA4
:10089000F8847777EE997B7BF68DF2F2FF0D6B6B28
:1008A000D6BD6F6FDEB1C5C59154303060500101C7
:1008B00002036767CEA92B2B567DFEFEE719D7D71B
:1008C000B562ABAB4DE67676EC9ACACA8F458282AA
:1008D0001F9DC9C989407D7DFA87FAFAEF155959DC
:1008E000B2EB47478EC9F0F0FB0BADAD41ECD4D471
:1008F000B367A2A25FFDAFAF45EA9C9C23BFA4A44F
:1009000053F77272E496C0C09B5BB7B775C2FDFD2A
:10091000E11C93933DAE26264C6A36366C5A3F3F17
:100920007E41F7F7F502CCCC834F3434685CA5A543
:1009300051F4E5E5D134F1F1F9087171E293D8D8B9
:10094000AB733131625315152A3F0404080CC7C735
:10095000955223234665C3C39D5E1818302896968A
:1009600037A105050A0F9A9A2FB507070E0912122B
:10097000243680801B9BE2E2DF3DEBEBCD26272770
:100980004E69B2B27FCD7575EA9F0909121B838348
:100990001D9E2C2C58741A1A342E1B1B362D6E6E6D
:1009A000DCB25A5AB4EEA0A05BFB5252A4F63B3B19
:1009B000764DD6D6B761B3B37DCE2929527BE3E31A
:1009C000DD3E2F2F5E71848413975353A6F5D1D14A
:1009D000B96800000000EDEDC12C20204060FCFC57
:1009E000E31FB1B179C85B5BB6ED6A6AD4BECBCB0D
:1009F0008D46BEBE67D93939724B4A4A94DE4C4C9B
:100A000098D45858B0E8CFCF854AD0D0BB6BEFEF21
:100A1000C52AAAAA4FE5FBFBED16434386C54D4DFB
:100A20009AD7333366558585119445458ACFF9F9B0
:100A3000E910020204067F7FFE815050A0F03C3C8A
:100A400078449F9F25BAA8A84BE35151A2F3A3A3D2
:100A50005DFE404080C08F8F058A92923FAD9D9D84
:100A600021BC38387048F5F5F104BCBC63DFB6B67C
:100A700077C1DADAAF752121426310102030FFFF11
:100A8000E51AF3F3FD0ED2D2BF6DCDCD814C0C0C27
:100A9000181413132635ECECC32F5F5FBEE1979754
:100AA00035A2444488CC17172E39C4C49357A7A73E
:100AB00055F27E7EFC823D3D7A476464C8AC5D5D44
:100AC000BAE71919322B7373E6956060C0A0818173
:100AD00019984F4F9ED1DCDCA37F222244662A2A3C
:100AE000547E90903BAB88880B8346468CCAEEEED2
:100AF000C729B8B86BD31414283CDEDEA7795E5E34
:100B0000BCE20B0B161DDBDBAD76E0E0DB3B3232EB
:100B100064563A3A744E0A0A141E494992DB060694
:100B20000C0A2424486C5C5CB8E4C2C29F5DD3D339
:100B3000BD6EACAC43EF6262C4A6919139A89595A5
:100B400031A4E4E4D3377979F28BE7E7D532C8C82A
:100B50008B4337376E596D6DDAB78D8D018CD5D5D6
:100B6000B1644E4E9CD2A9A949E06C6CD8B45656DB
:100B7000ACFAF4F4F307EAEACF256565CAAF7A7AEE
:100B8000F48EAEAE47E908081018BABA6FD5787877
:100B9000F08825254A6F2E2E5C721C1C3824A6A6D0
:100BA00057F1B4B473C7C6C69751E8E8CB23DDDD6F
:100BB000A17C7474E89C1F1F3E214B4B96DDBDBD8C
:100BC00061DC8B8B0D868A8A0F857070E0903E3ECB
:100BD0007C42B5B571C46666CCAA484890D8030378
:100BE0000605F6F6F7010E0E1C126161C2A335353B
:100BF0006A5F5757AEF9B9B969D086861791C1C1F6
:100C000099581D1D3A279E9E27B9E1E1D938F8F879
:100C1000EB1398982BB3111122336969D2BBD9D940
:100C2000A9708E8E0789949433A79B9B2DB61E1EA8
:100C30003C2287871592E9E9C920CECE87495555D0
:100C4000AAFF28285078DFDFA57A8C8C038FA1A11A
:100C500059F8898909800D0D1A17BFBF65DAE6E6D4
:100C6000D731424284C66868D0B8414182C399995D
:100C700029B02D2D5A770F0F1E11B0B07BCB5454D5
:100C8000A8FCBBBB6DD616162C3AA56363C6847C44
:100C90007CF8997777EE8D7B7BF60DF2F2FFBD6BDA
:100CA0006BD6B16F6FDE54C5C59150303060030113
:100CB0000102A96767CE7D2B2B5619FEFEE762D78E
:100CC000D7B5E6ABAB4D9A7676EC45CACA8F9D8216
:100CD000821F40C9C989877D7DFA15FAFAEFEB5961
:100CE00059B2C947478E0BF0F0FBECADAD4167D46C
:100CF000D4B3FDA2A25FEAAFAF45BF9C9C23F7A48B
:100D0000A453967272E45BC0C09BC2B7B7751CFD5A
:100D1000FDE1AE93933D6A26264C5A36366C413F30
:100D20003F7E02F7F7F54FCCCC835C343468F4A5F2
:100D3000A55134E5E5D108F1F1F9937171E273D869
:100D4000D8AB533131623F15152A0C04040852C741
:100D5000C795652323465EC3C39D28181830A19606
:100D600096370F05050AB59A9A2F0907070E36120E
:100D700012249B80801B3DE2E2DF26EBEBCD69274E
:100D8000274ECDB2B27F9F7575EA1B0909129E836B
:100D9000831D742C2C582E1A1A342D1B1B36B26E40
:100DA0006EDCEE5A5AB4FBA0A05BF65252A44D3B47
:100DB0003B7661D6D6B7CEB3B37D7B2929523EE3CD
:100DC000E3DD712F2F5E97848413F55353A668D10A
:100DD000D1B9000000002CEDEDC1602020401FFCC7
:100DE000FCE3C8B1B179ED5B5BB6BE6A6AD446CBB1
:100DF000CB8DD9BEBE674B393972DE4A4A94D44C8A
:100E00004C98E85858B04ACFCF856BD0D0BB2AEF6A
:100E1000EFC5E5AAAA4F16FBFBEDC5434386D74DA8
:100E20004D9A5533336694858511CF45458A10F91F
:100E3000F9E906020204817F7FFEF05050A0443C95
:100E40003C78BA9F9F25E3A8A84BF35151A2FEA37B
:100E5000A35DC04040808A8F8F05AD92923FBC9DBC
:100E60009D214838387004F5F5F1DFBCBC63C1B68C
:100E7000B67775DADAAF63212142301010201AFFFD
:100E8000FFE50EF3F3FD6DD2D2BF4CCDCD81140C36
:100E90000C18351313262FECECC3E15F5FBEA2974D
:100EA0009735CC4444883917172E57C4C493F2A7FA
:100EB000A755827E7EFC473D3D7AAC6464C8E75D01
:100EC0005DBA2B191932957373E6A06060C09881E2
:100ED0008119D14F4F9E7FDCDCA3662222447E2AFB
:100EE0002A54AB90903B8388880BCA46468C29EEE7
:100EF000EEC7D3B8B86B3C14142879DEDEA7E25EE7
:100F00005EBC1D0B0B1676DBDBAD3BE0E0DB563247
:100F100032644E3A3A741E0A0A14DB4949920A06B0
:100F2000060C6C242448E45C5CB85DC2C29F6ED39E
:100F3000D3BDEFACAC43A66262C4A8919139A4952D
:100F4000953137E4E4D38B7979F232E7E7D543C8BA
:100F5000C88B5937376EB76D6DDA8C8D8D0164D5BE
:100F6000D5B1D24E4E9CE0A9A949B46C6CD8FA56C2
:100F700056AC07F4F4F325EAEACFAF6565CA8E7A7A
:100F80007AF4E9AEAE4718080810D5BABA6F887877
:100F900078F06F25254A722E2E5C241C1C38F1A691
:100FA000A657C7B4B47351C6C69723E8E8CB7CDD17
:100FB000DDA19C7474E8211F1F3EDD4B4B96DCBD08
:100FC000BD61868B8B0D858A8A0F907070E0423EE2
:100FD0003E7CC4B5B571AA6666CCD8484890050376
:100FE000030601F6F6F7120E0E1CA36161C25F350F
:100FF000356AF95757AED0B9B9699186861758C185
:10100000C199271D1D3AB99E9E2738E1E1D913F8F1
:10101000F8EBB398982B33111122BB6969D270D9C0
:10102000D9A9898E8E07A7949433B69B9B2D221E37
:101030001E3C9287871520E9E9C949CECE87FF5526
:1010400055AA782828507ADFDFA58F8C8C03F8A169
:10105000A15980898909170D0D1ADABFBF6531E6DC
:10106000E6D7C6424284B86868D0C3414182B0998D
:101070009929772D2D5A110F0F1ECBB0B07BFC5440
:1010800054A8D6BBBB6D3A16162C637C777BF26BEB
:101090006FC53001672BFED7AB76CA82C97DFA597E
:1010A00047F0ADD4A2AF9CA472C0B7FD9326363FE3
:1010B000F7CC34A5E5F171D8311504C723C31896D0
:1010C000059A071280E2EB27B27509832C1A1B6E72
:1010D0005AA0523BD6B329E32F8453D100ED20FC14
:1010E000B15B6ACBBE394A4C58CFD0EFAAFB434D17
:1010F000338545F9027F503C9FA851A3408F929DB4
:1011000038F5BCB6DA2110FFF3D2CD0C13EC5F97A3
:101110004417C4A77E3D645D197360814FDC222AA9
:10112000908846EEB814DE5E0BDBE0323A0A4906E0
:10113000245CC2D3AC629195E479E7C8376D8DD554
:101140004EA96C56F4EA657AAE08BA78252E1CA62C
:10115000B4C6E8DD741F4BBD8B8A703EB56648038C
:10116000F60E613557B986C11D9EE1F8981169D90F
:101170008E949B1E87E9CE5528DF8CA1890DBFE692
:10118000426841992D0FB054BB16000000010000C9
:101190000002000000040000000800000010000031
:1011A000002000000040000000800000001B000044
:1011B000003611241FBECFEFD8E0DEBFCDBF12E056
:1011C000A0E0B1E0E8E8F9E602C005900D92A83D84
:1011D000B107D9F725E0A8EDB2E001C01D92A9370B
:1011E000B207E1F70E94160A0C94C2340C94000076
:1011F000419B02C0419801C0419A0E94A10CAB01E1
:10120000BC014E5E55486F4F7F4F28EF38E08BE0B2
:1012100093E00C94DC0CCF93DF93EC011092580414
:101220008AEA8093590420E042E068E574E081E0B6
:101230000E94AA290E94A10CAB01BC01465A5D493B
:101240006D4F7F4F2BE039E0CE01DF91CF910C94B1
:10125000DC0CCF92DF92EF92FF920F931F93CF930C
:10126000DF93CDB7DEB7A0970FB6F894DEBF0FBE01
:10127000CDBF6C010E9429290E949B1E80E1EDEEEA
:10128000F1E0DE01519601900D928A95E1F780E13F
:10129000EDEFF1E0DE01119601900D928A95E1F7F4
:1012A000CE0141967C018E010F5F1F4F2FED31E182
:1012B00041E056E261E070E080E090E00E94DD29CC
:1012C00001E02FE330E040EA57E26EEB73E380E0A9
:1012D0000E944F1A2FE730E040EE54E361EC73E3D5
:1012E00081E00E944F1A2FE330E040E252E464ECC8
:1012F00073E382E00E944F1A2FE330E040E655EEA0
:101300006EEA73E383E00E944F1A2FE330E040EA75
:1013100052EF61EB73E384E00E944F1A2FE330E059
:1013200040EE5FEF64EB73E385E00E944F1A2FE31A
:1013300030E040E25DE068EB73E386E00E944F1A24
:101340002FE330E040E65AE16BEB73E387E00E9465
:101350004F1A00E020E830E040E056ED68EC73E31F
:1013600088E00E944F1A80E00E941B2A83E080934D
:101370003B046EE085E00E9418290E94A10CAB019D
:10138000BC012BE039E0C6010E94DC0CA0960FB630
:10139000F894DEBF0FBECDBFDF91CF911F910F91AB
:1013A000FF90EF90DF90CF900895DC0198E0E5E2A8
:1013B000F2E001900D929A95E1F70895DC0198E032
:1013C000EDE1F2E001900D929A95E1F70895DC01CC
:1013D00090E1EDE0F2E001900D929A95E1F7089529
:1013E0008AEA90E008958231910540F4880F991FB0
:1013F000FC01E753FE4F8081918102C080E091E0C3
:101400000E94920D8DE00E946C0D8AE00C946C0D90
:10141000CF93C82F90E00E94F309C63029F488EDDD
:1014200092E0CF910C940B09CF910895CF93DF9365
:10143000CDB7DEB728970FB6F894DEBF0FBECDBF8D
:101440000E94940C8BE091E00E94920D68EF78E08E
:101450008BE093E00E94B60C69E279E0CE01019640
:101460000E94B60C0E94210DFFCFFC01862F309701
:1014700049F0A081B1816C93808191810196918323
:10148000808308950C946C0D8F929F92AF92BF92BF
:10149000CF92DF92EF92FF920F931F93CF93DF9340
:1014A0004C018B01EA011C161D06ACF4FB01CF01B7
:1014B000801B910B31913111FACF8C179D071CF4D1
:1014C000C81BD90B02C0C0E0D0E021FF04C090E3EC
:1014D000A92EB12C03C080E2A82EB12C20FD14C08F
:1014E0007E011E141F0444F4B501C4010E94350A94
:1014F00081E0E81AF108F5CF7E01D7FF02C0E12CA8
:10150000F12CCE19DF0902C0E12CF12CE01AF10A0E
:101510006701C00ED11EF80161918F01662339F079
:10152000062E000C770BC4010E94350AF1CF8E0104
:10153000101611063CF4B501C4010E94350A015091
:101540001109F6CFCE01D7FF02C080E090E08C0DEC
:101550009D1DDF91CF911F910F91FF90EF90DF9034
:10156000CF90BF90AF909F908F9008956F927F9291
:101570008F929F92AF92BF92CF92DF92EF92FF92A3
:101580000F931F93CF93DF93CDB7DEB72C970FB692
:10159000F894DEBF0FBECDBF5C014A01FB0130975E
:1015A00061F480E389831A829701A801BE016F5F0D
:1015B0007F4FC5010E94440A4CC0232B59F04A308A
:1015C000510541F477FF06C0F195E195F10921E05D
:1015D00030E002C020E030E01C863E01ACE06A0E44
:1015E000711CBAE3CB1AD108309799F0CF01B4013E
:1015F0000E9458328A30910514F08C0D9D1D805D3B
:10160000D3018E933D01CF01B4010E945832FB01FA
:10161000EBCF232BA1F00115110569F0E1FE0BC002
:101620006DE270E0C5010E94350A01501109CC2419
:10163000C394D12C06C0F3018DE282933F01C12CEB
:10164000D12C9701A801B301C5010E94440A8C0D59
:101650009D1D2C960FB6F894DEBF0FBECDBFDF9157
:10166000CF911F910F91FF90EF90DF90CF90BF909F
:10167000AF909F908F907F906F9008953F924F9280
:101680005F926F927F928F929F92AF92BF92CF9212
:10169000DF92EF92FF920F931F93CF93DF9300D0CF
:1016A000CDB7DEB73C014B016A01A12CB12C5AE049
:1016B000352ED4018C91882351F0853209F0A6C0D3
:1016C000F4013196D40111968C91811109C06114F5
:1016D000710409F4AAC0D301ED91FC911082A5C058
:1016E000853209F492C08D3231F4F4013296EE2441
:1016F000E394F12C02C0E12CF12C9F012F5F3F4FAE
:101700008081803321F46894E1F8F901F6CF00E09C
:1017100010E04F014081319680ED840F8A3068F4EB
:10172000309EC001319E900D1124042F440F110BE7
:1017300000531109080F191FECCF433779F4260124
:10174000B2E04B0E511CF60160817181611571058B
:1017500011F46DE272E09701A80153C04436A9F478
:101760002601F2E04F0E511CD6016D917C9131E6BD
:10177000C32ED12C21E030E04AE050E0C3010E94AA
:10178000B60AA80EB91E62014CC0483759F42601AA
:10179000B2E04B0E511CF6016081718121E6C22E30
:1017A000D12C0CC0483579F42601F2E04F0E511CC3
:1017B000D6016D917C9191E4C92ED12C20E030E0CE
:1017C00040E150E0DBCF453769F42601B2E04B0E33
:1017D000511CF6016081718181E6C82ED12C20E078
:1017E00030E0CACF4336E9F42601F2E04F0E511C37
:1017F000D6018C9189831A829701A801BE016F5F7F
:101800007F4FC3010E94440ABCCF4F01F4016081A5
:10181000062E000C770BC3010E94350AFFEFAF1AAA
:10182000BF0A8FEF881A980A44CFC5010F900F9016
:10183000DF91CF911F910F91FF90EF90DF90CF90AC
:10184000BF90AF909F908F907F906F905F904F90E0
:101850003F9008950E946C0D80E090E00895EF9213
:10186000FF920F931F93CF93DF938B017A01EB01CC
:10187000CE01801B910B8E159F0524F489910E9447
:101880006C0DF6CF80E090E0DF91CF911F910F912A
:10189000FF90EF900895CF93DF93CDB7DEB7AE0101
:1018A0004B5F5F4FFA0161917191AF0180E090E071
:1018B0000E943E0BDF91CF910895CF93DF93CDB778
:1018C000DEB7AE01475F5F4F6F817885CE01059629
:1018D0000E943E0BDF91CF910895CF93DF93CDB758
:1018E000DEB7AE01455F5F4F69857A85CE0105960B
:1018F0000E943E0BDF91CF910895FC012081318140
:101900002115310571F02617370749F4FB012081B5
:101910003181FC013183208381E090E00895C90189
:10192000ECCF80E090E0089584E0E0EEF2E0DF01AB
:101930001D928A95E9F70E94A70D0E9448110C9408
:101940007A290C94240ECF93DF93EC010E941E0E93
:10195000BE0180EE92E00E947D0CBE0182EE92E01C
:101960000E947D0CDF91CF910C94200E0F931F935A
:10197000CF93DF93EC018B010E941E0EBE0182EE1D
:1019800092E00E947D0C1F830E8319821882E091E1
:10199000E202F091E302A2EEB2E0309729F0DF011B
:1019A0000190F081E02DF9CFCD93DC93DF91CF91C1
:1019B0001F910F910C94200ECF92DF92EF92FF9225
:1019C0000F931F93CF93DF93EC016A017B01890191
:1019D0000E941E0EBE0180EE92E00E947D0CCA8223
:1019E000DB82EC82FD821F830E8319821882E091D4
:1019F000E002F091E10220EE32E03097A9F082811E
:101A00009381A481B5818C199D09AE09BF0918166F
:101A100019061A061B061CF4F983E88305C09F010A
:101A20000190F081E02DE9CFF901D183C083DF91EE
:101A3000CF911F910F91FF90EF90DF90CF900C947A
:101A4000200E0E941E0EC091E202D091E302209768
:101A500039F0888199819093E3028093E2021BC060
:101A6000E091E002F091E102309799F06281738198
:101A7000848195810E945C0E892B59F0C091E0020F
:101A8000D091E102888199819093E1028093E002F4
:101A900002C00E94220E0E94200E209791F2EE8139
:101AA000FF81CE010995CDCFF8948CE08093C400DE
:101AB0001092C500E1ECF0E0808188608083808135
:101AC00080618083808180648083E2ECF0E08081AB
:101AD00086608083789408959091C00095FF07C038
:101AE0009091E402911103C08093C60008959091F3
:101AF000E4029431B0F49091E4029F5F9093E40289
:101B0000E091E502F0E0E951FD4F80838091E5022C
:101B10008F5F8093E5028091E502843111F4109289
:101B2000E5020895CF93DF93EC018991882319F0A2
:101B30000E946C0DFACFDF91CF910895229A84B163
:101B4000886284B924988CB581658CBD0895399AD2
:101B500041980E94540D0E949E0D84E085BD81E055
:101B600080936E00E9E6F0E0808183608083E89AEC
:101B700055985D98E8E6F0E0808184608083EBE62C
:101B8000F0E080818460808383B7817F83BF789415
:101B90000895813011F42A9A08952A980895089595
:101BA000823038F4219A813011F4299A08952998C5
:101BB0000895219808958EBD0DB407FEFDCF8EB512
:101BC0000895FF920F931F93CF93DF93F82EEB01AD
:101BD0008A0180E00E94C90D8F2D0E94DB0D0C0F41
:101BE0001D1FC017D10721F089910E94DB0DF9CF8D
:101BF0002A9ADF91CF911F910F91FF900895FF9244
:101C00000F931F93CF93DF93F82EEB018A0180E0AF
:101C10000E94C90D8F2D0E94DB0D0C0F1D1FC017D8
:101C2000D10729F080E00E94DB0D8993F8CF2A9A32
:101C3000DF91CF911F910F91FF900895F89408952F
:101C40007894089588950895F8948091130390915D
:101C50001403A0911503B091160326B57894BA2FFA
:101C6000A92F982F8827BC01CD01622B0895CF9210
:101C7000DF92EF92FF926B017C010E94240EA7017C
:101C80009601261B370B480B590BDA01C9011216B6
:101C90001306140615065CF4AD01772757FD709501
:101CA000672F452B462B472B41F7892B31F7FF90A8
:101CB000EF90DF90CF900895CF92DF92EF92FF9256
:101CC0000F931F936B017C010E94240E97018601E4
:101CD000061B170B280B390B1016110612061306DC
:101CE00084F4C901BB2797FDB095AB2F892B8A2BB4
:101CF0008B2B49F481E090E00530110530F080E055
:101D000004C081E001C080E090E01F910F91FF903E
:101D1000EF90DF90CF9008950895089508951F9251
:101D20000F920FB60F9211248F939F93AF93BF938F
:101D30008091130390911403A0911503B0911603A1
:101D40000196A11DB11D8093130390931403A093DA
:101D50001503B0931603BF91AF919F918F910F9090
:101D60000FBE0F901F9018951F920F920FB60F92F3
:101D700011248F93EF93FF938091E4028823C1F0A5
:101D8000E091E602F0E0E951FD4F80818093C600CA
:101D90008091E40281508093E4028091E6028F5F9B
:101DA0008093E6028091E602843111F41092E602FB
:101DB000FF91EF918F910F900FBE0F901F9018958C
:101DC0001F920F920FB60F9211242F933F934F93B0
:101DD0005F936F937F938F939F93AF93BF93EF9393
:101DE000FF9380E00E94DB11FF91EF91BF91AF91D3
:101DF0009F918F917F916F915F914F913F912F9123
:101E00000F900FBE0F901F9018951F920F920FB654
:101E10000F9211242F933F934F935F936F937F9370
:101E20008F939F93AF93BF93EF93FF9384E392E0DD
:101E30000E9492344D9B03C081E00E94DB11FF9110
:101E4000EF91BF91AF919F918F917F916F915F9132
:101E50004F913F912F910F900FBE0F901F901895AB
:101E6000CF93DF93D82FC62F80E00E94C90D8D2F0E
:101E700080680E94DB0D8C2F0E94DB0D81E0DF91DA
:101E8000CF910C94C90DCF93DF938091250390914E
:101E90002603D82FD77053E0969587955A95E1F78A
:101EA0008370813029F050F0823021F480E907C03E
:101EB00080E805C00E948C0E80E001C080E7609140
:101EC0002503709126039B0145E0369527954A9599
:101ED000E1F72370C82F223041F0233041F0213048
:101EE00011F0C26005C0C46003C0C66001C0C86014
:101EF000672F77276115710521F0C16082E20E948A
:101F0000300F6C2F8DE10E94300F6D2F6295607F36
:101F1000605A8091250387FF64608EE10E94300F34
:101F2000D550D23068F4809125039091260323E0A8
:101F3000969587952A95E1F7837011F46CE001C0BE
:101F400064E086E2DF91CF910C94300FAF92BF92A4
:101F5000CF92DF92EF92FF920F931F93CF93DF9375
:101F600080911F0390912003A0912103B09122033F
:101F70009C01AD0160E070E080E090E003E10E9430
:101F80003034A12CE8E4BE2EF8EECF2EDD24D3941D
:101F9000E12CF12C00E010E00E948C33C22FB32E14
:101FA0006A017B01182FD92F00E10E944B34622F68
:101FB00086E00E94300F2C2F3B2DA601B701812F08
:101FC0009D2F08E00E944B34622F87E00E94300F63
:101FD0006C2F88E0DF91CF911F910F91FF90EF90D0
:101FE000DF90CF90BF90AF900C94300FCF93C82F5D
:101FF00080E00E94C90D8C2F8F770E94DB0D80E05E
:102000000E94DB0DC82F81E00E94C90D8C2FCF915B
:102010000895CF93C82F81E00E94F60F887F682F24
:102020006C2B81E0CF910C94300FCF93C82F68E8D0
:1020300081E00E94300F81E00E94F60F87FF0E942E
:102040008C0E81E00E940910C23049F46AE08DE1F3
:102050000E94300F60E78EE10E94300F04C00E94A2
:10206000430F0E94A60F61E28CE00E94300F60E4F3
:1020700083E20E94300F8091B204882331F083E321
:102080000E94F60F682F6F7B05C083E30E94F60F56
:10209000682F606483E30E94300F609127038FE113
:1020A0000E94300F64E389E30E94300F60EC80E40B
:1020B0000E94300F6FEF82E10E94300FEC2FF0E0B2
:1020C000E85BFD4F6081609581E10E94300F80E008
:1020D0000E94CF0DC1110CC060911B0370911C03B5
:1020E00080911D0390911E030E94370E86E001C06F
:1020F00085E0CF910C94091060912903613124F49B
:1021000062301CF462E001C06FE06F70606889E0CB
:102110000E94300F8AE50E94F60F682F64608AE5FE
:102120000C94300FCF93C82F81E00E94F60F877078
:1021300011F00E948C0E80912503877009F067C012
:10214000C1110E948C0E68E081E00E94300F81E096
:102150000E94F60F87FD0E948C0E81E00E940910FC
:102160000E94A60F61E28CE00E94300F6EE18DE0CC
:102170000E94300F6BE082E10E94300F62E183E148
:102180000E94300F6AEA8FE10E94300F62E187E21D
:102190000E94300F68ED80E30E94300F60E481E31D
:1021A0000E94300F61EC88E20E94300F64E989E2FE
:1021B0000E94300F61EC8AE20E94300F6FEF81E2E3
:1021C0000E94300F62E082E00E94300F60E883E0FE
:1021D0000E94300F61E084E00E94300F69E985E0E1
:1021E0000E94300F68E380E40E94300F80E00E947C
:1021F000CF0D60911B0370911C0380911D03909182
:102200001E030E94370E85E0CF910C9409108C2F8D
:10221000CF910C9415100F931F93CF93DF93D82F6A
:1022200080E00E94C90D80E00E94DB0D08E514E00B
:10223000C0E0CD1741F080E00E94DB0DF8018193F2
:102240008F01CF5FF6CF81E0DF91CF911F910F918A
:102250000C94C90D0F931F93CF93DF93D82F80E079
:102260000E94C90D80E80E94DB0D08E514E0C0E083
:10227000CD1739F0F80181918F010E94DB0DCF5FFE
:10228000F7CF81E0DF91CF911F910F910C94C90D91
:10229000AF92BF92CF92DF92EF92FF921F93CF93B4
:1022A000DF930E941E0E80E00E94D00D0E94A10CC0
:1022B000615E7F4F8F4F9F4F0E94370E82E00E94DA
:1022C000D00D0E94A10C64567F4F8F4F9F4F0E94EC
:1022D000370E80E00E94091082E40E94F60F8231DE
:1022E00011F00E948C0E82E00E94151081E00E9485
:1022F000F60F87708530D1F7CBEFD2E09AE0A92EA8
:1023000093E0B92E88E0E82EF12C8CE20E94F60FC3
:10231000182F11708CE20E94F60F212F30E080FB05
:10232000CC24C0F8D12C2C153D0579F38981880F78
:10233000182B198381E0E81AF10839F72196AC16B9
:10234000BD0601F780E18093FB0280E00E94091046
:10235000DF91CF911F91FF90EF90DF90CF90BF90D2
:10236000AF900C94200ECF93C091FB02C11103C01B
:102370000E948C0E0AC0C03141F440E150E06BEF86
:1023800072E080E00E94312AC0E0EC2FF0E0E550DE
:10239000FD4F8081CF5FC093FB02CF910895CF9313
:1023A0000E941E0E8BE10E94F60FC82F0E94200E85
:1023B0008C2FCF910895CF92DF92EF92FF92CF931F
:1023C0000E94A10C6B017C0181E00E94F60F87FF47
:1023D00065C082E10E94F60F83FF0EC081E0C81A3B
:1023E000D108E108F108C0921703D0921803E092D7
:1023F0001903F0921A0349C086FF44C08091250357
:10240000909126039C0193E0369527959A95E1F7E4
:10241000237069F48770E82FF0E0EE0FFF1FE65C91
:10242000FD4F80819181C81AD90AE108F108C09254
:102430001B03D0921C03E0921D03F0921E038DE15A
:102440000E94F60F82FF02C082E201C083E10E9477
:10245000F60F8093570480E10E94F60F682F8DE0FD
:102460000E94300F809157040E940B1189E10E9455
:10247000F60F809324038AE10E94F60F8D53809318
:10248000230303C087FD109257046FEF81E10E9480
:10249000300F6FEF82E10E94300F2EC08EE30E945A
:1024A000F60FC82F8FE30E94F60F83FF09C0C0927A
:1024B0001703D0921803E0921903F0921A031CC07C
:1024C00082FF14C0C0921B03D0921C03E0921D0334
:1024D000F0921E0382E30E94F60F809357040E943D
:1024E0000B11109224031092230306C0C2FF03C0F5
:1024F0001092570401C0FFCF80E00E940910609144
:102500003003709131038AE293E0CF91FF90EF9016
:10251000DF90CF900C94B60CCF93C82F0E941E0E64
:10252000C13059F040F0C23009F4A7C0C33009F0FF
:10253000A7C081E0A3C080E065C081E00E94F60FE3
:10254000877011F00E948C0E80912503877009F02E
:102550005CC060E181E00E94300F81E00E94F60FD4
:10256000803111F00E948C0E81E00E94091062E01F
:1025700082E00E94300F60E883E00E94300F61E04B
:1025800084E00E94300F69E985E00E94300F60E02E
:1025900085E20E94300F65E086E20E94300F62E122
:1025A00087E20E94300F60ED80E30E94300F60E40C
:1025B00081E30E94300F61EC88E20E94300F64E9F1
:1025C00089E20E94300F61EC8AE20E94300F0E9483
:1025D000A60F0E947C1064E380E40E94300F60919B
:1025E00057046F5F82E30E94300F6091570480E0D0
:1025F0000E94300F809157040E942A1181E00E94AE
:10260000CF0D83E00E9409103BC068E881E00E9482
:10261000300F81E00E94F60F87FF0E948C0E81E050
:102620000E9409100E94430F0E94A60F8AE00E9498
:10263000F60F807F682F68608AE00E94300F0E944A
:102640007C1064E389E30E94300F60EF80E40E9415
:10265000300F6FEF82E10E94300F67EF81E10E943F
:10266000300F60E08EE00E94300F60E08DE00E944D
:10267000300F6091570482E2BBCF80E00E9492103D
:10268000CF910C94200E4F925F926F927F928F9217
:102690009F92AF92BF92CF92DF92EF92FF92E62F7E
:1026A000A091C503B091C6038090C7039090C80362
:1026B000811109C06D01BB0FEE08FF08092C000C49
:1026C000AA08BB081AC0482F50E09A010E94BB32EA
:1026D0006B017C0187E0F594E794D794C7948A95C1
:1026E000D1F7D4010E94BB324B015C0197E0B59455
:1026F000A794979487949A95D1F7A091C903B09124
:10270000CA032091410484E0E89FF0011124E558B8
:10271000FD4F408051806280738030E00E94BB3268
:10272000680D791D8A1D9B1DA30192010E948032B4
:102730002B5F20932703ADEFBFEFA30192010E940F
:10274000D0326C0D7D1D8E1D9F1DFF90EF90DF9090
:10275000CF90BF90AF909F908F907F906F905F9041
:102760004F900895CF93DF93C7E1D3E010925704C1
:10277000E091980484E0E89FF0011124E95EFC4FA9
:1027800083AD94ADA5ADB6AD8C7F88879987AA87B8
:10279000BB8783E891E19F878E87DF91CF91089572
:1027A00010922C0410922D0410922E0410922F04DB
:1027B000109228041092290410922A0410922B04DB
:1027C0001092C40310923604109235041092320411
:1027D000109230041092390410923A04109240047E
:1027E00010923804109243041092C00384EF809337
:1027F000310410923B0488E096EEA3EDB3E380939E
:102800003C0490933D04A0933E04B0933F0425E024
:10281000209398048093500490935104A093520401
:10282000B093530483E0809344040895CF92DF92E1
:10283000EF92FF92CF93DF93D82F0E94B311C82F4E
:102840000E94B3112C2F30E0322F2227282B233166
:102850008AE7380710F4690106C0C90162E17AE726
:102860000E9458326C01E12CF12CDD23C1F0C9012A
:1028700099276D2F70E00E946C32AC0122E13AE79B
:10288000429FC001439F900D529F900D1124092E2D
:10289000000CAA0BBB0BC80ED91EEA1EFB1EC701FB
:1028A000B601DF91CF91FF90EF90DF90CF90089528
:1028B000CF92DF92EF92FF926B017C01842F0E94F6
:1028C0001614DC01CB018C0D9D1DAE1DBF1D20918A
:1028D000B503222399F0C090B603D090B703E090DF
:1028E000B803F090B9039C01AD012C193D094E09C4
:1028F0005F0912161306140615068CF48093B603AE
:102900009093B703A093B803B093B9038091BE032B
:102910009091BF0391609093BF038093BE03FF909B
:10292000EF90DF90CF900895CF92DF92EF92FF92D9
:102930000F931F93CF93DF936B017C01FA01C7E1E3
:10294000D3E0A0913B0484E0A89FD0011124A558B6
:10295000BD4F2D913D914D915C91A3E0B0E00E945F
:10296000C232088119812A813B81C00ED11EE21E2C
:10297000F31EAB01BC014C0D5D1D6E1D7F1D4C8314
:102980005D836E837F834E535109610971099F01F5
:102990008AE293E0DF91CF911F910F91FF90EF902A
:1029A000DF90CF900C94DC0C8CE295E29093310395
:1029B0008093300382E00C948C1289E098E290932B
:1029C00031038093300382E00C948C12E7E1F3E052
:1029D00021E0209355042685378520683787268790
:1029E00010925704928F818F82E00C948C1283ECAA
:1029F00098E20C94E61488EE97E20C94E614A7E1B2
:102A0000B3E082E080935504E0913B04F0E0E653AC
:102A1000FD4F818190E08F7780681F969C938E9305
:102A20001E9740913C0450913D0460913E0470918A
:102A30003F0418964D935D936D937C931B97109272
:102A4000570482E00C948C1288ED98E29093310345
:102A5000809330030C94FF1489EF97E29093310335
:102A6000809330030C94FF148091240490912504EA
:102A7000A0912604B0912704892B8A2B8B2B19F067
:102A80008091BE0382FD0E948C0E8091BE039091C6
:102A9000BF0386FD2FC01092A40410923004109240
:102AA00054048E7781609093BF038093BE030E948D
:102AB000B2130E94A10CAB01BC014E5E5C47624C9C
:102AC0007F4F40939E0450939F046093A0047093A3
:102AD000A10440931B0350931C0360931D03709348
:102AE0001E032BEC34E28AE293E00E94DC0C83E0CC
:102AF0000C948C120895CF93DF9390E4E2E5F3E019
:102B0000DF011D929A95E9F790E2E2E9F3E0DF0137
:102B1000292F1D922A95E9F7E2E3F3E0DF011D92E8
:102B20009A95E9F72FE330E03093B3032093B20393
:102B3000811102C086E001C080E0C2E5D3E0A2E9D5
:102B4000B3E096E0980F2FE330E044E0849FF0017B
:102B50001124E55BFD4F408151816281738149936E
:102B60005993699379932D933D938F5F8913EDCF9B
:102B700088EE93E09093330380933203CEE0C093CA
:102B800034030E94B3118F708093350384E690E084
:102B900090933B0380933A03C0933C030E94B3118C
:102BA0008F7080933D038AE090E09093430380937D
:102BB00042038BE1809344030E94B3118F70809392
:102BC00045030E94A10C60934603709347038093D2
:102BD00048039093490360933E0370933F038093AF
:102BE00040039093410360933603709337038093BF
:102BF000380390933903DF91CF910895603811F035
:102C00006093C1039091C203981759F08093C20357
:102C10008091BE039091BF0398609093BF0380930F
:102C2000BE03089587700895887F862B089523E05A
:102C3000969587952A95E1F783700895877E28E019
:102C4000629FB0011124862B972B089525E096955D
:102C500087952A95E1F7837008958F7920E2629F26
:102C6000B0011124862B972B089587FB882780F9C4
:102C700090E008958F777695762F662777956795FC
:102C8000862B972B0895892F90E0089520E030E05F
:102C9000362FA901482BCA0108950F931F93E82FDF
:102CA000F0E088E0689FB001112480E2489FA00115
:102CB0001124012B19F4A0E0B0E002C0A0E8B0E0BC
:102CC00080E090E0922F842B952B8E2B9F2B862BD0
:102CD000972B8A2B9B2B1F910F910895862797275F
:102CE000BC016F71772781E090E0672B11F080E0E5
:102CF00090E00895E82FF0E0E653FD4F818190E0E9
:102D00000895E82FF0E0E653FD4F818190E08F7742
:102D10008068089521E030E0681710F020E030E08E
:102D2000C901089521E030E0861710F020E030E07E
:102D3000C9010895E82FF0E0E653FD4F92819F3FCF
:102D400009F08F5F0895E82FF0E0E653FD4F908182
:102D50009F3F09F081500895E82FF0E0E653FD4FC2
:102D600091819F3F09F485E00895E82FF0E0E65354
:102D7000FD4F81E091819F3F09F480E0089561500B
:102D800048F0E82FF0E0E653FD4F90819F3FB9F304
:102D90008150F5CF0895FC01808191810895FC0157
:102DA000228160817181CB01770FAA0BBB0BA22B13
:102DB0002381BC01CD01922B08950F931F9301979E
:102DC0000E94CF16272F382F492F5527A4E6B0E0B1
:102DD0000E94C2328B019C01005C154520473343A1
:102DE000013C1F4C2A46310518F060E070E0CB0131
:102DF0001F910F9108950F931F93FC012181608112
:102E0000862F90E0A0E0B0E0B82FAA279927882766
:102E1000AC01BD01622B8281938198278927982775
:102E2000092E000CAA0BBB0B8A019B01082B192B46
:102E30002A2B3B2BC901B8011F910F910895FC016A
:102E4000608371830895FC0140835183628373839F
:102E500008954F925F926F927F92AF92BF92CF92FE
:102E6000DF92EF92FF920F931F93CF93DF93EC01CA
:102E70002801390180E1E3E6F5E0DF011D928A9542
:102E8000E9F781E08093720580936305EF2809F4E8
:102E900080E08093680589E695E00E942317B301DE
:102EA000A2018DE695E00E94231780E1FE01A3EBCD
:102EB000B4E001900D928A95E1F7A501B60184E096
:102EC000DF91CF911F910F91FF90EF90DF90CF9006
:102ED000BF90AF907F906F905F904F900C94312A8D
:102EE0008F929F92AF92BF92CF92DF92EF92FF921A
:102EF0000F931F93CF9380E1E3EBF4E0DF011D928A
:102F00008A95E9F788E0E0E6F4E0DF011D928A9512
:102F1000E9F74091A5045091A6046091A70470912F
:102F2000A80488E594E00E9423174091240450915E
:102F3000250460912604709127048CE594E00E949A
:102F4000231740E150E068E574E080E00E94312AF8
:102F5000C091450487E090E08C1B91094FEF5FE042
:102F600002C0559547958A95E2F780915804909153
:102F70005904482359238CE1A82E9EE4B92E2EE053
:102F8000C22ED12CE12CF12C00E010E09A0140E09F
:102F900050E060E070E080E090E00E94D532E8EE22
:102FA000AE2EF3E0BF2EC12C0E945B3349015A01C3
:102FB00080919E0490919F04A091A004B091A104DF
:102FC00086539D4FAE4FBF4F880E991EAA1EBB1E43
:102FD0008092480490924904A0924A04B0924B0413
:102FE0001092460481E090E001C0880FCA95EAF78C
:102FF000609144048E5F0E944313861A970AA80AC0
:10300000B90A80924C0490924D04A0924E04B09262
:103010004F048091270380934704CF911F910F9114
:10302000FF90EF90DF90CF90BF90AF909F908F90E8
:1030300008958F929F92AF92BF92CF92DF92EF92BC
:10304000FF92CF93DF934B015C01EA018091BE03B5
:103050009091BF03827096708230944059F40E9420
:1030600070178091BE039091BF0392609093BF034D
:103070008093BE0380912703C0901703D09018035C
:10308000E0901903F0901A03873099F4C80CD91C0A
:10309000EA1CFB1C85E0C81AD108E108F108C092BF
:1030A0001B03D0921C03E0921D03F0921E0388E0E4
:1030B00023C0E091280324E0E29FF0011124E558A9
:1030C000FD4F2081318142815381A3E0B0E00E9415
:1030D000C232C80CD91CEA1CFB1CDC01CB018C0DD4
:1030E0009D1DAE1DBF1D80931B0390931C03A093D9
:1030F0001D03B0931E0385E08093270340911B03BB
:1031000050911C0360911D0370911E034E53510991
:10311000610971099E018AE293E0DF91CF91FF90EE
:10312000EF90DF90CF90BF90AF909F908F900C94D6
:10313000DC0C2091330430E0A2E1BAE70E94AC320B
:1031400047EF54E10C9419184BEF54E16AE572E62D
:1031500082E090E00C941918FC0143835283618350
:10316000708308958FEF0895FC01680F791F80E048
:1031700090E0E617F70791F02191922728E0AC0143
:10318000440F551F97FF06C0CA0131E2832730E183
:10319000932701C0CA01215091F7EBCF08950F93F7
:1031A0001F93CF9380915704813111F00E948C0EB0
:1031B00067E070E088E594E00E94B41820915F0415
:1031C00030E099272817390709F081C088E594E095
:1031D0000E94CF16DC01CB01BB270091BA031091EE
:1031E000BB032091BC033091BD0380179107A20758
:1031F000B30709F06FC0C091A404CC7FC093A404AE
:10320000809124038093A304809123038093A204DC
:1032100080911B0390911C03A0911D03B0911E038C
:10322000805A9141A109B10980939E0490939F0413
:10323000A093A004B093A1048BE594E00E94CF1664
:103240006093A5047093A6048093A7049093A804A8
:103250008C2F81608093A40400916704109168040E
:103260006FE070E088E594E00E94B4188017910741
:10327000A1F580E694E00E94CF16BB2797FDBA9592
:10328000A92F982F872F8093AA049093AB04A09323
:10329000AC04B093AD0483E694E00E94CF16BB2744
:1032A00097FDBA95A92F982F872F8093AE049093FE
:1032B000AF04A093B004B093B104809160048093F4
:1032C000A904C360C093A40482E090E008C080E039
:1032D00090E005C08FEF9FEF02C081E090E0CF91BA
:1032E0001F910F910895282F277030E043E09695A5
:1032F00087954A95E1F78370F901EE0FFF1FE20F02
:10330000F31FEB55FD4FE80FF11D808190E08D58C4
:1033100091090895EF92FF920F931F93FC01382FAC
:103320003770A62FB0E031F41B9625E030E00E9404
:10333000BB328BC0632F660F660F685E353010F4AA
:1033400020E001C028E013E0AA0FBB1F1A95E1F7A7
:10335000CD01861B9109DC015C96E7FD03C080E18D
:1033600090E002C080E090E08A0F9B1F4F2F55270E
:10337000452B19F440E050E002C044E150E0841BCA
:10338000950B18161906D4F4621B70E0860F971F70
:1033900001970E946C32AF01A5E056954795AA951A
:1033A000E1F7437050E04B5F5F4F469FC001479F7E
:1033B000900D569F900D1124089602C088E090E071
:1033C000880F991F880F991FC1963F5F63E0F6959C
:1033D000E7956A95E1F7E3703E1B353050F03450C5
:1033E000E9E0FDE302C0F595E7953A95E2F734E0B0
:1033F00002C0E9E0FDE3092E000CAA0BBB0B7C0127
:103400008D0104C0EE0CFF1C001F111F3A95D2F76E
:10341000A8019701A2E1BAE70E94C2329F01F7FF1B
:1034200002C02F5F3F4F359527958901330F220B3F
:10343000330B600F711F821F931F9F01FF0F440BFF
:10344000550B0E948032CA01B9011F910F91FF9064
:10345000EF900895EEEBF3E080819181997F918365
:1034600080830895CF93DF938430A8F498E0899FF8
:10347000E0011124C95EDC4F6D8F5C8F4B8F0E9481
:10348000A10C6F8F78A389A39AA30E94B3118F70A8
:103490008E8F81E001C080E0DF91CF910895CF92BF
:1034A000DF92EF92FF920F93CF93DF93A82F80319B
:1034B00008F074C00F3FC1F56A017B0180ECC81AA7
:1034C0008DEFD80A81EDE80A83E3F80A81E9C8168E
:1034D00080EDD80683E0E806F10410F4426030C0C5
:1034E0006A017B0181EAD81A8CEBE80A83E3F80AC7
:1034F00081ECC81687E2D80689E0E806F10490F06E
:103500006A017B0180EAC81A81E9D80A86EDE80AD7
:1035100083E3F80A81EEC81683E9D80684E0E8065A
:10352000F10470F441600CC00430C4F54C7FC02E2F
:10353000000FDD08EE08FF084C295D296E297F2960
:10354000EA2FF0E0EF01CC0FDD1FCC0FDD1FC95ECD
:10355000DC4F4BAF5CAF6DAF7EAF2115310519F07D
:10356000922F832F02C09FE380E0EE0FFF1FEE56E5
:10357000FC4F9083818381E090E002C0880F991F07
:10358000AA95E2F72091B2033091B303822B932BDB
:103590009093B3038093B20381E001C080E0DF9198
:1035A000CF910F91FF90EF90DF90CF9008952F92E1
:1035B0003F924F925F926F927F928F929F92AF92C3
:1035C000BF92CF92DF92EF92FF920F931F93CF9310
:1035D000DF93CDB7DEB729970FB6F894DEBF0FBEE5
:1035E000CDBF0091570410E00C30110524F4109267
:1035F000570480E035C3209158042983237028871D
:103600002111F5CF3981307E3E83303611F0303ACA
:1036100071F789E594E00E94CF16AB01BC0180915F
:103620005E0490915F04C0902404D0902504E09043
:103630002604F09027044C155D056E057F05B9F64C
:10364000A0915D04AB832A2F2F70E22FF0E0FD8361
:10365000EC834F01F8E08F0E911C180124E0221A30
:103660003108281439041CF2821493046CF4F40118
:10367000E85AFB4F2081A22FB0E0BA83A983EC81E6
:10368000FD8139964F0104C02FEF3FEF3A83298324
:10369000409028045090290460902A0470902B04D4
:1036A00084199509480E591E611C711C10E1E3E64E
:1036B000F5E0DF01212F1D922A95E9F789E4809337
:1036C000630581E0809368052092720589E695E0A4
:1036D0000E942317B301A2018DE695E00E942317F3
:1036E000E4E0F4E0A3EBB4E001900D921A95E1F769
:1036F000A10168E574E082E00E94312A6B017C013F
:10370000C101885A9B4F0E94FB16C616D706E806D1
:10371000F90609F06CCF8091280490912904A091BA
:103720002A04B0912B04481659066A067B06E8F471
:1037300084159505A605B7050CF459CF0197A10985
:10374000B109481659066A067B0609F050CF8091E8
:103750003004882309F44BCF3E81303A09F047CF3B
:1037600081E090E09F838E8317C0D301C201019650
:10377000A11DB11D8093280490932904A0932A04CD
:10378000B0932B049E81903A11F480E201C080E056
:10379000809330041F821E8280913004811103C007
:1037A000AB81A4FF09C08091BE039091BF038061EB
:1037B0009093BF038093BE031092C403109232040F
:1037C00080913104803819F084EF80933104809126
:1037D0002503909126030E94731920912303022E42
:1037E000000C330B20543109281B390B37FD06C060
:1037F0002F3F310514F02EEF30E02887B885B093C5
:1038000034041986188688859985AC81BD818A170C
:103810009B070CF0C6C1E885F985E05AFB4FE081B3
:103820008E2F90E0FC013297E131F10508F0B9C12B
:10383000EC5CFF4F0C949F32E885F9853396F9874D
:10384000E887E1CFE885F985EF59FB4FA081E8854E
:10385000F985EE59FB4F80819181E885F985EC5916
:10386000FB4FB081288539852B5F3F4F39872887EB
:1038700037E8309335042B2F207F09F0E4C10097FF
:1038800009F4E1C12091B2033091B3032095309542
:1038900028233923232B09F0D6C1E7E1F3E020E008
:1038A00030E041E050E0022E02C0440F551F0A9460
:1038B000E2F7BA0168237923672B61F0C3ACD4AC7B
:1038C000E5ACF6ACCD28CE28CF2821F44095509514
:1038D000842395232F5F3F4F34962031310509F71C
:1038E0009093B3038093B2038A2F82958F70E82F51
:1038F000F0E0E653FD4F91819F3F29F4909135040C
:103900009D7F90933504909135049F77973051F4C3
:10391000BF70B093C003AF70B0E0A654BD4F6C91C0
:103920000E94FE1581E0809332046DCF91E0909368
:103930003604A885B9851196B987A88764CFE8852C
:10394000F985EF59FB4F10811F70888599858E5935
:103950009B4F0E94DD16E885F9853596F987E88743
:10396000F0E8F0934004E12FF0E0E653FD4F2181B1
:103970002F3F09F46CC122E82093400461157105C2
:103980008105910509F43FCF33E83093400410934B
:103990003B0460933C0470933D0480933E049093F9
:1039A0003F0431CFE885F985EF59FB4F20818885A9
:1039B00099850296998788872F3F49F48091BE03A5
:1039C0009091BF0380649093BF038093BE032F70D8
:1039D0002093B5030E94A10C6093B6037093B703C4
:1039E0008093B8039093B90391E0909339040BCF7F
:1039F000E885F985EF59FB4FD080888599858E59E8
:103A00009B4F0E94DD16AB01BC01E885F985EB599F
:103A1000FB4FE081A0E8A0933A04411551056105F0
:103A2000710521F18E2F82958F702FE030E0281BD9
:103A30003109C9012FEF3FEF02C0369527958A95CE
:103A4000E2F7EF708FEF9FEF02C0880F991FEA95A2
:103A5000E2F7282339230FEF8D2D0E944F1A882378
:103A600029F080913A04836080933A04888599858F
:103A7000069699878887C7CE888599858F599B4FE9
:103A80000E94DD16A885B9851496B987A8876115A7
:103A900071058105910551F06093500470935104B4
:103AA000809352049093530481E801C080E880938E
:103AB0004304A9CE8091BE039091BF0381FD6AC0EB
:103AC000E885F985ED59FB4F2081209398048260A9
:103AD0009093BF038093BE0380914204811102C082
:103AE0000E948C0EE885F985EF59FB4F808191810A
:103AF000BEE1B89FB001B99F700D112480E090E045
:103B000022E13AE740E050E00E942E33E8EEAE2E8C
:103B1000F3E0BF2EC12CD12CE12CF12C00E010E001
:103B20000E945B3359016A0180911B0390911C0331
:103B3000A0911D03B0911E038A0D9B1DAC1DBD1DE0
:103B4000AC01BD014B5257406D43710940939E0437
:103B500050939F046093A0047093A1041092C60335
:103B60001092C5031092CA031092C9031092410427
:103B7000ECE0E093A404F3E1F09399048B5E9109E7
:103B8000A109B10980939A0490939B04A0939C048B
:103B9000B0939D04288539852C5F3F4F398728874E
:103BA00032CEEE81FF81EF2B31F529813A812F3F13
:103BB0008FEF380701F15101A818B9081A141B0436
:103BC000D4F4D401A85ABB4F6D0140912404509104
:103BD00025046091260470912704232B19F484E0B6
:103BE00094E002C084E194E0EE24E394F12C93018C
:103BF00082010E94291780915404882359F08091F2
:103C00005504BB81B5FF02C090E801C090E4892B48
:103C10008093550480915504E981FA81319641F4ED
:103C2000806280935504809256041092570409C014
:103C300080618093550480925604822D8819809368
:103C4000570481E00DC086E8809335044DCE672B84
:103C5000682B692B09F4D7CD31E830934004D3CDDC
:103C600029960FB6F894DEBF0FBECDBFDF91CF917E
:103C70001F910F91FF90EF90DF90CF90BF90AF908A
:103C80009F908F907F906F905F904F903F902F907C
:103C90000895482F282F30E0F901EE0FFF1FEE0F97
:103CA000FF1FE95EFC4F13AE14AE15AE16AE220F29
:103CB000331FF901EE56FC4F11821082E2EBF3E064
:103CC00081E090E002C0880F991F4A95E2F7809545
:103CD000909520813181822393239183808308955D
:103CE0002091BE033091BF0323743327232B39F473
:103CF00080934204811105C00E94341502C080E007
:103D0000089581E008958770809345048091BE03F3
:103D10009091BF039C0134603093BF032093BE0396
:103D200083709927892B31F480914204811102C05C
:103D30000C94701E0895CF92DF92EF92FF928091C3
:103D4000240490912504A0912604B0912704892B86
:103D50008A2B8B2B09F05DC08091BE039091BF032D
:103D600080799927892B11F00E948C0E1092B5034F
:103D70008091BE039091BF038E7D977E9093BF0389
:103D80008093BE031092CC03109254041092C4038B
:103D90000E94B31166E00E944C329093B4038EE00F
:103DA0008093C10383E08093C20381E00E947B156E
:103DB0008091BE039091BF0393FD0E948C0EC09032
:103DC0003603D0903703E0903803F090390388E051
:103DD0000E941614DC01CB018C0D9D1DAE1DBF1D74
:103DE0008093170390931803A0931903B0931A03B9
:103DF0008091BE039091BF0384609093BF03809332
:103E0000BE0364E078E28AE293E00E94B60C81E0AF
:103E100001C080E0FF90EF90DF90CF9008952F9247
:103E20003F924F925F926F927F928F929F92AF924A
:103E3000BF92CF92DF92EF92FF920F931F93CF9397
:103E4000DF93CDB7DEB762970FB6F894DEBF0FBE33
:103E5000CDBF8091BE039091BF039C01217C33278D
:103E6000232B09F07BC540912404509125046091D7
:103E7000260470912704452B462B472BE1F482FD45
:103E80001AC062960FB6F894DEBF0FBECDBFDF91A9
:103E9000CF911F910F91FF90EF90DF90CF90BF9047
:103EA000AF909F908F907F906F905F904F903F90DA
:103EB0002F900C949B1E0E94A10C2B013C01809121
:103EC000BE0381FF2BC040919A0450919B046091E6
:103ED0009C0470919D04D301C201CE96A11DB11D19
:103EE000841B950BA60BB70B181619061A061B0692
:103EF00014F40E948C0E80919A0490919B04A091DE
:103F00009C04B0919D048C019D010E53110921095F
:103F1000310909831A832B833C8304C019821A82D6
:103F20001B821C822091BE033091BF033A8B298BE8
:103F3000C9018C739927892B09F4CEC3190134E286
:103F40002322332449895A8953FFBAC06091B203AE
:103F50007091B3037A8769878091C2038F7021E0E3
:103F600030E0D90102C0AA0FBB1F8A95E2F7BC87D7
:103F7000AB87AFE093018201005C1C4D214F3C4BAD
:103F80000D871E872F87388BCD84DE84EF84F888D9
:103F9000E7E1F3E080E090E0B0E02A2F30E0A90113
:103FA000082E02C0559547950A94E2F740FF12C0CB
:103FB000478D50A161A172A146015701841A950A4B
:103FC000A60AB70A181419041A041B041CF4B82F03
:103FD0006A017B01019638968430910501F72B2FF9
:103FE00030E03E832D83890163E0000F111F6A9545
:103FF000E1F7F801E95EFC4F268D90E18B2E912CC4
:10400000A12CB12C81E0820F803110F081EF820F62
:10401000282F30E041E050E0082E02C0440F551F29
:104020000A94E2F769857A8546235723452B41F1A7
:10403000F901EE0FFF1FEE56FC4F408151816B8559
:104040007C8546235723452BD9F0220F331F220F9F
:10405000331FF901E95EFC4F43AD54AD65AD76AD5C
:10406000437055276627772784169506A606B70658
:1040700039F4F801E95EFC4F868F8093B40310C0D9
:10408000915011F0282FBECF81E090E00D8002C04A
:10409000880F991F0A94E2F78095A82309F074CF3E
:1040A000C0921703D0921803E0921903F0921A03FA
:1040B00089899A89977F9093BF038093BE0308C034
:1040C000C0901703D0901803E0901903F0901A03E2
:1040D0002091B5038091BE039091BF03211102C0CE
:1040E00090FF12C04091B6035091B7036091B8039E
:1040F0007091B90397018601041B150B260B370B32
:1041000037FF02C06A017B019C012270332781FFC7
:1041100027C02114310429F44CE65CED62E070E024
:1041200004C042EA5AE464E070E04C0D5D1D6E1D6F
:104130007F1D89809A80AB80BC80481959096A0923
:104140007B09141615061606170654F440E1C5013E
:10415000B40166537D4F8E4F9F4F0E945814BFC2CB
:10416000B301A201425C5F4F6F4F7F4F4601570181
:10417000841A950AA60AB70AB7FEA1C29090C20394
:10418000232809F444C085FF0FC08091C4038150E7
:1041900048F0E92DF0E0E653FD4F90819F3FB9F3E1
:1041A0009A94F5CF80EC01C080E08093580489E5B3
:1041B00094E00E94D50981E694E00E94DE09909186
:1041C0000204809103049093690480936A0483EB52
:1041D00094E00E94E70943E150E068E574E08AE07A
:1041E0000E94312AAB01BC018BE694E00E94AC181E
:1041F00087E1809357048091020490910304019613
:10420000909303048093020484EA98E1DCC1409116
:1042100028045091290460912A0470912B0440389D
:104220005F4F6F4F7F4FF0F063E779E28AE293E0F0
:1042300062960FB6F894DEBF0FBECDBFDF91CF916F
:104240001F910F91FF90EF90DF90CF90BF90AF90B4
:104250009F908F907F906F905F904F903F902F90A6
:104260000C94B60C2091540421110DC040912C04E3
:1042700050912D0460912E0470912F044F3F5F4F99
:104280006F4F7F4F89F29C01287133272031310510
:1042900021F08090CD038D8201C01D8282709470C8
:1042A0008230944089F480E18093600480914504D9
:1042B00010E1819FC001112490914404892B8093C7
:1042C00061040AE010E002C008E010E080913904C7
:1042D000882349F0F801E85AFB4F84E080830F5FA0
:1042E0001F4F1092390440914004442379F0C801D3
:1042F000895E9C4FFC01EF5BFE4F55E05083319689
:10430000437040830E5F1F4F10924004809136042B
:10431000882399F0C801895E9C4FFC01EF5BFE4F3A
:1043200046E0408331964FEF40833196409134040C
:1043300040830D5F1F4F1092360440913504442393
:1043400079F0C801895E9C4FFC01EF5BFE4F53E0A2
:1043500050833196477040830E5F1F4F1092350493
:1043600080914204882339F0F801E85AFB4F82E13A
:1043700080830F5F1F4F80913204882339F0809132
:10438000310487FD109231041092320440914304AD
:10439000442379F0C801895E9C4FFC01EF5BFE4F1E
:1043A00051E150833196417040830E5F1F4F109250
:1043B000430440913A04442379F0C801895E9C4F3C
:1043C000FC01EF5BFE4F57E0508331964370408312
:1043D0000E5F1F4F10923A042031310521F04D81BC
:1043E0004B5F498302C054E05983402F8980800E7F
:1043F0008982582D513430F4FF24F3942031310553
:1044000031F404C094E0892E800E8982F12C80E47E
:10441000809358049091300420913704292B909177
:1044200031049095892F881F8827881F8295880FCF
:10443000880F807C98EF940F922B892B80935D04DA
:104440004091240450912504609126047091270422
:1044500089E594E00E94231720915404211113C090
:1044600080912C0490912D04A0912E04B0912F04E2
:104470000196A11DB11D80932C0490932D04A0934F
:104480002E04B0932F0480912C0490912D04019759
:1044900080935E0490935F0410923004FF2009F42F
:1044A00043C08091CC03882341F080E88093580476
:1044B000211103C081E080935404F801E85AFB4FB6
:1044C0008091CB0380839801275A3B4F69018D80EF
:1044D000A82CB12CA5016EEC73E0C9010E948934AF
:1044E0008091CB03882319F084E194E002C084E03A
:1044F00094E0A114B104C1F000912C0410912D049A
:1045000020912E0430912F04015011092109310905
:104510004091240450912504609126047091270451
:10452000E12CF12C0E9429178980082D10E00450FD
:104530001109C0902C04D0902D04E0902E04F0902E
:104540002F0421E0C21AD108E108F10840912404A7
:10455000509125046091260470912704E3E6F5E06C
:10456000DF01E0E18E2E1D928A94E9F789E48093C1
:104570006305109268050093720589E695E00E9434
:104580002317B701A6018DE695E00E942317E4E00A
:10459000F4E0A3EBB4E080E1A82E01900D92AA9480
:1045A000E1F7A80168E574E082E00E94312AAB01DE
:1045B000BC01C801885A9B4F0E94AC188980809228
:1045C000570489E998E19093310380933003E92DF2
:1045D000F0E0E653FD4F21812F798091C30300E283
:1045E000809FC0011124822B909326038093250382
:1045F000909228032091BE033091BF032F76367F1F
:10460000206838603093BF032093BE03E091B40369
:1046100014E0E19FF0011124E95EFC4F83AC94ACFF
:10462000A5ACB6AC609157040E948A196B017C015D
:10463000D501C40183709927AA27BB272CEF8222BA
:1046400080921F0390922003A0922103B092220334
:1046500043E0880F991F4A95E1F7FC01E95EFC4FA2
:10466000858D80932903A38DB48DA70196010E94A7
:10467000C232DC01CB01840D951DA61DB71D878FAD
:1046800090A3A1A3B2A38091B503882399F004C09D
:10469000CC0CDD1CEE1CFF1C8A95D2F7C40CD51C7B
:1046A000E61CF71CC092B603D092B703E092B803A1
:1046B000F092B90381E10E94C72481E0B8C0232BA6
:1046C00009F4DCC0C114D104E104F10459F4C12C93
:1046D000D12C7601C39406C0398931FF3FC1C12C6A
:1046E000D12C76018091BE039091BF0391FF65C0EC
:1046F000B301A201425C5F4F6F4F7F4F4D835E83DA
:104700006F83788740914C0450914D0460914E0422
:1047100070914F04DB01CA018D809E80AF80B88408
:1047200088199909AA09BB09B7FF9BC010914604D3
:1047300017FD43C0E1E0F0E00090450402C0EE0F39
:10474000FF1F0A94E2F71E0F1093460417FD35C0B1
:10475000A12FB0E020E038E94AE350E00E94C232E5
:10476000DC01CB0127E0B595A795979587952A950C
:10477000D1F78090480490904904A0904A04B090EA
:104780004B04880E991EAA1EBB1E82E08E0F6091FC
:104790004404810F0E944313861A970AA80AB90A93
:1047A00080924C0490924D04A0924E04B0924F041B
:1047B0008091270380934704A5CFC114D104E1045D
:1047C000F10461F0D701C60189809A80AB80BC807A
:1047D00088199909AA09BB09B7FD50C00E94B213F4
:1047E000809199048093270380919A0490919B046F
:1047F000A0919C04B0919D0480931B0390931C0393
:10480000A0931D03B0931E03D301C20189809A8037
:10481000AB80BC8088199909AA09BB09B7FD52C0B1
:104820008CE295E2909331038093300382E06296AC
:104830000FB6F894DEBF0FBECDBFDF91CF911F91B1
:104840000F91FF90EF90DF90CF90BF90AF909F902F
:104850008F907F906F905F904F903F902F900C942F
:104860008C12C114D104E104F10499F1D701C601FD
:10487000841B950BA60BB70BB7FF2BC0B701A60186
:104880004E5351096109710927E038E28AE293E049
:1048900062960FB6F894DEBF0FBECDBFDF91CF9109
:1048A0001F910F91FF90EF90DF90CF90BF90AF904E
:1048B0009F908F907F906F905F904F903F902F9040
:1048C0000C94DC0C24ED34E149815A816B817C81AC
:1048D000DDCF809147048093270340931B035093BF
:1048E0001C0360931D0370931E03809150049091EC
:1048F0005104A0915204B091530480931F039093EC
:104900002003A0932103B0932203E0914404F0E03C
:10491000E653FD4F818190E08F7780689093260366
:1049200080932503109257044419550966097709A5
:10493000423C5F4F6F4F7F4F14F40E948C0E4091AA
:104940001B0350911C0360911D0370911E034E5375
:104950005109610971092DED34E198CF62960FB6C6
:10496000F894DEBF0FBECDBFDF91CF911F910F91A5
:10497000FF90EF90DF90CF90BF90AF909F908F907F
:104980007F906F905F904F903F902F9008950E947E
:10499000080A0C940F1F80E00E948C128AE293E0B8
:1049A0000E94A30C8091570481110BC08091BE031B
:1049B0009091BF038C7F9093BF038093BE0381E0EF
:1049C00049C00E94CF18181619069CF0109257047F
:1049D00083E00E948C1240919E0450919F0460914C
:1049E000A0047091A1042BEC34E28AE293E00C94D1
:1049F000DC0C1092C6031092C5031092CA031092E9
:104A0000C903109241048091A4048C608093A40493
:104A10008BE08093990480919E0490919F04A091D3
:104A2000A004B091A104805C974FA24CBF4F80932B
:104A30009A0490939B04A0939C04B0939D0480914E
:104A4000BE039091BF038E7F82609093BF038093DB
:104A5000BE0382E00C94C724CF92DF92EF92FF92C4
:104A6000CF9380915704882309F47BC0C0909E04A3
:104A7000D0909F04E090A004F090A104C091A40401
:104A80000E94CF18181619060CF06BC0C370C9F439
:104A90008BE08093990480919E0490919F04A09153
:104AA000A004B091A104805C974FA24CBF4F8093AB
:104AB0009A0490939B04A0939C04B0939D04C4E03B
:104AC000DAC027EFD21A80919E0490919F04C81AF1
:104AD000D90A60914104662379F02091C503309191
:104AE000C603C601821B930B70E06F5F7F4F0E946D
:104AF0006C326901C60ED71E2091A40422FD1DC090
:104B00008091C5039091C6038C199D0997FF03C03E
:104B10009195819591099093C8038093C703409123
:104B2000C9035091CA034817590724F49093CA0344
:104B30008093C903277F2093A404D092C603C09218
:104B4000C5031092C403109241048091A404982FCD
:104B50009B7F9093A404837009F069C00E948C0E1F
:104B600066C0C090C503D090C6030D2C000CEE08A3
:104B7000FF0880E099E0ADE3B0E0AC01BD014C1965
:104B80005D096E097F0980919E0490919F04A09118
:104B9000A004B091A104840F951FA61FB71F809396
:104BA0009E0490939F04A093A004B093A104C0908E
:104BB000A504D090A604E090A704F090A80420E8F3
:104BC000C20ED11CE11CF11CC092A504D092A60417
:104BD000E092A704F092A804209141042F5F209353
:104BE0004104BC01CD0166537D4F8E4F9F4F44E081
:104BF0000E94581480914104853148F08091BE0391
:104C00009091BF0380629093BF038093BE03809115
:104C10009904853670F08091BE039091BF038D7D1D
:104C2000997F9093BF038093BE038BE02CC0C4E0B8
:104C300001C0C3E0C0909E04D0909F04E090A00407
:104C4000F090A10489E0D80E8DE3E81EF11C63E02A
:104C500080E00E944313C61AD70AE80AF90AC092F4
:104C60009A04D0929B04E0929C04F0929D0480915F
:104C70002703809399048091BE039091BF0391FD17
:104C80000E9470178C2FCF91FF90EF90DF90CF9004
:104C90000C94C724CF92DF92EF92FF920F931F9351
:104CA000CF93DF9380915504813031F48091570484
:104CB000811102C00E948C0E8091BE0387FF0E946A
:104CC0008C0E1091570411118FC08091BE039091EA
:104CD000BF0382FD15C085FF0E948C0E8091BE032C
:104CE0009091BF038F759093BF038093BE03809113
:104CF000C4038A3018F48F5F8093C40389E05CC1D9
:104D00002091B4032F5F263019F02093B40302C022
:104D10001092B403209154042F5F2093540420FD7B
:104D20000EC02091C203222361F0E22FF0E0E6538F
:104D3000FD4F30813F3F09F021502093C203C0E076
:104D400001C0C1E08F77977F9093BF038093BE032C
:104D50000E94A10C6B017C01809136039091370376
:104D6000A0913803B0913903B701A601481B590B34
:104D70006A0B7B0B77FF02C06C017D018FEF90E027
:104D80000090C20302C0959587950A94E2F70E94AD
:104D90001614DC01CB018A5C9149AE4FBF4FC80E9F
:104DA000D91EEA1EFB1EC0921703D0921803E09290
:104DB0001903F0921A03CC2ED12CE12CF12CC11145
:104DC00003C0C7E0D8E202C0C1E0D8E20E94A10C53
:104DD000AB01BC014C0D5D1D6E1D7F1D9E018AE265
:104DE00093E00E94DC0CEAC0113141F0113231F045
:104DF0008091550480FF69CF80E0E1C08091580424
:104E0000837E8032A9F7C12FD0E083EB94E00E942B
:104E1000E709AE014150510969E574E080E00E9464
:104E2000312A83EB94E00E94E7092497AE0168E5FC
:104E300074E08AE00E94312A6B017C01CE01885A1D
:104E40009B4F0E94FB16C616D706E806F90681F6A8
:104E50008FE594E00E94CF1660932404709325049C
:104E600080932604909327048CE594E00E94CF164B
:104E7000DC01CB01BB278093BA039093BB03A093C3
:104E8000BC03B093BD0380E00E947B15123108F093
:104E900049C08091020490910304019720E1E4E06D
:104EA000F4E0DF01322F1D923A95E9F731E03093BB
:104EB000040436E0E9E5F4E0A5E0B4E001900D92E9
:104EC0003A95E1F780930B0490930C04E4E0F4E04E
:104ED000A4E1B4E001900D922A95E1F782E080937D
:104EE000140483EB94E00E94E70940E150E064E0A1
:104EF00074E080E00E94312A83EB94E00E94E7098D
:104F000040E150E064E174E080E00E94312A809149
:104F1000BE039091BF0384729927892BF9F40E94F4
:104F20008C0E1CC085E6E82E84E0F82EC3E0C70195
:104F30000E94DD16AB01BC014115510561057105EB
:104F400031F00FEF20E030E08C2F0E944F1ACF5F3E
:104F500083E0E80EF11CC83051F79BCF8091BE036F
:104F60009091BF0385FF11C03091C4032091C2030B
:104F7000315048F0E22FF0E0E653FD4F40814F3FC3
:104F8000B9F32150F5CF2093C20389759D7F90938B
:104F9000BF038093BE03109254040E94D0138091EB
:104FA00063048F7080933B0480916404811101C07D
:104FB00081E08093330486E00E94C72481E0DF9182
:104FC000CF911F910F91FF90EF90DF90CF900895B8
:104FD00080915704811108C04CE255E16CE67CEDEC
:104FE00082E090E00C9494140E944A268823A1F356
:104FF000089580915704811102C0109255040C94B9
:105000004A2688E00C94C72485E00C94C7240C94AD
:105010000F1F80915704882351F084E0809355043A
:105020000E94D71A882319F08DE00C94C7240C94A1
:105030000F1F8091BE0387FF0E948C0E8091570442
:10504000811198C0E0915404EE2391F1E83070F59D
:10505000EF5FE0935404F0E0E556FD4F90818091BE
:10506000C203915048F0E82FF0E0E653FD4F208155
:105070002F3FB9F38150F5CF60E80E94FE15609193
:105080001B0370911C0380911D0390911E0343E04C
:105090000E9458148091BE039091BF038F77909324
:1050A000BF038093BE030E940F1F62C080E601C051
:1050B00080E28093550480913104803819F08F5F2D
:1050C0008093310410925704109256048091BE03CD
:1050D0009091BF039C0127773093BF032093BE03B9
:1050E00020915504277059F094FF09C087779F7E5F
:1050F0009093BF038093BE038FE00E94C7248AE091
:105100000E94C724809131048931ECF08091C20360
:10511000E82FF0E0E653FD4F90819F3F09F081506A
:1051200060E80E94FE158CE0809331048091BE03FC
:105130009091BF03806290619093BF038093BE0300
:105140008EE00E94C72480914204882389F09091C8
:10515000BE0391FF06C082E00E94C7241092420461
:1051600007C0815080934204811102C00E9434150F
:1051700081E008950E94D71A8111A8CF909155041B
:1051800090FF60CF08958091570481110CC0A091C9
:105190003304B0E0119622E13AE70E94BB3244E2C8
:1051A00055E10C9494140E941928882381F30895E2
:1051B000CF92DF92EF92FF9280915704811120C02D
:1051C000109255040E94A10C6B017C0182E00E94A8
:1051D000161426E3C20E2EE6D21E21E0E21EF11CBA
:1051E000AB01BC014C0D5D1D6E1D7F1D26E039E23B
:1051F0008AE293E0FF90EF90DF90CF900C94DC0C6C
:10520000FF90EF90DF90CF900C9419280C94192800
:10521000EEEBF3E0808191818C7F9183808310920B
:1052200042040C940F1F811180E880933704089585
:105230000C94FE158AE293E00E94A30C80E00E9489
:105240008C12EEEBF3E08081918180649183808306
:105250000895CF9380E00E948C128AE293E00E942E
:10526000A30C8CE991E0E7E1F3E0DF019C011D92E2
:1052700021503040E1F70E94B311C82F0E94B311B2
:105280002C2F30E0322F2227282B30930304209339
:1052900002041092BF031092BE031092C30380E871
:1052A0008093370410923B0488E096EEA3EDB3E3BD
:1052B00080933C0490933D04A0933E04B0933F043C
:1052C00021E0209333048093500490935104A093E1
:1052D0005204B093530483E0809344048FEF80938F
:1052E0004504CF9108950E9429290E949B1E8CE0BD
:1052F0000C94C72480E490E09093BF038093BE0396
:1053000008958091BE039091BF039C01277630934E
:10531000BF032093BE031092CD0385709927892B7C
:1053200049F48AE293E00E94A30C80E00E948C1270
:105330000C940F1F08958091BE039091BF039C01B0
:1053400028603093BF032093BE0382FF1092540461
:105350000C940F1F1F93CF93DF934533B0F4122F9C
:10536000C42FD82F6115710529F050E08EEC93E021
:105370000E9489341093CC03D093CB03C093CD0308
:105380000E949B2980E090E002C08EEF9FEFDF91AA
:10539000CF911F910895EEEBF3E0808191818061C0
:1053A000918380830C940F1FEEEBF3E08081918159
:1053B0008062918380830C940F1FEF92FF920F9372
:1053C0001F936093BA037093BB038093BC039093C5
:1053D000BD03209324043093250440932604509366
:1053E00027040115110541F080E1F801A4E0B4E0C3
:1053F00001900D928A95E1F7E114F10441F080E10A
:10540000F701A4E1B4E001900D928A95E1F780E004
:105410000E947B158091BE039091BF0389759D7F8B
:1054200098609093BF038093BE031F910F91FF90EC
:10543000EF900C94D01310923204811102C080E8D6
:1054400001C084EF809331040895660F771F660FC3
:10545000771F860F971FFC01659175918591949137
:1054600008952F923F924F925F926F927F928F9208
:105470009F92AF92BF92CF92DF92EF92FF920F93E3
:105480001F93CF93DF93CDB7DEB7AB970FB6F894EA
:10549000DEBF0FBECDBF898B7BA76AA71A0103EBC6
:1054A00014E01A87098723EC34E0F80160817181E8
:1054B000828193810E94A53261937193819391932C
:1054C0002E173F0799F78091BF049091C004A091D7
:1054D000C104B091C20404E010E0980123703327A6
:1054E000232B81F5EA2FF0E0E657FF4E24912A8B1B
:1054F000E92FF0E0E657FF4E34913D87E82FF0E0CA
:10550000E657FF4E44914E8B8B2F9927AA27BB2736
:10551000FC01E657FF4E54915A8FB801645071094F
:1055200075956795759567958AE891E10E94252A9A
:10553000DC01CB01EA8D8E27FA89BF272D85A227B2
:105540003E899327E985FA85419151916191719145
:10555000FA87E98784279527A627B7278487958721
:10556000A687B7870F5F1F4F0C32110509F0B5CF23
:10557000098903FF21C010926F05109270051092E7
:1055800071051092720510926B0510926C051092C5
:105590006D0510926E0510926705109268051092C5
:1055A000690510926A0510926305109264051092C5
:1055B00065051092660577C060916305709164057A
:1055C00080916505909166050E94A5326093630500
:1055D00070936405809365059093660560916705F7
:1055E000709168058091690590916A050E94A532C5
:1055F00060936705709368058093690590936A05C9
:1056000060916B0570916C0580916D0590916E05B0
:105610000E94A53260936B0570936C0580936D05B5
:1056200090936E0560916F05709170058091710582
:10563000909172050E94A53260936F05709370057A
:1056400080937105909372052EC029813A814B8118
:105650005C81209363053093640540936505509306
:105660006605C0926705D0926805E0926905F092E0
:105670006A0540926B0550926C0560926D057092C0
:105680006E0580926F0590927005A0927105B092A0
:10569000720509891D821E821F82188603FDD1C6EC
:1056A00009890860098B12140CF0D5C6198912FDFE
:1056B00004C011FF19C613FD25C020916305309168
:1056C0006405409165055091660529833A834B83B3
:1056D0005C83C0906705D0906805E0906905F09004
:1056E0006A0540906B0550906C0560906D05709058
:1056F0006E0580906F0590907005A0907105B09038
:1057000072059DC031E12316310408F0EDC540E17A
:105710002416310411F480E101C080E20989082BCC
:10572000098B812C912C5401412C512C3201C12C1C
:10573000D12C760119821A821B821C8280C04D8175
:105740005E816F817885762F652F542F44274D8396
:105750005E836F83788709851A852B853C85801742
:105760009107A207B30708F0CCC5408150E060E084
:1057700070E00D811E812F813885042B152B262B7F
:10578000372B0D831E832F833887AC01BD014370F7
:10579000552766277727433051056105710551F478
:1057A000C982DA82EB82FC82730162012401350135
:1057B000480159010196A11DB11D31968031910515
:1057C000A105B10509F0BBCF198911FF38C080913F
:1057D000630590916405A0916505B09166052981E6
:1057E0003A814B815C81282739274A275B27298307
:1057F0003A834B835C838091670590916805A09103
:105800006905B0916A05C826D926EA26FB2680914B
:105810006B0590916C05A0916D05B0916E054826C1
:1058200059266A267B2680916F0590917005A0917C
:105830007105B091720588269926AA26BB2680910B
:10584000B3049091B404A091B504B091B604498119
:105850005A816B817C81482759276A277B27498396
:105860005A836B837C838091B7049091B804A09194
:10587000B904B091BA0497018601082719272A278D
:105880003B270D831E832F8338878091BB04909123
:10589000BC04A091BD04B091BE04A30192012827CD
:1058A00039274A275B2729873A874B875C8780916E
:1058B000BF049091C004A091C104B091C204B5018D
:1058C000A401482759276A277B274A8B5B8B6C8B5F
:1058D0007D8B03EB14E0D80154966D917D918D91F1
:1058E0009C9157976D877E878F87988B58962D91BF
:1058F0003D914D915C915B972E8B3F8B488F598FDB
:105900005C962D913D914D915C915F972A8F3B8FD5
:105910004C8F5D8F50962D913D914D915C91539799
:105920002E8F3F8F48A359A3B9816B2F70E08AE86F
:1059300090E00E94252A6AA37BA38CA39DA3EA8101
:105940006E2F70E08AE894E00E94252A2B013C012A
:10595000FB816F2F70E08AE898E00E94252A4B01B6
:105960005C0129813A814B815C81652F77278827EB
:1059700099278AE89CE00E94252A6B017C013D81E1
:10598000632F70E08AE890E00E94252AA30192012B
:1059900026273727482759272EA33FA348A759A7CB
:1059A0003E81632F70E08AE894E00E94252A8626D3
:1059B0009726A826B9264F81642F70E08AE898E0E0
:1059C0000E94252AC626D726E826F9262D813E8163
:1059D0004F815885652F7727882799278AE89CE08B
:1059E0000E94252A4AA05BA06CA07DA046265726CF
:1059F000682679263985632F70E08AE890E00E9456
:105A0000252A9B01AC01282539254A255B252983B8
:105A10003A834B835C833A85632F70E08AE894E095
:105A20000E94252AC626D726E826F9264B85642F0C
:105A300070E08AE898E00E94252A4B015C018424EA
:105A40009524A624B72429853A854B855C85652F46
:105A50007727882799278AE89CE00E94252A4EA06C
:105A60005FA068A479A446265726682679263A8935
:105A7000632F70E08AE890E00E94252AC626D72688
:105A8000E826F9264E8D5F8D68A179A1C426D5261A
:105A9000E626F7265B89652F70E08AE894E00E948D
:105AA000252ADC01CB0188259925AA25BB252D8532
:105AB0003E854F855889282739274A275B272D8718
:105AC0003E874F87588B3C89632F70E08AE898E0C7
:105AD0000E94252A46265726682679264E895F8900
